:020000040800F2
:100000004024002091A900087D0900087F0900080C
:1000100083090008870900088B0900080000000018
:100020000000000000000000000000008F09000830
:1000300091090008000000009309000895090008D4
:10004000ABA90008ABA90008ABA90008ABA9000840
:10005000ABA90008ABA90008CD390108DF390108B8
:10006000ABA90008A3390108B5390108ABA90008FC
:10007000ABA90008ABA90008ABA90008ABA9000810
:10008000ABA90008ABA90008ABA90008ABA9000800
:10009000BDE80008ABA90008ABA900083B3901087E
:1000A000ABA90008ABA90008ABA90008ABA90008E0
:1000B000ABA90008ABA90008ABA90008ABA90008D0
:1000C000ABA90008ABA90008ABA90008ABA90008C0
:1000D000ABA900088FE1000823E00008E5E0000874
:1000E000B5380108ABA90008ABA90008ABA9000806
:1000F000ABA90008ABA90008ABA90008ABA9000890
:10010000ABA90008ABA90008ABA90008ABA900087F
:10011000ABA90008C3DF0008ABA90008ABA9000821
:10012000ABA90008ABA90008ABA90008ABA900085F
:10013000ABA90008ABA90008ABA90008ABA900084F
:10014000ABA90008ABA90008ABA90008ABA900083F
:10015000ABA90008ABA90008ABA9000845E000085E
:10016000ABA90008ABA90008ABA90008ABA900081F
:10017000ABA90008ABA90008ABA90008ABA900080F
:10018000ABA90008ABA90008DFF80CD013F0D0FF32
:1001900000480047BD0800084024002010B5024672
:1001A0000B4600200021022104E0545C0444E0B22C
:1001B0004C1CE1B2DC1E8C42F7DC10BD2DE9F04195
:1001C00005460E460024002700BF06E0285D474094
:1001D000285D0DF062FE601CC4B2042CF6DB3046D4
:1001E0000DF05BFE774038460DF057FE0D200DF008
:1001F00054FE0A200DF051FEBDE8F08138B5002410
:100200000020F9490870F948007820B108460DF03F
:1002100024FE00B938BDF648007820B1F2480EF04F
:100220000CFA00B9F6E7F348007830B1012816D08F
:10023000022826D003286BD135E0EB4800784C2803
:100240000CD1E9480178EC4802780078401CEA4B70
:100250001870EA4881540120E649087058E0E248E5
:10026000007850280CD1E0480278E3480178007803
:10027000401CE14B1870E14842540220DD490870EF
:1002800046E0D9480278DC4801780078401CDA4B17
:100290001870DA484254D44800780D2802D103205F
:1002A000D449087034E0D0480178D3480278007807
:1002B000401CD14B1870D1488154CB4800780A2893
:1002C00025D118460178CD48FFF768FF0446CA4893
:1002D0000078C01EC949085CA04205D1C648017813
:1002E000C64802F062FB09E0C448407E13230022A6
:1002F00008210090C248007801F072FC4021BF48FC
:1003000013F083FB0020BB490870BB49087000BF95
:1003100000BF00BF7EE738B500240020B249087056
:100320007BE0B1480EF089F900B938BDB1480078DA
:1003300030B1012816D0022826D003286CD135E030
:10034000A94800784C280CD1A7480178AA4802781F
:100350000078401CA84B1870A84881540120A5497A
:10036000087059E0A048007850280CD19E480178C8
:10037000A14802780078401C9F4B18709F48815418
:1003800002209C49087047E0974801789A48027813
:100390000078401C984B1870984881549248007817
:1003A0000D2802D103209349087035E08E4801786A
:1003B000914802780078401C8F4B18708F48815408
:1003C000894800780A2826D1184601788B48FFF71B
:1003D000E5FE044688480078C01E8849085CA042B3
:1003E00005D185480178854802F0DFFA09E08348A5
:1003F000407E13230022082100908148007801F0FC
:10040000EFFB40217D4813F000FB00207949087084
:100410007949087089E700BF00BF82E710B5002066
:100420007849087008460DF03DFE00B910BD7648C9
:10043000007830B1012816D0022826D0032855D1E3
:1004400035E0704800784C280CD16E4801786F4830
:1004500002780078401C6D4B18706D488154012063
:100460006949087042E06748007850280CD1654817
:100470000178664802780078401C644B1870644824
:10048000815402206049087030E05E4801785F487E
:1004900002780078401C5D4B18705D4881545948C3
:1004A00000780D2802D10320574908701EE05548F6
:1004B0000178564802780078401C544B1870544814
:1004C0008154504800780A280FD10DF0E0FD4F48C4
:1004D00001784F4802F0C4FA40214D4813F095FAD4
:1004E0000020494908704949087000BF00BF00BF9B
:1004F0009CE710B500204749087008460DF041FD03
:1005000000B910BD4448007830B1012816D0022847
:1005100026D0032855D135E03E4800784C280CD130
:100520003C4801783D4802780078401C3B4B1870ED
:100530003B48815401203849087042E03548007832
:1005400050280CD133480178344802780078401C98
:10055000324B18703248815402202F49087030E025
:100560002C4801782D4802780078401C2B4B1870DD
:100570002B488154274800780D2802D103202649B2
:1005800008701EE023480178244802780078401C57
:10059000224B1870224881541E4800780A280FD137
:1005A0000DF0E4FC1D4801781D4802F069FA402175
:1005B0001B4813F02AFA00201749087017490870E1
:1005C00000BF00BF00BF9CE710B5002415491648C6
:1005D0000DF0F9F900B910BD1448007840B30228B5
:1005E0003CD0032839D14BE003000020010000205B
:1005F0000000002006000020040000200C05002060
:100600004A00002002000020070000200500002012
:10061000CC04002008000020090000200A0000206F
:100620008C040020FC0E002018000020190000207F
:10063000FFE7B948007802280FD10020B7490870B9
:10064000B5480178B64802880088401CB44B188031
:10065000B44881540220B449087046E0AE4801789D
:10066000AF4802880088401CAD4B1880AD488154CB
:10067000A94800780D2802D10320AB49087034E066
:10068000A5480278A64801880088401CA44B188021
:10069000A4484254A04800780A2825D1A3A1A14823
:1006A00013F0BEF9A2490860A2A19E4813F0B8F960
:1006B000A14908609E48006850B90846006838B9EA
:1006C000E4239748028897499C4800780EF014F973
:1006D0000120924908704021924813F096F90020B9
:1006E000914908708E49088000BF00BF00BF72E7C3
:1006F00010B50024924993480DF065F900B910BD7A
:100700009148007820B1022817D003284ED126E066
:100710008C48007832280FD100208C490870894815
:1007200001788B4802880088401C894B18808948D2
:10073000815402208449087038E082480178844856
:1007400002880088401C824B1880824881547D4872
:1007500000780D2802D103207B49087026E07948F3
:1007600001787B4802880088401C794B18807948C2
:100770008154744800780A2817D177A1754813F07E
:100780004FF9764908600846006810B101207449A5
:10079000087001206D49087020216E4813F035F96A
:1007A0000020694908706A49088000BF00BF00BF87
:1007B000A5E71CB5012102200AF020FC4FF480407F
:1007C000009001208DF8040000208DF80600032021
:1007D0008DF8050001208DF80700694661480AF090
:1007E000C7F94FF480415F480AF03EFA1CBD10B5CE
:1007F0000EF000FEFFF7DDFF0EF064FC0EF08AFC49
:100800000EF0ACFC00200EF04CFC0EF059F90DF08F
:1008100029F80DF051FF0DF0B6FF0DF005FB0CF0BF
:1008200023FE13F037F80FF056FA12F0E7F84348BA
:100830000078032807D1012107200EF06BFB01216E
:1008400008200EF067FB4FF47A7000F015F910BD28
:1008500000204549087048708870C8700871487158
:100860008871704710B500F048FF00F054FF11F098
:100870004EFB4FF4FA7000F086F9FFF7E9FF10BD68
:100880001CB5012108460AF0B9FB4FF480700090B6
:1008900003208DF8050002208DF8040000208DF85B
:1008A000060001208DF80700694630480AF060F91B
:1008B0004FF0806108110AF0C1FA1CBDA82000F0B9
:1008C000E6F8FFF7DDFFFFF792FFFFF7CBFF00BF72
:1008D000FFF721FDFFF7A2FDFFF70BFE1748007899
:1008E000052802D1FFF770FE01E0FFF701FF204865
:1008F00004F0BDFA1F4804F0E7FA1F4804F00AFBB1
:1009000008F051FA06F01CFD09F0FDFF04F02EF886
:1009100011F0F7FBDCE70000180000201C000020AD
:100920001A0000204C050020190000205300000090
:10093000200000203F000000240000204A0000208A
:10094000740E002028000020290000202C00002028
:100950002A0000208C0500204F00000030000020FD
:100960002D0000200004024080040020000002400E
:10097000AC0500205004002058040020704700BF40
:10098000FEE700BFFEE700BFFEE700BFFEE77047DF
:100990007047704710B500F031F810BD9A480068F4
:1009A000704730B500BF99480068994AB0FBF2F132
:1009B000B1F1807F01D301201DE021F07F40401E76
:1009C0004FF0E022506150170F22002807DA13077A
:1009D0001D0E904B00F00F04241F1D5503E013075C
:1009E0001C0E8D4B1C5400BF00204FF0E022906184
:1009F0000720106100200028D5D130BD8248006852
:100A0000401C814908608548006820B1834800681F
:100A1000401E8249086070478049086000BF7F49D6
:100A200009680029FBD170474FF47A707B49086050
:100A300000BF7A4800680028FBD1704700B5024625
:100A400001E0FFF7F1FF101EA2F10102F9D100BD94
:100A500000B5024601E0FFF7E7FF101EA2F1010218
:100A6000F9D1012000BD002046F2BF3000BF011EB9
:100A7000A0F10100FBD1704710B50346002400BF70
:100A800002E0FFF7F0FF641C9C42FAD310BD10B5E2
:100A900004466FF0040009F0DFFFE00860490860D9
:100AA0000846008880B24FF47A7148435D49086077
:100AB00010BD01465A4A12684A434FF0E0235A617A
:100AC00000229A611A46126942F001021A6100BFBF
:100AD0004FF0E022106900F001021AB100F48032F8
:100AE000002AF5D04FF0E022126922F001024FF007
:100AF000E0231A6100229A6170470146494A126850
:100B00004A434FF0E0235A6100229A611A46126963
:100B100042F001021A6100BF4FF0E022106900F0BC
:100B200001021AB100F48032002AF5D04FF0E02221
:100B3000126922F001024FF0E0231A6100229A614B
:100B4000704770B5034600224FF0E0267569344EB9
:100B5000366803FB06F44FF0E026B16910E04FF071
:100B6000E026B06988420BD0884202D20E1A324485
:100B700002E02E1A0E4432440146A24200D300E0A5
:100B8000EDE700BF70BD30B50446264800686043FD
:100B900000EB800040004FF0E021486100208861B8
:100BA0000846006940F001000861002504E04FF4A8
:100BB0007A70FFF7C6FF6D1CA542F8D34FF0E02016
:100BC000006920F001004FF0E021086130BD70B5F0
:100BD00004464FF4077094FBF0F0C6B24FF4077070
:100BE00094FBF0F100FB114085B205E04FF4077073
:100BF000FFF7C9FF701EC6B2002EF7D115B1284607
:100C0000FFF7C1FF70BD00003C000020240300205E
:100C100040420F0018ED00E000E400E03800002042
:100C20004000002044000020002000BF09E0002117
:100C3000FE4A02EB40025170FC4A02F81000411CCF
:100C400088B21628F3DB7047F8B50024F84D00266B
:100C500040F2EC462B462246A021F64800960CF0C6
:100C6000DEFDF8BD10B5F448007802287ED1DC2006
:100C7000EF49086046F6DB00486040F2B710886034
:100C80004DF2B710C86040F2B7100861DC2048612F
:100C90000A2088610120C86110200862042048628F
:100CA00042F208008862E549E148C162E449016313
:100CB000E4494163E249816342F20801C1630A21C8
:100CC000016401214164102181640421C164DE4872
:100CD000D7490865DD49D6484165DD498165DD496B
:100CE000C165DB490166D84941660A218166012157
:100CF000C1661021016704214167D348CC49886748
:100D0000D249CB48C167D249C0F88010D149C0F858
:100D10008410CF49C0F88810CB49C0F88C100A2144
:100D2000C0F890100121C0F894101021C0F898105C
:100D30000421C0F89C1040F69800BD49C1F8A000FD
:100D400046F6DB01BA48C0F8A410C349C0F8A810A1
:100D5000C249C0F8AC10C049C0F8B01040F69801C4
:100D6000C0F8B4100A21C0F8B81000E053E0012127
:100D7000C0F8BC101021C0F8C0100421C0F8C41085
:100D800046F6E070AA49C1F8C80041F28831A84887
:100D9000C0F8CC1040F2EA41C0F8D01046F66051DD
:100DA000C0F8D41043F22D11C0F8D8104FF4AF6141
:100DB000C0F8DC100A21C0F8E0100121C0F8E410EE
:100DC0001021C0F8E8100421C0F8EC1040F698009B
:100DD0009749C1F8F00046F6DB019548C0F8F410D9
:100DE0004AF67C31C0F8F8109D49C0F8FC1040F676
:100DF0009801C0F800114FF4AF61C0F804110A2146
:100E0000C0F808110121C0F80C111021C0F8101110
:100E10000421C0F814118848007803287ED140F6D8
:100E200021008349086046F6D90048604DF2B010B1
:100E300088608C48C8604DF2B010086140F621000F
:100E400048610A2088610120C861102008620420DE
:100E500048624FF47A7088624CF250317448C16233
:100E600043F22D1101638049416343F22D118163E7
:100E70004FF4AF61C1630A21016401214164102173
:100E800081640421C1644FF47A70694908654CF2A9
:100E900050316748416543F22D1181657249C16542
:100EA00043F22D1101664FF47A7141660A21816681
:100EB0000121C16610210167042141676B485C492B
:100EC000886701465A48C1676949C0F88010694976
:100ED000C0F884106849C0F888106849C0F88C10C0
:100EE0000A21C0F890100121C0F894101021C0F818
:100EF00098100421C0F89C104FF47A704C49C1F846
:100F0000A0004CF250314A48C0F8A41047F687318F
:100F1000C0F8A8105A49C0F8AC1000E05EE047F6EF
:100F20008731C0F8B0104FF4AF61C0F8B4100A2197
:100F3000C0F8B8100121C0F8BC101021C0F8C010D2
:100F40000421C0F8C41046F6E0703949C1F8C80061
:100F500041F288313648C0F8CC1040F2EA41C0F87E
:100F6000D01046F66051C0F8D41043F22D11C0F8ED
:100F7000D8104FF4AF61C0F8DC100A21C0F8E010BF
:100F80000121C0F8E4101021C0F8E8100421C0F8D5
:100F9000EC1040F698002649C1F8F00046F6DB0157
:100FA0002348C0F8F4104AF67C31C0F8F8102C49F8
:100FB000C0F8FC1040F69801C0F800114FF4AF6182
:100FC000C0F804110A21C0F808110121C0F80C1161
:100FD0001021C0F810110421C0F81411164800782F
:100FE00004287DD1274812490860274848602748CF
:100FF00088602748C86025480861264848610A205B
:1010000088610120C861102008620420486242F211
:10101000D870886220490648C1624CF218410163C9
:101020001E4941634CF21841816339E0D00500202C
:10103000FC050020005400404A0000205E32010000
:101040008E1804002631080050400100ACF70B0058
:101050008CF528007CEB5100BC47010032870A0068
:1010600000530700F76D010040420F00605B030072
:10107000BB4F0C00004C9A007B60040080A9030069
:101080001B13060026880100DE9DB5007C6CC6009F
:10109000468A980066CA10005BA10100F0A807000C
:1010A00042F2D871C1630A21016401214164102117
:1010B00081640421C16440F69800FE49086546F643
:1010C000DB01FC48416542F208018165FA49C165CE
:1010D00042F20801016640F6980141660A2100E0EB
:1010E00092E081660121C1661021016704214167F8
:1010F000F248F04988674EF6AB51EE48C167F049B7
:10110000C0F88010EC49C0F88410ED49C0F8881090
:10111000EA49C0F88C100A21C0F890100121C0F8EB
:1011200094101021C0F898100421C0F89C1042F2CD
:10113000D870E049C1F8A000E249DE48C0F8A41028
:101140004CF21841C0F8A810DF49C0F8AC104CF2BE
:101150001841C0F8B01042F2D871C0F8B4100A219A
:10116000C0F8B8100121C0F8BC101021C0F8C010A0
:101170000421C0F8C41042F2D870CE49C1F8C800AA
:10118000D049CC48C0F8CC104CF21841C0F8D0106F
:10119000CE49C0F8D4104CF21841C0F8D81042F231
:1011A000D871C0F8DC100A21C0F8E0100121C0F8A5
:1011B000E4101021C0F8E8100421C0F8EC1040F64B
:1011C0009800BC49C1F8F00046F6DB01B948C0F808
:1011D000F4104AF67C31C0F8F810BD49C0F8FC1094
:1011E0004AF67C31C0F8001140F69801C0F80411AD
:1011F0000A21C0F808110121C0F80C111021C0F813
:1012000010110421C0F81411B248007805287DD1CE
:1012100040F69800A749086042F2EC10486042F29C
:10122000C60088604DF2B710C86042F2C60008617F
:1012300040F6980048610A2088610120C8611020AA
:1012400008620420486240F6B83088624FF4FA61C0
:101250009848C16241F2707101639F49416341F254
:10126000707181634910C1630A21016401214164E5
:10127000102181640421C16442F208008D4908658F
:1012800042F6BC118B484165944981659449C1651A
:101290009249016642F2080141660A2181660121F4
:1012A000C166102101670421416740F6B8308149C9
:1012B00088674FF4FA617F48C16741F27071C0F8E6
:1012C00080108849C0F8841041F27071C0F888100D
:1012D0004910C0F88C100A21C0F890100121C0F804
:1012E00094101021C0F898100421C0F89C1040F60A
:1012F00098007049C1F8A0004DF2B7116D48C0F8D0
:10130000A4107949C0F8A810754900E05FE0C0F862
:10131000AC107549C0F8B01040F69801C0F8B41090
:101320000A21C0F8B8100121C0F8BC101021C0F883
:10133000C0100421C0F8C41046F6E0705D49C1F841
:10134000C80041F288315B48C0F8CC1040F2EA4155
:10135000C0F8D01046F66051C0F8D41043F22D11F9
:10136000C0F8D8104FF4AF61C0F8DC100A21C0F803
:10137000E0100121C0F8E4101021C0F8E8100421A9
:10138000C0F8EC1040F698004A49C1F8F00046F663
:10139000DB014848C0F8F4104AF67C31C0F8F81078
:1013A0005249C0F8FC1040F69801C0F800114FF403
:1013B000AF61C0F804110A21C0F808110121C0F87A
:1013C0000C111021C0F810110421C0F81411484864
:1013D0003849C1F8880347493648C0F88C1342F2AF
:1013E0005D41C0F890134449C0F894134349C0F8D4
:1013F00098134FF4C831C0F89C1341F28831C0F8FB
:10140000A01341F2CC01C0F8A4130A21C0F8A8131C
:101410003B49C0F8AC133B482649C1F8300241F6BD
:10142000AA212448C0F834124FF4FA71C0F83812D7
:1014300040F6C411C0F83C1242F2F031C0F840123C
:1014400045F64801C0F8441246F28471C0F84812CB
:1014500047F2C061C0F84C1248F6A041C0F85012E3
:101460002949C0F8541241F6C811C0F85812491061
:10147000C0F85C1248F6B801C0F860122349C0F801
:10148000641241F2DB61C0F868124FF40051C0F8F9
:101490006C1242F22831C0F870120021C0F87412A8
:1014A0001B49C0F878121B49C0F87C121A49C0F8D1
:1014B000801233E0FC05002006C50C0050400100FE
:1014C000A08601005BA10100F0A80700E4E8050088
:1014D000F6BB07004A00002026310800BC47010087
:1014E000A71B030040640100D71F01000053070041
:1014F000F0490200605B030070FEFFFF2C760100E4
:10150000E02202007C98FFFF803801000858FFFFAE
:10151000188C010098980100041D0200FE49C0F8D3
:1015200084124AF6C871C0F8881243F2F431C0F848
:101530008C12C821C0F890124902C0F8941242F2ED
:101540001071C0F898124910C0F89C12F348F44981
:10155000C1F8F0024EF66021F148C0F8F41247F2EB
:10156000A031C0F8F812EF49C0F8FC12EE49C0F8FB
:1015700000134FF24471C0F80413EC49C0F808138B
:101580004FF24471C0F80C1340F2A461C0F810137C
:101590004FF21861C0F81413E549C0F818134FF45E
:1015A0007A41C0F81C134FF49651C0F8201340F64E
:1015B000C411C0F82413DF49C0F828134BF680315A
:1015C000C0F82C134CF61451C0F830130A21C0F89F
:1015D0003413C0F83813D848D149C1F8FC03D749AF
:1015E000CF48C0F80014D649C0F8041441F62B11B6
:1015F000C0F8081442F2F841C0F80C14D149C0F800
:101600001014D149C0F81414D049C0F8181441F688
:101610002B11C0F81C1442F2F841C0F8201444F217
:101620006821C0F824144EF29021C0F8281443F623
:10163000CD71C0F82C1444F2D911C0F83014C4494B
:10164000C0F8341449F64041C0F8381443F69821E4
:10165000C0F83C14BF49C0F84014BF49C0F8441456
:1016600046F65471C0F84814BC49C0F84C14BA4945
:10167000C0F8501443F68C41C0F85414B749C0F870
:101680005814B549C839C0F85C1446F68441C0F80E
:101690006014B349C0F86414AF496439C0F86814E1
:1016A00043F69821C0F86C14AE49C0F87014AC49E8
:1016B000C0F87414AC49C0F8781447F6E011C0F8CB
:1016C0007C1449F64041C0F8801445F20821C0F866
:1016D00084144AF6A721C0F88814A449C0F88C14D1
:1016E0004EF66021C0F89014A149C0F89414A149A5
:1016F000C0F89814FFF7A8FA10BDF8B50024884D7B
:10170000002640F2EC462B462246A0219A4800963D
:101710000BF026FFF8BD1CB5002466E004EB840046
:101720007F4901EBC0002321C26920460DF05AFF1A
:1017300004EB84007A4951F83020242120460DF032
:1017400051FF04EB8400764901EBC000252142687B
:1017500020460DF047FF04EB8400714901EBC00007
:101760002621826820460DF03DFF04EB84006C4981
:1017700001EBC0002721C26820460DF033FF04EBC7
:101780008400674901EBC0002821026920460DF062
:1017900029FF04EB8400624901EBC0002A21426961
:1017A00020460DF01FFF04EB84005D4901EBC000F3
:1017B0002B21826920460DF015FF04EB8400584967
:1017C00001EBC00090F8240004EB8401544A02EBC2
:1017D000C10191F8201007230022CDE9001010214B
:1017E00020460DF0D3FE601CC4B2072C96DB1CBD56
:1017F00013B59DF80000052878D19DF80100001F61
:1018000011286FD2DFE800F0261C58626E6E6E6EF3
:101810006E6E6E0912303A4E44009DF8021001EBD4
:1018200081013F4A019842F831005CE09DF80210C6
:1018300001EB81013A4A02EBC1010198486052E094
:101840009DF8021001EB8101354A02EBC1010198BC
:10185000886048E09DF8021001EB8101304A02EBFC
:10186000C1010198C8603EE09DF8021001EB8101C2
:101870002B4A02EBC1010198086134E09DF8021087
:1018800001EB8101264A02EBC101019848612AE07F
:101890009DF8021001EB8101214A02EBC101019880
:1018A000886120E09DF8021001EB81011C4A02EBE7
:1018B000C1010198C86116E09DF8021001EB810199
:1018C000174A02EBC101019808620CE09DF8021072
:1018D00001EB8101124A02EBC1010198486202E06A
:1018E00004E0FFE700BF00BFFFF7AEF91CBD7CB509
:1018F00004460025352105200DF08AFE05466420AA
:10190000FFF741F98022352120460DF06BFE64205F
:10191000FFF7B2F8032031E02C270200D0010100CC
:10192000FC050020F4780100908C01006C97010008
:1019300004550100F8240100788F0200243F0100C3
:1019400080A903001463010050400100605B0300A4
:1019500090D00300400D030088330300A4710300FE
:1019600000710200B0AD0100C027090058920100CB
:1019700020BF0200B42206000054004000210B46A4
:101980000A46CDE90010202120460DF0FFFD64201D
:10199000FFF772F87CBD70B506460D460024342171
:1019A00030460DF035FE044644F00802342130463E
:1019B0000DF018FE342130460DF02AFE044635B1F4
:1019C00044F00202342130460DF00CFE05E024F014
:1019D0000202342130460DF005FE70BD70B506469A
:1019E0000C460025342130460DF012FE0546342108
:1019F00030460DF00DFE054634B145F002023421AB
:101A000030460DF0EFFD05E025F0020234213046AE
:101A10000DF0E8FD70BD70B506460D46002434217A
:101A200030460DF0F5FD044644F004023421304602
:101A30000DF0D8FD342130460DF0EAFD044635B1F5
:101A400044F00102342130460DF0CCFD05E024F0D5
:101A50000102342130460DF0C5FD70BD70B506465B
:101A60000C460025342130460DF0D2FD054634B138
:101A700045F00102342130460DF0B4FD05E025F0BB
:101A80000102342130460DF0ADFD70BD70B5054644
:101A90000C460220F84908700020487008468570FE
:101AA000446010F01BF970BD70B505460C4601206E
:101AB000F14908700020487008468570446010F0B5
:101AC00069F970BD70B505460C460420EA490870F6
:101AD0000020487008468570446010F016F870BD0C
:101AE00070B505460C460420E34908700120487093
:101AF00008468570446001208978E04A505410F00F
:101B000004F870BD70B505460024352128460DF057
:101B10007FFD044604F0200018B10220D849485542
:101B200070BD04F4805038B14FF4805235212846FE
:101B30000DF058FD0120F3E704F0400030B14022E1
:101B4000352128460DF04EFD0120E9E704F0800024
:101B500048B10320CA4948558022352128460DF056
:101B600041FD0320DCE704F0100018B10120C44956
:101B70004855D5E70020D3E710B50446C148005DBD
:101B800038B16420FEF778FF2046FFF7BBFFBE495F
:101B9000087010BD2DE9F04104460D4600260027CF
:101BA00000BF11E02046FFF7E7FF3220FEF764FF99
:101BB000B348005DA84206D10020B2490855B0499B
:101BC0000855012703E0761CB6F5FA7FEADB00BF73
:101BD0003846BDE8F0810021AC4A42F82010704739
:101BE0002DE9F04706460C4617469846089D4FF0EB
:101BF00000094C20A649087050204870084686709D
:101C0000C77080F80480200E4871200C8871200A6B
:101C1000C8710C72280E4872280C8872280AC87283
:101C20000D7308468078C9780844994909790844B1
:101C30009749497908449649897908449449C9796A
:101C400008449349097A08449149497A08449049DB
:101C5000897A08448E49C97A08448D49097B084429
:101C600000F0FF098A4880F80D900D20884988739C
:101C70000A20C873082230460CF095FD08228449DA
:101C8000083130460CF08FFDBDE8F0872DE9F843B0
:101C900004460D4616464FF0000800277B4850F8D2
:101CA0002400401C794941F824002046FFF764FFD6
:101CB0007348005DA84208D1002072490855704958
:101CC00008550127714941F82400704850F8240054
:101CD00070490968884209D9002005EB04411323A3
:101CE000324600906C480078FFF77AFF3846BDE82E
:101CF000F8832DE9F04104460D46002700262046D2
:101D0000FFF73AFF5E48005DA84203D100205C491E
:101D1000085501263046BDE8F08170B504460D46F1
:101D2000002600BF0FE02046FFF726FF3220FEF717
:101D3000A3FE5348005DA84204D100205049085535
:101D4000012070BD761C41F288308642EBDB00201A
:101D5000F7E770B504460025002600BF0FE02046D7
:101D6000FFF70AFF3220FEF787FE4548005D28B1E5
:101D70004348065D00204249085503E06D1CB5F557
:101D8000FA7FECDB00BF304670BD70B5044600261C
:101D900000250A20FEF770FE2046FFF7EDFE052025
:101DA000FEF76AFE3648005D20B13548055D00202B
:101DB00033490855284670BD1CB504461420FEF76B
:101DC000E2FE20460EF0DFF86420FEF7DCFE032082
:101DD00000210B460A46CDE90010202120460DF0D7
:101DE000D5FB6420FEF7CFFE0022212120460DF016
:101DF000F9FB6420FEF7C7FE0021204610F010FD1D
:101E00002046FFF774FD3220FEF7BDFE00201C497E
:101E100008551C4908551CBD70B506460C460025E2
:101E2000342130460DF0F4FB054634B145F0100284
:101E3000342130460DF0D6FB05E025F010023421A8
:101E400030460DF0CFFB70BD70B506460C46002540
:101E5000002130460DF0DCFB054634B145F01002A0
:101E6000002130460DF0BEFB05E025F010020021F8
:101E700030460DF0B7FB70BD480400206A04002016
:101E80004B0000208004002085000020E80A00208C
:101E9000040B0020880000204A00002070B5064690
:101EA0000D460024342130460DF0B2FB044644F0C8
:101EB0000402342130460DF095FB342130460DF0FC
:101EC000A7FB044635B144F00102342130460DF041
:101ED00089FB05E024F00102342130460DF082FB3D
:101EE00070BD1CB50020FE4948700120FFF7FFFCC3
:101EF00001210846FFF7D2FF01200EF037F9044612
:101F0000002C3BD041F268010120FFF7DBFD0221EC
:101F10000120FFF73FFE4DF2B7110120FFF7B6FD9C
:101F200001210846FFF736FE04461CB90120ED49A1
:101F300048701CBD4FF4FA70FEF79EFD002221216F
:101F400001200DF04FFB4FF4FA70FEF795FD0320D2
:101F500000210B460A46CDE90010202101200DF09A
:101F600015FB4FF4FA70FEF787FD00210120FFF703
:101F700095FF0021012010F053FCDAE74DF2B71174
:101F80000120FFF783FD01210846FFF703FE044609
:101F90001CB90120D3494870CBE74FF4FA70FEF723
:101FA0006BFD0022212101200DF01CFB4FF4FA7083
:101FB000FEF762FD8022352102200DF013FB4FF465
:101FC000FA70FEF759FD032000210B460A46CDE9C1
:101FD0000010202101200DF0D9FA6420FEF74CFDFD
:101FE00000210120FFF75AFF4FF4FA70FEF744FD7D
:101FF00000BF9EE71CB50020B94988700220FFF79A
:1020000076FC01210220FFF749FF02200EF0AEF816
:102010000446BCB341F268010220FFF753FD0221E0
:102020000846FFF7B7FD4DF2B7110220FFF72EFD6E
:1020300001210220FFF7AEFD04461CB90120A94989
:1020400088701CBD4FF4FA70FEF716FD00222121A6
:1020500002200DF0C7FA4FF4FA70FEF70DFD0320D1
:1020600000210B460A46CDE90010202102200DF088
:102070008DFA4FF4FA70FEF7FFFC00210220FFF703
:102080000DFFDEE7FFE74DF2B7110220FFF7FEFC80
:1020900001210220FFF77EFD04461CB90120914971
:1020A0008870CEE74FF4FA70FEF7E6FC002221219B
:1020B00002200DF097FA4FF4FA70FEF7DDFC802253
:1020C000352102200DF08EFA4FF4FA70FEF7D4FCA1
:1020D000032000210B460A46CDE9001020210220F2
:1020E0000DF054FA6420FEF7C7FC00210220FFF730
:1020F000D5FE4FF4FA70FEF7BFFC00BFA1E71CB598
:1021000000207749C8700320FFF7F1FB012103206D
:10211000FFF7C4FE03200EF029F80446B4B34AF2D8
:1021200010410320FFF7CEFC02210320FFF732FD10
:102130004DF2B7110320FFF7A9FC01210320FFF79F
:1021400029FD04461CB90120664988701CBD4FF466
:10215000FA70FEF791FC0022212103200DF042FAD3
:102160004FF4FA70FEF788FC032000210B460A4664
:10217000CDE9001020210DF009FA4FF4FA70FEF7B6
:102180007BFC00210320FFF789FEDFE7FFE74DF22C
:10219000B7110320FFF77AFC01210320FFF7FAFCB7
:1021A00004461CB901204F49C870CFE74FF4FA70BC
:1021B000FEF762FC0022212103200DF013FA4FF4F8
:1021C000FA70FEF759FC8022352103200DF00AFA3F
:1021D0004FF4FA70FEF750FC032000210B460A462C
:1021E000CDE9001020210DF0D1F96420FEF744FC68
:1021F00000210320FFF752FE4FF4FA70FEF73CFC7B
:1022000000BFA3E710B53849887800210DF000FA27
:10221000044624F010023449887800210DF0E2F9D8
:1022200041F268010420FFF74DFC4FF4FA60FEF71D
:1022300023FC00210420FFF745FC10BD7CB50020E5
:10224000274908712849887800210DF0E1F90546F1
:1022500025F010022449887800210DF0C3F90420EC
:10226000FFF745FB01210420FFF718FE04200DF0C5
:102270007DFF0446D4B34FF4FA610420FFF722FC3B
:1022800002210420FFF786FC4DF2B7110420FFF76E
:10229000FDFB01210420FFF77DFC04461CB9012051
:1022A000104988707CBD4FF4FA70FEF7E5FB002200
:1022B000212104200DF096F94FF4FA70FEF7DCFBB3
:1022C000032000210B460A46CDE9001020210420FE
:1022D0000DF05CF94FF4FA70FEF7CEFB002106E03A
:1022E0004B000020520000204804002003E004209E
:1022F000FFF7D4FDD6E74DF2B7110420FFF7C6FB78
:1023000001210420FFF746FC04461CB90120FE49C8
:102310000871C7E74FF4FA70FEF7AEFB00222121E7
:1023200004200DF05FF94FF4FA70FEF7A5FB802250
:10233000352104200DF056F94FF4FA70FEF79CFB9E
:10234000032000210B460A46CDE90010202104207D
:102350000DF01CF96420FEF78FFB00210420FFF72D
:102360009DFD4FF4FA70FEF787FB00BF9AE710B5AA
:102370000024E648007800B30120E5498870887899
:1023800035210DF045F9044604F48060A8B1E14818
:10239000007848B10020DF490870DD498878DE49BF
:1023A0000968FFF78FFB08E00120DA490870D84977
:1023B0008878DA490968FFF785FB10BD10B500245D
:1023C000D748007800B30220D14988708878352139
:1023D0000DF01EF9044604F48060A8B1D1480078DD
:1023E00048B10020CF490870C9498878CE490968AA
:1023F000FFF768FB08E00120CA490870C4498878E3
:10240000CA490968FFF75EFB10BD10B50024C84833
:10241000007800B30320BE498870887835210DF01C
:10242000F7F8044604F48060A8B1C248007848B1C7
:102430000020C0490870B6498878BF490968FFF78D
:1024400041FB08E00120BB490870B1498878BB49CD
:102450000968FFF737FB10BD10B50024B8480078B5
:1024600000B30420AA498870887835210DF0D0F88F
:10247000044604F48060A8B1B248007848B1002056
:10248000B0490870A2498878AF490968FFF71AFB7C
:1024900008E00120AB4908709D498878AB4909687C
:1024A000FFF710FB10BD10B5A9490120FFF70AFB8B
:1024B00002210120FFF76EFBA6490220FFF702FB75
:1024C00002210846FFF766FB40F6AC510420FFF7F7
:1024D000F9FA02210420FFF75DFB9F490320FFF773
:1024E000F1FA02210320FFF755FB00210420FFF73A
:1024F000E9FA02210420FFF74DFB00210320FFF73A
:10250000E1FA02210320FFF745FB00210120FFF73C
:10251000D9FA02210120FFF73DFB00210220FFF73D
:10252000D1FA02210846FFF735FB40F6AC510420F2
:10253000FFF7C8FA02210420FFF72CFB002104203A
:10254000FFF7C0FA02210420FFF724FB10BD10B5ED
:102550007F490120FFF7B6FA7E490220FFF7B2FA61
:1025600040F6AC510420FFF7ADFA7B490320FFF79A
:10257000A9FA02210120FFF70DFB02210846FFF70F
:1025800009FB02210420FFF705FB02210320FFF7CE
:1025900001FB00210420FFF795FA02210420FFF738
:1025A000F9FA00210320FFF78DFA02210320FFF73B
:1025B000F1FA00210120FFF785FA00210220FFF740
:1025C00081FA02210120FFF7E5FA02210846FFF710
:1025D000E1FA40F6AC510420FFF774FA022104201E
:1025E000FFF7D8FA00210420FFF76CFA022104203B
:1025F000FFF7D0FA10BD30B503460C46181E01DBBC
:10260000054600E04542291B081E01DB054600E0A7
:102610004542954201D9012030BD0020FCE770B54C
:1026200004460D4629462046FFF74CFA0221204673
:10263000FFF7B0FA70BD10B50024DDE04749012076
:10264000FFF740FA43490220FFF73CFA40F6AC514D
:102650000420FFF737FA02210120FFF79BFA3E49D9
:102660000320FFF7DCFF00210420FFF7D8FF002143
:102670000320FFF7D4FF4FF664210120FFF722FA71
:1026800042F6F8210220FFF71DFA02210120FFF790
:1026900081FA31490320FFF7C2FF40F6AC51042014
:1026A000FFF7BDFF00210320FFF7B9FF0021022043
:1026B000FFF708FA00210120FFF704FA00210420A7
:1026C000FFF700FA02210120FFF764FA0221084611
:1026D000FFF760FA02210420FFF75CFA4FF664214D
:1026E0000120FFF7EFF942F6F8210220FFF7EAF99F
:1026F00040F6AC510420FFF7E5F902210420FFF772
:1027000049FA022101202BE0520000207C00002029
:10271000480400207D0000205C00002060000020B4
:102720007E0000207F000020640000206800002060
:1027300080000020810000206C000020700000203C
:102740008200002083000020740000207800002018
:1027500048E8010068B9010010EB0900285C03009B
:10276000FFF718FA02210846FFF714FAF749032089
:10277000FFF755FF00210420FFF751FF0021032040
:10278000FFF74DFFF2490120FFF79CF9F1490220C4
:10279000FFF798F902210120FFF7FCF90221084612
:1027A000FFF7F8F9E9490320FFF739FF40F6AC518C
:1027B0000420FFF734FF00210320FFF730FF002142
:1027C0000420FFF77FF900210120FFF77BF90021AA
:1027D0000220FFF777F902210420FFF7DBF902213D
:1027E0000120FFF7D7F902210846FFF7D3F9DA48AD
:1027F0000068401CD8490860D7480068D749096874
:102800008842FFF41BAF10BD10B5044620780228A3
:1028100000D010BD00202070D1480078083816285C
:102820006FD2DFE800F00B0E1822282E313B454B0B
:1028300051545E686F7578828C9298A3FFF751FBB4
:10284000A4E0C7484068C7490860C54A5168907805
:10285000FFF738F99AE0C2484068C3490860C04AA7
:1028600051689078FFF72EF990E00120BF49087079
:10287000BF4908708AE00020BC490870BC49087054
:1028800084E0FFF7B7FB81E0B5484068B9490860CC
:10289000B34A51689078FFF715F977E0B04840687F
:1028A000B5490860AE4A51689078FFF70BF96DE0C2
:1028B0000120B2490870B249087067E00020AF49B2
:1028C0000870AF49087061E0FFF719FC5EE0A448AA
:1028D0004068AC490860A24A51689078FFF7F2F866
:1028E00054E09F484068A84908609D4A5168907824
:1028F000FFF7E8F84AE00120A4490870A4490870ED
:1029000044E042E00020A1490870A14908703DE080
:10291000FFF794FC3AE0924840689E490860904A6C
:1029200051689078FFF7CEF830E08D4840689A49BA
:1029300008608B4A51689078FFF7C4F826E00120C0
:10294000964908709649087020E000209349087065
:10295000934908701AE00020924908704870887006
:10296000C87008714871FFF7F2FD0FE000208D4933
:10297000087048708870C87008714871764908609E
:10298000774840687549086000E000BF00BF00BF9D
:102990003FE710B500240CF04AFC044604F00404A0
:1029A0000CB9012010BD0020FCE738B504460D46E7
:1029B000E0786B4908702079487060798870A17957
:1029C0006748C171E1798171217A4171607A644906
:1029D0000871281F205C74490870E07848706048CE
:1029E00040684860A07A0006E17A00EB0140217B54
:1029F00000EB0120617B08446B498860A07B0006E6
:102A0000E17B00EB0140217C00EB0120617C08446C
:102A10006549C860A07C0006E17C00EB0140217D97
:102A200000EB0120617D08445F490861A07D00063C
:102A3000E17D00EB0140217E00EB0120617E084436
:102A400059494861A07E08760846406900900846CA
:102A500042781023002155480078FFF7C1F838BDAF
:102A60000279534B1A7042795A708379504AD37164
:102A7000C3799371037A5371427A4D4B1A7170473F
:102A800002794C4B1A7042795A708379494AD37152
:102A9000C3799371037A5371427A464B1A71704726
:102AA000292819D2DFE800F0EE15191D2125292D5E
:102AB0003135393D4145494D8A8E92969A9EA2A65E
:102AC000AAAEB2B6BABEC2C6CACED2D6DADEE2E686
:102AD000EA00394AC2F8FC13D4E0374AC2F80014BD
:102AE000D0E0354AC2F80414CCE0334AC2F80814E6
:102AF000C8E0314AC2F80C14C4E02F4AC2F81014DE
:102B0000C0E02D4AC2F81414BCE02B4AC2F81814D5
:102B1000B8E0294AC2F81C14B4E0274AC2F82014CD
:102B2000B0E0254AC2F82414ACE0234AC2F82814C5
:102B3000A8E0214AC2F82C14A4E01F4AC2F83014BD
:102B4000A0E01D4AC2F834149CE0000010EB09001C
:102B5000285C030068B90100900000208C00002070
:102B6000480400205C000020600000207C00002061
:102B70007D00002064000020680000207E0000200E
:102B80007F0000206C0000207000002080000020EA
:102B900081000020740000207800002082000020C6
:102BA000830000204B000020AC0500204A000020DC
:102BB0005004002058040020FC050020FB4AC2F805
:102BC00038145FE0F94AC2F83C145BE0F74AC2F8F7
:102BD000401457E0F54AC2F8441453E0F34AC2F8EF
:102BE00048144FE0F14AC2F84C144BE0EF4AC2F8E7
:102BF000501447E0ED4AC2F8541443E0EB4AC2F8DF
:102C000058143FE0E94AC2F85C143BE0E74AC2F8D6
:102C1000601437E0E54AC2F8641433E0E34AC2F8CE
:102C200068142FE0E14AC2F86C142BE0DF4AC2F8C6
:102C3000701427E0DD4AC2F8741423E0DB4AC2F8BE
:102C400078141FE0D94AC2F87C141BE0D74AC2F8B6
:102C5000801417E0D54AC2F8841413E0D34AC2F8AE
:102C600088140FE0D14AC2F88C140BE0CF4AC2F8A6
:102C7000901407E0CD4AC2F8941403E0CB4AC2F89E
:102C8000981400BF00BF7047142857D2DFE800F047
:102C9000560A0E12161A1E22262A2E32363A3E42A4
:102CA000464A4E52C14AC2F8F01247E0BF4AC2F843
:102CB000F41243E0BD4AC2F8F8123FE0BB4AC2F842
:102CC000FC123BE0B94AC2F8001337E0B74AC2F839
:102CD000041333E0B54AC2F808132FE0B34AC2F830
:102CE0000C132BE0B14AC2F8101327E0AF4AC2F828
:102CF000141323E0AD4AC2F818131FE0AB4AC2F820
:102D00001C131BE0A94AC2F8201317E0A74AC2F817
:102D1000241313E0A54AC2F828130FE0A34AC2F80F
:102D20002C130BE0A14AC2F8301307E09F4AC2F807
:102D3000341303E09D4AC2F8381300BF00BF704748
:102D40000B282FD2DFE800F02E060A0E12161A1EEC
:102D500022262A00954AC2F8881323E0934AC2F833
:102D60008C131FE0914AC2F890131BE08F4AC2F8FF
:102D7000941317E08D4AC2F8981313E08B4AC2F8F7
:102D80009C130FE0894AC2F8A0130BE0874AC2F8EF
:102D9000A41307E0854AC2F8A81303E0834AC2F8E7
:102DA000AC1300BF00BF70471D2813D2DFE800F04E
:102DB0007F0F13171B1F23272B2F33373B3F43470F
:102DC0004B4F53575B5F63676B6F73777B00774A3B
:102DD000C2F830126BE0754AC2F8341267E0734AE9
:102DE000C2F8381263E0714AC2F83C125FE06F4AE1
:102DF000C2F840125BE06D4AC2F8441257E06B4AD9
:102E0000C2F8481253E0694AC2F84C124FE0674AD0
:102E1000C2F850124BE0654AC2F8541247E0634AC8
:102E2000C2F8581243E0614AC2F85C123FE05F4AC0
:102E3000C2F860123BE05D4AC2F8641237E05B4AB8
:102E4000C2F8681233E0594AC2F86C122FE0574AB0
:102E5000C2F870122BE0554AC2F8741227E0534AA8
:102E6000C2F8781223E0514AC2F87C121FE04F4AA0
:102E7000C2F880121BE04D4AC2F8841217E04B4A98
:102E8000C2F8881213E0494AC2F88C120FE0474A90
:102E9000C2F890120BE0454AC2F8941207E0434A88
:102EA000C2F8981203E0414AC2F89C1200BF00BF6A
:102EB000704738B504460D46292C21D2DFE804F0CE
:102EC0002015212D3945515D697A86929EAAB6C298
:102ED000CEF2FEEFEEEDECEBEAE9E8E7E6E5E4E35F
:102EE000E2E1E0DFDEDDDCDBDA00002000902F48ED
:102EF00011232A46D0F8FC132D480078FEF770FE07
:102F0000F0E100200090294811232A46D0F800144F
:102F100027480078FEF764FEE4E100200090234893
:102F200011232A46D0F8041421480078FEF758FEF1
:102F3000D8E1002000901D4811232A46D0F808143B
:102F40001B480078FEF74CFECCE1002000901748AB
:102F500011232A46D0F80C1415480078FEF740FEDD
:102F6000C0E100200090114811232A46D0F8101427
:102F70000F480078FEF734FEB4E1002000900B48C3
:102F800011232A46D0F8141409480078FEF728FEC9
:102F9000A8E100200090054811232A46D0F8181413
:102FA00003480078FEF71CFE9CE10000FC050020B1
:102FB0004A00002000200090F84811232A46D0F84B
:102FC0001C14F7480078FEF70BFE8BE10020009000
:102FD000F24811232A46D0F82014F1480078FEF771
:102FE000FFFD7FE100200090EC4811232A46D0F835
:102FF0002414EB480078FEF7F3FD73E10020009005
:10300000E64811232A46D0F82814E5480078FEF750
:10301000E7FD67E100200090E04811232A46D0F840
:103020002C14DF480078FEF7DBFD5BE10020009008
:10303000DA4811232A46D0F83014D9480078FEF730
:10304000CFFD4FE100200090D44811232A46D0F84C
:103050003414D3480078FEF7C3FD43E1002000900C
:10306000CE4811232A46D0F83814CD480078FEF710
:10307000B7FD37E12AE11DE110E103E1F6E0E9E007
:10308000DCE0CFE0C2E0B5E0A8E09BE08EE081E0CC
:1030900074E067E05AE04DE040E033E026E019E0FC
:1030A0000CE0FFE700200090BC4811232A46D0F82E
:1030B0003C14BB480078FEF793FD13E1002000901C
:1030C000B64811232A46D0F84014B5480078FEF7D8
:1030D00087FD07E100200090B04811232A46D0F870
:1030E0004414AF480078FEF77BFDFBE00020009021
:1030F000AA4811232A46D0F84814A9480078FEF7B8
:103100006FFDEFE000200090A44811232A46D0F87C
:103110004C14A3480078FEF763FDE3E00020009024
:103120009E4811232A46D0F850149D480078FEF797
:1031300057FDD7E000200090984811232A46D0F888
:10314000541497480078FEF74BFDCBE00020009028
:10315000924811232A46D0F8581491480078FEF777
:103160003FFDBFE0002000908C4811232A46D0F894
:103170005C148B480078FEF733FDB3E0002000902C
:10318000864811232A46D0F8601485480078FEF757
:1031900027FDA7E000200090804811232A46D0F8A0
:1031A00064147F480078FEF71BFD9BE00020009030
:1031B0007A4811232A46D0F8681479480078FEF737
:1031C0000FFD8FE000200090744811232A46D0F8AC
:1031D0006C1473480078FEF703FD83E00020009034
:1031E0006E4811232A46D0F870146D480078FEF717
:1031F000F7FC77E000200090684811232A46D0F8B9
:10320000741467480078FEF7EBFC6BE00020009038
:10321000624811232A46D0F8781461480078FEF7F6
:10322000DFFC5FE0002000905C4811232A46D0F8C4
:103230007C145B480078FEF7D3FC53E0002000903C
:10324000564811232A46D0F8801455480078FEF7D6
:10325000C7FC47E000200090504811232A46D0F8D0
:1032600084144F480078FEF7BBFC3BE00020009040
:103270004A4811232A46D0F8881449480078FEF7B6
:10328000AFFC2FE000200090444811232A46D0F8DC
:103290008C1443480078FEF7A3FC23E00020009044
:1032A0003E4811232A46D0F890143D480078FEF796
:1032B00097FC17E000200090384811232A46D0F8E8
:1032C000941437480078FEF78BFC0BE00020009048
:1032D000324811232A46D0F8981431480078FEF776
:1032E0007FFC00BF00BF38BD38B504460D46142C26
:1032F00016D2DFE804F0F30A16222E3A4657636F1F
:103300007B87939FABB7C3CFDBE7002000902348B8
:1033100011232A46D0F8F01221480078FEF760FC0D
:10332000DCE0002000901D4811232A46D0F8F4125A
:103330001B480078FEF754FCD0E0002000901748AE
:1033400011232A46D0F8F81215480078FEF748FCF9
:10335000C4E000200090114811232A46D0F8FC1246
:103360000F480078FEF73CFCB8E0002000900B48C6
:1033700011232A46D0F8001309480078FEF730FCE4
:10338000ACE000200090054811232A46D0F8041331
:1033900003480078FEF724FCA0E00000FC050020B4
:1033A0004A00002000200090F94811232A46D0F856
:1033B0000813F8480078FEF713FC8FE00020009017
:1033C000F34811232A46D0F80C13F2480078FEF790
:1033D00007FC83E000200090ED4811232A46D0F836
:1033E0001013EC480078FEF7FBFB77E0002000901C
:1033F000E74811232A46D0F81413E6480078FEF770
:10340000EFFB6BE000200090E14811232A46D0F842
:103410001813E0480078FEF7E3FB5FE0002000901F
:10342000DB4811232A46D0F81C13DA480078FEF74F
:10343000D7FB53E000200090D54811232A46D0F84E
:103440002013D4480078FEF7CBFB47E00020009023
:10345000CF4811232A46D0F82413CE480078FEF72F
:10346000BFFB3BE000200090C94811232A46D0F85A
:103470002813C8480078FEF7B3FB2FE00020009027
:10348000C34811232A46D0F82C13C2480078FEF70F
:10349000A7FB23E000200090BD4811232A46D0F866
:1034A0003013BC480078FEF79BFB17E0002000902B
:1034B000B74811232A46D0F83413B6480078FEF7EF
:1034C0008FFB0BE000200090B14811232A46D0F872
:1034D0003813B0480078FEF783FB00BF00BF38BD4B
:1034E00038B504460D461D2C1BD2DFE804F01A0F38
:1034F0001B27333F4B57636F7B87939FABB7C3CF7C
:10350000DBF1FDEEEDECEBEAE9E8E70000200090EE
:103510009F4811232A46D0F830129E480078FEF7C3
:103520005FFB51E100200090994811232A46D0F812
:10353000341298480078FEF753FB45E100200090D4
:10354000934811232A46D0F8381292480078FEF7A3
:1035500047FB39E1002000908D4811232A46D0F81E
:103560003C128C480078FEF73BFB2DE100200090D8
:10357000874811232A46D0F8401286480078FEF783
:103580002FFB21E100200090814811232A46D0F82A
:10359000441280480078FEF723FB15E100200090DC
:1035A0007B4811232A46D0F848127A480078FEF763
:1035B00017FB09E100200090754811232A46D0F836
:1035C0004C1274480078FEF70BFBFDE000200090E1
:1035D0006F4811232A46D0F850126E480078FEF743
:1035E000FFFAF1E000200090694811232A46D0F844
:1035F000541268480078FEF7F3FAE5E000200090E6
:10360000634811232A46D0F8581262480078FEF722
:10361000E7FAD9E0002000905D4811232A46D0F84F
:103620005C125C480078FEF7DBFACDE000200090E9
:10363000574811232A46D0F8601256480078FEF702
:10364000CFFAC1E000200090514811232A46D0F85B
:10365000641250480078FEF7C3FAB5E000200090ED
:103660004B4811232A46D0F868124A480078FEF7E2
:10367000B7FAA9E000200090454811232A46D0F867
:103680006C1244480078FEF7ABFA9DE000200090F1
:103690003F4811232A46D0F870123E480078FEF7C2
:1036A0009FFA91E000200090394811232A46D0F873
:1036B000741238480078FEF793FA85E078E06BE002
:1036C0005AE04DE040E033E026E019E00CE0FFE78F
:1036D000002000902E4811232A46D0F878122D4859
:1036E0000078FEF77DFA6FE0002000902848112353
:1036F0002A46D0F87C1227480078FEF771FA63E07A
:1037000000200090224811232A46D0F88012214838
:103710000078FEF765FA57E0002000901C4811235E
:103720002A46D0F884121B480078FEF759FA4BE07D
:1037300000200090164811232A46D0F88812154818
:103740000078FEF74DFA3FE000200090104811236A
:103750002A46D0F88C120F480078FEF741FA33E081
:10376000002000900A4811232A46D0F890120948F8
:103770000078FEF735FA27E0002000900448112376
:103780002A46D0F8941203480078FEF729FA1BE085
:10379000FC0500204A00002000200090F948112379
:1037A0002A46D0F89812F8480078FEF719FA0BE08C
:1037B00000200090F34811232A46D0F89C12F248CA
:1037C0000078FEF70DFA00BF00BF38BD38B50446DB
:1037D0000D460B2C7FD2DFE804F07E06121E2A363F
:1037E000424E5A66720000200090E64811232A4695
:1037F000D0F88813E4480078FEF7F2F96BE0002077
:103800000090E04811232A46D0F88C13DE48007857
:10381000FEF7E6F95FE000200090DA4811232A461F
:10382000D0F89013D8480078FEF7DAF953E000207A
:103830000090D44811232A46D0F89413D248007837
:10384000FEF7CEF947E000200090CE4811232A462B
:10385000D0F89813CC480078FEF7C2F93BE000207E
:103860000090C84811232A46D0F89C13C648007817
:10387000FEF7B6F92FE000200090C24811232A4637
:10388000D0F8A013C0480078FEF7AAF923E0002082
:103890000090BC4811232A46D0F8A413BA480078F7
:1038A000FEF79EF917E000200090B64811232A4643
:1038B000D0F8A813B4480078FEF792F90BE0002086
:1038C0000090B04811232A46D0F8AC13AE480078D7
:1038D000FEF786F900BF00BF38BD03B581B09DF883
:1038E0000400202806D030281CD0402812D05028B0
:1038F00020D107E09DF805000299FFF7D1F8FDF708
:10390000A3F917E09DF805000299FFF74DFAFDF7BE
:103910009BF90FE09DF805000299FFF7B5F9FDF757
:1039200093F907E09DF805000299FFF709FAFDF702
:103930008BF900BF00BF9DF8040020280BD09DF834
:103940000400502807D09DF80400402803D09DF8BB
:103950000400302809D1002000909DF80420112394
:10396000894800780299FEF73BF99DF80400212868
:1039700006D0312819D0412810D051281CD106E09A
:103980009DF804109DF80500FFF793FA14E09DF8E8
:1039900004109DF80500FFF7A3FD0DE09DF804104D
:1039A0009DF80500FFF7A0FC06E09DF804109DF8C7
:1039B0000500FFF70BFF00BF00BF0EBD10B50446AA
:1039C000002020707148007820281BD06F480078B4
:1039D000502817D06D480078402813D06B480078E5
:1039E00030280FD06948007821280BD0674800782C
:1039F000512807D065480078412803D063480078F3
:103A0000312804D1614803C8FFF767FF06E05F482B
:103A100003C8FDF7EDFE60690EF0F5FB10BD10B5B3
:103A20005B484079012820D1002059494871652020
:103A30005849087005204870012088700020C8701F
:103A400055480068000E087153480068000C487122
:103A500051480088000A88714F480078C8710020DA
:103A6000087208220C200AF09EFE10BDF8B504462C
:103A7000002605200EF084FF05200CF080FB054693
:103A800000204649487101210520FEF7C5F90520AF
:103A9000FDF72DFF01210520FDF77DFF05200CF02E
:103AA0006EFB0546ADB13E490520FEF70BF803213C
:103AB0000520FEF76FF805465DB91223012239494A
:103AC000314800940078FEF78BF8012030494871A6
:103AD000F8BD4DF2B7110520FDF7E6FF02210520E4
:103AE000FEF758F8054665B9122301222D49891EB3
:103AF000254800940078FEF773F8012024494871A6
:103B0000E6E70520FEF758F900210520FDF743FF01
:103B10003220FDF738F805200EF07BFE06461948E6
:103B2000D0F8A4130520FDF7CDFF03210520FEF7F3
:103B300031F805465DB9122301221A491248009452
:103B40000078FEF74DF8012011494871C0E7642064
:103B5000FDF719F80520FEF72FF980223521052001
:103B60000BF040FD1123012200210748009400784A
:103B7000FEF736F83220FDF706F8FDF755F800BFDE
:103B8000A6E70000FC0500204A00002048040020B1
:103B900052000020040B0020940000204B00002065
:103BA00028D7FFFF1300050038B5044602200EF0A9
:103BB000E7FE0020F94988700220FDF798FE0121F8
:103BC0000220FDF728FF02200CF0D0FA0546B5B11F
:103BD00042F6D8010220FDF775FF03210220FDF710
:103BE000D9FF05465DB912230222ED49ED48009444
:103BF0000078FDF7F5FF0120EB49487138BDEB492E
:103C00000220FDF743FF01210220FDF7C3FF054617
:103C100065B912230222E249891EE2480094007825
:103C2000FDF7DEFF0120E0498870E7E70220FEF79C
:103C3000C3F800210220FDF7EEFE8022352102208C
:103C40000BF0D0FC112302220021D648009400780A
:103C5000FDF7C6FF3220FCF796FF00BFCEE738B570
:103C6000044603200EF08CFE0020CC49C8700021D1
:103C70000320FEF7E9F80320FDF739FE01210320B8
:103C8000FDF7C9FE03200CF071FA0546B5B142F606
:103C9000D8010320FDF716FF03210846FDF77AFF40
:103CA00005465DB912230322C149BE48009400783D
:103CB000FDF796FF0120BC49487138BDBD4903207E
:103CC000FDF7E4FE01210320FDF764FF054665B919
:103CD00012230322B649891EB24800940078FDF7EA
:103CE0007FFF0120B049C870E7E703200CF04BF9D3
:103CF0000320FEF761F800210320FDF78CFE8022EF
:103D0000352103200BF06EFC112303220021A5486E
:103D100000940078FDF764FF3220FCF734FF00BF09
:103D2000CBE738B5044604200EF02AFE00209B495C
:103D300008710420FDF7DBFD01210420FDF76BFE77
:103D400004200CF013FA0546B5B142F6D801042060
:103D5000FDF7B8FE03210420FDF71CFF05465DB901
:103D60001223042294498F4800940078FDF738FF0D
:103D700001208D49487138BD4FF4FA70FCF77CFE84
:103D80004DF2B7110420FDF781FE01210420FDF75B
:103D900001FF054665B9122304228749891E81481F
:103DA00000940078FDF71CFF01207F490871E2E7CD
:103DB00004200CF0E8F80420FDF7FEFF00210420A9
:103DC000FDF729FE8022352104200BF00BFC322068
:103DD000FCF7D9FE112304220021724800940078D8
:103DE000FDF7FEFE00206D49087100BFC3E738B53E
:103DF000044600200EF0C4FD002068490870002130
:103E00000846FEF721F80020FDF771FD0121002092
:103E1000FDF724FE00200CF0A9F90546B5B14FF4DA
:103E200048410020FDF74EFE03210020FDF7B2FEC1
:103E300005465DB91223052213215A4800940078E3
:103E4000FDF7CEFE01205849087038BD4DF2B7117C
:103E50000020FDF71BFE01210020FDF79BFE05461B
:103E600075B91223052211214E4800940078FDF700
:103E7000B7FE01204C49087100200CF084F8E4E7FB
:103E800000200CF080F80020FDF796FF0021084686
:103E9000FDF7E4FD8022352100200BF0A3FB32204A
:103EA000FCF771FE1123052200213E4800940078A2
:103EB000FDF796FE00203949087000BFC5E7F8B548
:103EC00004460027002606200EF05AFD0020334944
:103ED00088710620FDF70BFD012625E00121062053
:103EE000FDF799FD06200CF041F9054605B91EE0E5
:103EF00000210620FDF78FFDADB130490620FDF70A
:103F0000EFFD03210620FDF745FE05465DB91223AE
:103F10000A222B49234800940078FDF761FE012016
:103F200021498871F8BD761CB6F57A7FD6DB00BFD3
:103F300045F254610620FDF7A9FD01210620FDF799
:103F400029FE054665B912230A221D49891E154816
:103F500000940078FDF744FE012013498871E1E7E1
:103F60000620FDF729FF00210620FDF754FD154925
:103F70000620FDF7B5FD03210620FDF70BFE0546E3
:103F80005DB912230A220E49064800940078FDF715
:103F900027FE012004498871C4E715E04B0000208A
:103FA000130002004A00002052000020A71B03005B
:103FB000130003002631080013000400D7F6FFFFAA
:103FC000130006004FE3FFFF0620FDF7F5FE00217A
:103FD0000620FDF720FD1420FCF7D5FD11230A2251
:103FE0000021F84800940078FDF7FAFD0020F6491A
:103FF000887100BF96E738B5044601200EF0C0FC7A
:104000000120FDF7D9FE0020EF4948700120FDF79F
:104010006EFC4FF448410120FDF754FD03210120BF
:10402000FDF7B8FD05465DB912230822E749E548CA
:1040300000940078FDF7D4FD0120E549487038BDB3
:10404000112308220021DF4800940078FDF7C8FD05
:1040500000BFF4E770B504460020DB49487000213A
:104060000120FDF7F1FE21460120FDF72BFD032184
:104070000120FDF78FFD05461DB90120D4490871C7
:1040800070BD01200BF07FFF0120FDF795FE80221F
:10409000352101200BF0A6FA4FF4FA70FCF773FDFE
:1040A00000BFEDE770B504460D46002629462046C0
:1040B000FDF708FD03212046FDF76CFD064626B9F5
:1040C0000120C3494871002070BD0120FCE710B5F4
:1040D0002DED028B9FEDBF0AB0EE408A0024012433
:1040E00005E0002120460AF015FF601CC4B2062C32
:1040F000F7DB0020BDEC028B10BD10B52DED028B5F
:104100009FEDB40AB0EE408A0024012405E00121AD
:1041100020460AF0FFFE601CC4B2062CF7DB00202C
:10412000BDEC028B10BD70B5002400250026FFF702
:10413000CEFFA9490020FFF7B5FF044604B970BDC2
:10414000FFF7DBFF00210846FFF7ACFF044604B988
:10415000F5E700BFF3E770B50024002500269F486F
:10416000D0F8885329460220FFF79CFF044604B983
:1041700070BD4DF2B7110120FDF788FC002610E05C
:1041800041F2883005449548D0F88C03A84200D20B
:1041900009E029460220FFF785FF044604B902E042
:1041A000761C642EECD300BF01200BF0ECFE002146
:1041B0000220FFF777FF04461CB901200BF0E3FE55
:1041C000D6E700BFD4E72DE9F041064600270025D9
:1041D0000024374600BF4BE042F25D4005FB00F192
:1041E0000520FFF75FFF04460CB9BDE8F081FFF73B
:1041F0006EFF79490020FDF765FCFFF7ACFF7849B9
:104200000320FFF74FFF044604B9EEE70321002027
:10421000FDF7C0FC04461CB901206D490870E4E7B5
:10422000FFF76BFF00210846FFF73CFF044604B987
:10423000DBE742F210710020FFF734FF044604B9B7
:10424000D3E74FF4FA210420FFF72CFF044604B90A
:10425000CBE700210420FFF725FF044604B9C4E79B
:1042600000210320FFF71EFF044604B9BDE76D1CC3
:10427000DC2DB1D300BFB8E701205A490870704760
:1042800010B5012405E0012120460AF043FE601C20
:10429000C4B2042CF7DD10BD10B5012405E00021E7
:1042A00020460AF037FE601CC4B2042CF7DD10BDB6
:1042B00070B504460025607A012804D10121084622
:1042C0000AF028FE0125607C012804D1012102208A
:1042D0000AF020FE0125607E012804D1012103207F
:1042E0000AF018FE01252120005D012804D10121DA
:1042F00004200AF00FFE0125284670BD2DE9F84381
:104300004FF00008C14600250026002401270020A8
:1043100011230622014600902A480078FDF760FC30
:10432000A8E00020304948700AF081FF044614B923
:1043300001202D494870002000902B4840782A4ADF
:10434000127800EB0241142301221E480078FDF789
:1043500047FCFFF700FF22490320FFF7A3FE0446B6
:104360000CB9BDE8F88337B11B490020FFF79AFE6E
:10437000044604B9F5E700271B48FFF799FF0646F6
:104380003EB100210846FFF78DFE044604B9E8E778
:104390000127FFF781FF4FF4FA210420FFF782FE87
:1043A000044604B9DDE700210420FFF77BFE044644
:1043B00004B9D6E700210320FFF774FE0446ACB928
:1043C000CFE700004A0000204B000020130001004E
:1043D00052000020000000002C760100FC050020A7
:1043E000E022020098000020D005002042F25D414A
:1043F0000520FDF775FB03210520FDF7CBFB0446E7
:104400001CB90120FA494871ABE7FA4890F82B0033
:10441000F9494870F74890F82A000870142510E010
:10442000F44800EB45004178F24A681C02EB40007A
:104430004170104610F81510681C02F81010681E24
:1044400045B2002DECDAEC484078EA494870EA4879
:1044500000780870E948007860B1002011230B2231
:1044600001460090E6480078FDF7BAFB0020E349DA
:10447000087000E055E700BF00BF72E738B50024C0
:10448000E0480068A0B1E04840780C2810D1DE4830
:104490004078DE4908700020DB49487008464069D2
:1044A000DB4908600020D74908600120D94908602D
:1044B000D8480068012802D002282CD108E042F236
:1044C0005D410520FDF70CFB0220D249086023E086
:1044D000CE48027803210520FDF7D8FBD0B10A2091
:1044E000FCF7CAFA0AF0A3FE04460CB9012000E06A
:1044F000002004460120C34908600020C549086027
:10450000C348006811230C2221460090BC48007863
:10451000FDF766FB00E000BF00BF38BDF8B5002620
:10452000002500240027BC48006818B3B64840782E
:1045300006281FD1B4484078B84908700020B24915
:10454000487008464069B64908600020B2490860D2
:104550000120B4490860B448D0F88803B349086022
:10456000AF4800681123062200210090A44800787B
:10457000FDF736FBAB48006812286ED2DFE800F08A
:104580006D09293242626E798AA4D1FDFCFBFAF9E9
:10459000F8F70020974948700AF05AFE054615B909
:1045A0000120944948709E480068009091484078E6
:1045B000904A127800EB02411423012290480078BF
:1045C000FDF70EFB00208B494870022095490860DA
:1045D000A8E1964801680220FDF774FA032091498A
:1045E00008609FE18D48027803210220FDF74EFB11
:1045F00038B14DF2B7110120FDF748FA042089497E
:1046000008608FE18848D0F8A00388490968084409
:10461000864908608448D0F88C030968884208D22B
:104620008148D0F888038149086006207D490860E8
:1046300078E17E4801680220FDF744FA05207949B7
:1046400008606FE17548027803210220FDF71EFB28
:1046500010B104207349086064E162E101200BF0AD
:1046600092FC00210220FDF72DFA07206D49086019
:1046700058E16A48027803210220FDF707FB40B1A8
:104680006948D0F8AC130320FDF71CFA08206549EF
:10469000086047E16148027803210846FDF7F6FA11
:1046A00088B16348007858B15F48D0F8981300206B
:1046B000FDF708FA00205E49087001205D49087086
:1046C0000920584908602DE15A48007850B15348F4
:1046D000027803210020FDF7D9FA00B922E1002079
:1046E000544908704348FFF7E3FD064646B10021F0
:1046F0000846FDF7E7F901204D4908704E4908705A
:104700003C4890F8290040B101204C4908704648C7
:10471000D0F89C130620FDF7E3F90A204149086010
:1047200000E14548007848B13C4802780321002068
:10473000FDF7ACFA10B100203F4908703F480078FF
:1047400048B13648027803210620FDF79FFA10B1E0
:1047500000203A49087038480078C8B937480078CE
:10476000B0B9FFF799FD3048D0F8A80306E0BEE0E5
:104770008DE074E064E02CE01AE00AE04FF4484277
:1047800000FB02F10420FDF79DF90B20254908608C
:10479000C8E02248027803210420FDF777FA30B1FF
:1047A00000210420FDF78EF90C201E490860B9E0B5
:1047B0001A48027803210420FDF768FA40B11A482C
:1047C000D0F894130420FDF77DF90D2015490860F9
:1047D000A8E01248027803210420FDF757FA30B10F
:1047E00000210320FDF76EF90E200E49086099E0C4
:1047F00052000020D0050020480000209800002032
:104800004A0000209C000020AC050020A4000020ED
:10481000A8000020A0000020AC000020BE00002066
:10482000C0000020B0000020FC050020B8000020DF
:10483000B4000020BF000020BC000020BD0000200C
:10484000F648027803210846FDF720FA30B100212E
:104850000420FDF737F90F20F149086062E0EF48C6
:10486000027803210420FDF711FA78B10AF0F0FC78
:10487000054615B90120EB494870EB48D0F8901374
:104880000520FDF72DF91020E54908604AE0E348CE
:10489000027803210520FDF7F9F938B3E14890F8D3
:1048A0002B00E2494870DF4890F82A000870142471
:1048B00010E0DC4800EB44004178DA4A601C02EB6F
:1048C00040004170104610F81410601C02F81010DF
:1048D000601E44B2002CECDAD4484078D1494870CC
:1048E000D248007808701120CD4908601AE00120F4
:1048F000CB490860CE48007890B10020CC490870C0
:104900000120CC4908600020C5490860CA480068F9
:1049100011230B2200210090C8480078FDF760F9B0
:1049200000E000BF00BFF8BDF8B500240027002557
:104930000026C34840780D2817D1C148447800208C
:10494000BF494870084647694068C0F307450846B4
:104950000679314628460AF0DDFA11232246002165
:10496000B64800970078FDF73BF9F8BD10B5B4489C
:104970000078032815D1B24840780B2809D10020CF
:10498000AF49487008464069AB490860FFF774FCBE
:1049900000E000BF00BFFFF7C1FDFFF76FFDFFF7AD
:1049A000C3FF10BD2DE9F84F4FF000090026002588
:1049B00000270024A2464FF0010800201123062200
:1049C000014600909D480078FDF70AF955E0761CF5
:1049D000FFF7C1FB9B490320FFF764FB04460CB9BA
:1049E000BDE8F88FB8F1000F06D097490020FFF717
:1049F00059FB044604B9F3E74FF0000847B1002122
:104A00000846FFF74FFB044604B9E9E74FF00108F9
:104A1000FFF742FC4FF4FA210420FFF743FB044662
:104A200004B9DDE700210420FFF73CFB044604B98C
:104A3000D6E700210320FFF735FB044604B9CFE792
:104A40000AF0F5FB42F25D4006FB00F10520FFF79E
:104A500029FB044604B9C3E7152505E0152D00D14F
:104A600000E000BF681E45B2002DF7DA70480078FC
:104A700018B100206E49087000E0A8E700BF00BF31
:104A8000AEE770B500260025002400BF27E042F203
:104A90005D4005FB00F10520FFF704FB044604B967
:104AA00070BD68490320FFF7FDFA044604B9F7E733
:104AB0004FF4FA210420FFF7F5FA044604B9EFE7B2
:104AC00000210420FFF7EEFA044604B9E8E70021CC
:104AD0000320FFF7E7FA044604B9E1E76D1CDC2D7B
:104AE000D5D300BFDCE7704738B5044600202070FE
:104AF0006078422870D037DC22286ED019DC082874
:104B00006CD007DC08286AD2DFE800F0696A6E72B0
:104B10007A7E69A80E286FD006DC09286DD00A2895
:104B200076D00B285BD196E0202868D02128F9D1D7
:104B3000CEE0292870D008DCA0F123000628E2D2BC
:104B4000DFE800F0CEF4D2E2F3F22D2865D006DCE7
:104B50002A287BD02B287AD02C28E3D1E7E04028E4
:104B600076D04128DED109E1612872D01BDC4A28C9
:104B700070D009DCA0F143000728C4D2DFE800F0C0
:104B8000F2F1F0EF2FEEED004E2877D006DC4B2847
:104B900075D04C2874D04D28C4D1FDE04F2870D07A
:104BA0006028BFD123E168286CD008DCA0F1620046
:104BB0000628A8D2DFE800F0EFEEEDECEBEA912852
:104BC00068D004DC6D286ED09028ABD15FE09228CD
:104BD0006AD09328A6D136E1EAE07DE053E043E1D4
:104BE0006069FEF743FF40E16069FEF7DDFF3CE1ED
:104BF0006069FFF734F838E128E14EE008E063E04F
:104C00006069FFF78EF830E16069FFF7F0F82CE19A
:104C10006069FFF754F928E16EE090E0BE000020E3
:104C2000B0000020D0050020FC0500204800002036
:104C300098000020AC000020C40000204A000020A2
:104C4000AC050020E02202002C7601007DE063E04C
:104C500090E0D0E0C2E0FFF70FFB06E12179626847
:104C6000C2F307400AF056F900201123072201463B
:104C70000090AF480078FCF7B3FFF6E090E0B2E0B8
:104C800080E091E0C3E06069FFF7B5F9EDE0FFF780
:104C90004AFAEAE0FFF7F5FEE7E0FFF724FF00201D
:104CA000A44908600BE0C8E0CAE00020A249A14A7C
:104CB000126888549F480068401C9E4908609D48BF
:104CC00000680628F1DBD0E0606900F027FACCE04C
:104CD000606900F087FAC8E0606900F0E3FAC4E0B8
:104CE000606900F0DCFBC0E0A28891B26268100C41
:104CF000002200F06EFCB8E0A28891B26268100C4D
:104D0000002200F0C4FCB0E0A28891B26268100CEE
:104D1000002200F0A9FDA8E0A28891B26268100C00
:104D2000002200F0E6FEA0E020E01CE00AE0A288FD
:104D300091B26268100C002200F04CFF95E000F088
:104D4000CEFF92E000F043FC8FE0A28891B262684F
:104D5000100C002200F05DFE87E02DE03BE037E024
:104D600033E02FE02BE001F024F87EE0606801F0F2
:104D700019F87AE0606902F0B4FB76E0606902F04D
:104D80002EFC72E0606902F08DFC6EE042E045E0CE
:104D900049E04EE037E032E0606902F00BFD64E08C
:104DA000606902F031FE60E0606902F07EFD5CE067
:104DB000606902F0F1FE58E002F067FF55E002F092
:104DC000A4FF52E003F088F84FE003F01EF94CE036
:104DD00003F0ECF849E002F06BFF46E0A18888B2EE
:104DE00002F099FF41E0207902F0BCFF3DE06069EC
:104DF00003F0F0FF39E0606904F088F835E060699D
:104E000004F0EAF831E0606904F048F92DE004F0BC
:104E10004EFB2AE0606804F043FB26E0217A20790B
:104E200004F0FEFB21E0227B217A207904F031FCA2
:104E30001BE0606904F02CFA17E004F00AFD14E0AE
:104E4000FBF710FF11E002F044FB0EE0217A20791D
:104E50000DF074FE002011230E220146009034480C
:104E60000078FCF7BDFE00E000BF00BF38BD10B504
:104E700004462078012802D0022808D103E0204609
:104E8000FEF79CFD04E02046FFF72EFE00E000BF89
:104E900000BF10BD704738B5044600200090274879
:104EA00042781123214622480078FCF799FE38BD4C
:104EB00010B504462078012803D16068FFF7EBFFA6
:104EC00000E000BF00BF10BD10B5044660780228A6
:104ED00003D12046FFF7ECFF00BF00BF0020607049
:104EE00010BD38B5044600200090144842781123C4
:104EF00021460F480078FCF773FE38BD10B5044614
:104F00002078012803D16068FFF7EBFF00E000BFC5
:104F100000BF10BD10B504466078022803D12046BA
:104F2000FFF7ECFF00BF00BF0020607010BD000065
:104F30004A000020C80000204B000020AC050020E3
:104F40002DE9F0412DED028B9FEDFE0A10EE104A87
:104F500000260027352102200AF05AFB064606F4F7
:104F6000806000284BD1212102200AF051FB00EE85
:104F7000100AB8EEC00A10EE104A20460EF054FF98
:104F800041EC180B53EC182BEFA1F3480FF01EF96E
:104F9000002504E0F049485D08F07FFF6D1CEE48F5
:104FA0000EF050FDA842F5D82021EB480EF02DFD63
:104FB00002200DF02EFC00EE100AB8EEC00A10EE32
:104FC000104A20460EF030FF41EC180B53EC182B22
:104FD000E2A1E1480FF0FAF8002504E0DE49485D5F
:104FE00008F05BFF6D1CDC480EF02CFDA842F5D8E4
:104FF0002021D9480EF009FD3220DC49087006F462
:105000008060002858D0D94890F90000002853DD6E
:105010000020D649087000274CE002200DF0F9FB73
:1050200000EE100AB8EEC00A10EE104A20460EF04C
:10503000FBFE41EC180B53EC182BC8A1C6480FF02F
:10504000C5F8002504E0C449485D08F026FF6D1C42
:10505000C1480EF0F7FCA842F5D82021BE480EF05A
:10506000D4FC212102200AF0D3FA00EE100AB8EE97
:10507000C00A10EE104A20460EF0D6FE41EC180B86
:1050800053EC182BB0A1B4480FF0A0F8002504E0B1
:10509000B149485D08F001FF6D1CAF480EF0D2FC2D
:1050A000A842F5D82021AC480EF0AFFC0A20FBF74F
:1050B0006AFD7F1C642FB0DBBDEC028BBDE8F08184
:1050C00010B504460020AA49C870224627210320B3
:1050D0000AF088FA10BD10B50120A549C870A5488E
:1050E0002721D0F8842003200AF07CFA10BD10B5E7
:1050F000044600209E4908712246272104200AF018
:1051000071FA10BD10B501209949087199482721FD
:10511000D0F8AC2004200AF065FA10BDF8B50446BA
:105120000026002701200DF02BFC0020924948703A
:1051300001200BF01BF805460120FCF7D8FB0121EC
:105140000846FCF768FC00210120FCF77DFE0120E9
:105150000BF00CF80546B5B145F254610120FCF79F
:10516000B1FC03210120FCF715FD05465DB91223B2
:1051700020228249824800940078FCF731FD01200A
:1051800080494870F8BD4AF274410120FCF77EFC6A
:1051900001210846FCF7FEFC054665B912232022D2
:1051A0007649891E764800940078FCF719FD0120A5
:1051B00074494870E6E70120FCF7FEFD002101205C
:1051C000FCF729FC1420FBF7DEFC00206A4948703C
:1051D0001123202200216A4800940078FCF700FD8A
:1051E00000BFCFE7F8B504460026002702200DF0E7
:1051F000C7FB00206049887002200AF0B7FF05460F
:105200000220FCF774FB01210220FCF704FC0220C1
:105210000AF0ACFF0546B5B142F210710220FCF76E
:1052200051FC03210220FCF7B5FC05465DB91223B1
:1052300021225549524800940078FCF7D1FC012006
:1052400050498870F8BD4CF250310220FCF71EFC2A
:1052500001210220FCF79EFC054665B9122321229C
:105260004949891E464800940078FCF7B9FC0120A2
:1052700044498870E6E70220FCF79EFD00210220E9
:10528000FCF7ECFB1420FBF77EFC00203A49887009
:105290001123212200213A4800940078FCF7A0FC59
:1052A00000BFCFE7F8B504460026002703200DF025
:1052B00067FB00203049C87003200AF057FF0546FD
:1052C0000320FCF714FB00210320FCF7BDFD0021A7
:1052D0000320FCF783FB01210320FCF79CFB032048
:1052E0000AF044FF0546B5B145F254610320FCF7CE
:1052F000E9FB03210846FCF74DFC05465DB9122386
:10530000222222491E4800940078FCF769FC012003
:105310001C49C870F8BD4AF274410320FCF7B6FB83
:1053200001210320FCF736FC05468DBB1223222207
:105330001649891E124800940078FCF751FC0120A0
:10534000104926E0000000004C50323A25302E3142
:10535000663A0D0A00000000140B00204C50313A50
:1053600025302E31663A0D0A00000000CC000020E6
:105370002B040020FC0500204B000020130001003E
:105380004A00002052000020130002001300030016
:1053900001E0C870BEE70320FCF70EFD00210320EA
:1053A000FCF75CFB1420FBF7EEFB0020F949C8700A
:1053B000112322220021F84800940078FCF710FC09
:1053C00000BFA7E7F8B504460025002600272121E5
:1053D00001200AF01DF90646F048D0F83874BE42A4
:1053E00017D0D0F838140120FCF76CFB0321012002
:1053F000FCF7D0FB054665B912232322E849E648AD
:1054000000940078FCF7ECFB0120E649487000208E
:10541000F8BD212102200AF0FBF80646DF48D0F84B
:105420003C74BE4217D0D0F83C140220FCF74AFB73
:1054300003210220FCF7AEFB054665B912232322A7
:10544000D949D54800940078FCF7CAFB0120D5491A
:1054500088700020DCE7212103200AF0D9F80646F5
:10546000CE48D0F84074BE4217D0D0F84014032084
:10547000FCF728FB03210846FCF78CFB054665B9C1
:1054800012232322C949C44800940078FCF7A8FBE2
:105490000120C449C8700020BAE70120B8E7F8B578
:1054A0000446002600272046FFF78CFF054605B975
:1054B000F8BD04200DF064FA0020B64908710420FC
:1054C0000AF054FE05460420FCF711FA01210420DD
:1054D000FCF7BAFC04200AF049FE0546B5B145F2D6
:1054E00054610420FCF7EEFA03210420FCF752FB80
:1054F00005465DB912232322AD49A74800940078E0
:10550000FCF76EFB0120A7490871D1E701210420B7
:10551000FCF7A4FAA7490420FCF7B8FA01210420FB
:10552000FCF7FBFB054665B912232322A049891E1F
:10553000994800940078FCF753FB012099490871C1
:10554000B6E70420FCF738FC00210420FCF786FABB
:105550001420FBF718FB00208E490871964904209F
:10556000FCF7B0FA03210420FCF714FB05465DB9F3
:10557000122323228E49884800940078FCF730FBE0
:1055800001208849087193E70020824908710021B1
:105590000320FCF797FA03210846FCF7FBFA0546BF
:1055A0005DB91223232281497B4800940078FCF7DF
:1055B00017FB01207B49C8707AE7112323220021C1
:1055C000754800940078FCF70BFB00BF70E70020E3
:1055D00070472DE9F047074688469146002500268A
:1055E000212101200AF014F80546781E734941F67E
:1055F0002B1202FB0016B5420ED031460120FCF7FB
:1056000061FA03210120FCF7C5FA044624B9012000
:1056100064494870BDE8F0872121022009F0F8FFB5
:105620000546A8F1010042F2F841484300F5A036D2
:105630005036B5420DD031460220FCF743FA032123
:105640000220FCF7A7FA04461CB9012055498870CE
:10565000E0E75B490320FCF735FA03210846FCF735
:1056600099FA04461CB901204E49C870D2E70021BE
:105670000320FCF727FA03210846FCF78BFA0446BF
:105680001CB901204749C870C4E700BFC2E72DE933
:10569000F04706460F4691464FF0000800252121AD
:1056A000012009F0B5FF8046701E464941F62B12D5
:1056B00002FB0015A8450ED029460120FCF702FA8E
:1056C00003210120FCF766FA044624B9012035497C
:1056D0004870BDE8F0872121022009F099FF80463B
:1056E000781E394942F2F84202FB0015A8450DD058
:1056F00029460220FCF7E6F903210220FCF74AFACA
:1057000004461CB9012027498870E2E72F4903208D
:10571000FCF7D8F903210846FCF73CFA04461CB90B
:1057200001202049C870D4E700210320FCF7CAF902
:1057300003210846FCF72EFA04461CB9012019493A
:10574000C870C6E700BFC4E72DE9F04706460F461C
:1057500091464FF000080025DFF8749021210120C8
:1057600009F056FF804644F2682043F6CD7101FBF4
:105770000605A8452ED029460120FCF7A3F90321F0
:105780000120FCF707FA044624BB012005494870B4
:10579000BDE8F0874B0000204A000020FC050020F7
:1057A0001300010052000020130002001300030048
:1057B00013000400B440010020BF02001463010084
:1057C000605B0300788F0200243F010080A9030082
:1057D000F04902002121022009F01AFF80464EF212
:1057E000902044F2D91101FB0705A8450ED02946A7
:1057F0000220FCF767F903210220FCF7CBF90446ED
:1058000024B90120FE498870BDE8F08747F6E01012
:10581000FFF756FC4AF6A720FFF769FC0121032099
:10582000FCF7DCF8F7490320FCF74CF9F6490420B3
:10583000FCF748F90320FCF78CFA0446032C05D149
:1058400004200AF0A0FB03200AF09DFB022C09D1E2
:1058500004200AF098FB03200AF095FB00210320A6
:10586000FCF7BCF800BFCFE72DE9F04707468846B4
:10587000914600250026DFF894932121012009F0AC
:10588000C7FE054644F2682043F6CD7101FB0706CA
:10589000B5420ED031460120FCF714F90321012056
:1058A000FCF778F9044624B90120D5494870BDE8D1
:1058B000F0872121022009F0ABFE05464EF2902030
:1058C00044F2D91101FB0806B5420DD03146022041
:1058D000FCF7F8F803210220FCF75CF904461CB938
:1058E0000120C7498870E2E747F6E010FFF7E8FBC0
:1058F0004AF6A720FFF7FBFB01210320FCF76EF817
:10590000C0490320FCF7DEF8BF490420FCF7DAF8B1
:105910000320FCF71EFA0446032C02D104200AF0EF
:1059200032FB022C06D104200AF02DFB00210320BB
:10593000FCF754F82121032009F06AFE0546A5F57D
:105940001C46403E49F64040854200D20026314682
:105950000320FCF7B7F803210846FCF71BF90446BF
:105960001CB90120A649C870A1E7A9490420FCF789
:10597000A9F803210420FCF70DF904461CB9012005
:105980009F49087193E7A3490420FCF79BF8032182
:105990000420FCF7FFF804461CB90120984908715F
:1059A00085E745F2082029180320FCF78BF803212E
:1059B0000846FCF7EFF804461CB901209049C8706E
:1059C00075E74AF6A720FFF792FB924809EB000122
:1059D0000420FCF777F803210420FCF7DBF80446E9
:1059E0001CB901208649087161E7FFF774FBFFF7D6
:1059F00089FB00210320FCF765F803210846FCF72A
:105A0000C9F804461CB901207D49C8704FE700BFA2
:105A10004DE72DE9F04707468846914600260025C8
:105A20002121012009F0F4FD064649F64045AE4229
:105A30000ED029460120FCF745F803210120FCF790
:105A4000A9F8044624B901206D494870BDE8F087E3
:105A50002121022009F0DCFD064643F69825AE42DE
:105A60000DD029460220FCF72DF803210220FCF777
:105A700091F804461CB9012061498870E6E766493F
:105A80000320FCF71FF803210846FCF783F80446BF
:105A90001CB901205A49C870D8E700210420FCF73E
:105AA00011F803210420FCF775F804461CB9012005
:105AB00053490871CAE759490420FCF703F8032148
:105AC0000420FCF767F804461CB901204C49087112
:105AD000BCE700210320FBF7F5FF03210846FCF794
