:020000040800F2
:10000000D81E002029020008B10D00084B0300088B
:10001000AD0D0008970600089314000800000000CA
:10002000000000000000000000000000950F000824
:10003000D70B000800000000970200088510000898
:10004000430200084302000843020008430200087C
:10005000430200084302000843020008430200086C
:10006000430200084302000843020008430200085C
:10007000430200084302000843020008430200084C
:10008000430200084302000843020008430200083C
:10009000E907000843020008430200084302000881
:1000A000430200084302000843020008430200081C
:1000B000430200084302000843020008430200080C
:1000C00043020008430200084302000843020008FC
:1000D00043020008430200084302000843020008EC
:1000E00043020008430200084302000843020008DC
:1000F00043020008430200084302000843020008CC
:1001000043020008430200084302000843020008BB
:1001100043020008430200084302000843020008AB
:10012000430200084302000843020008430200089B
:10013000430200084302000843020008430200088B
:10014000430200084302000843020008430200087B
:10015000430200084302000843020008BD110008E2
:10016000430200084302000843020008430200085B
:10017000430200084302000843020008430200084B
:10018000430200084302000800F002F800F03CF8C7
:100190000AA090E8000C82448344AAF10107DA45E2
:1001A00001D100F031F8AFF2090EBAE80F0013F0F8
:1001B000010F18BFFB1A43F001031847C4460000A3
:1001C000E4460000103A24BF78C878C1FAD8520734
:1001D00024BF30C830C144BF04680C6070470000C1
:1001E0000023002400250026103A28BF78C1FBD840
:1001F000520728BF30C148BF0B6070471FB504F0DD
:10020000DCF91FBD10B510BD00F00DFA1146FFF767
:10021000F5FF00F03BFA00F02BFA03B4FFF7F2FF12
:1002200003BC01F087FA00000948804709480047ED
:10023000FEE7FEE7FEE7FEE7FEE7FEE7FEE7FEE796
:10024000FEE7FEE704480549054A064B70470000F3
:100250005511000889010008D8180020D81E002078
:10026000D81A0020D81A0020EFF3108072B6704719
:1002700080F310887047434A1368012B04D04FF075
:1002800001031360404A1060404A116040484FF03B
:10029000805101607047EFF3108272B639480168EF
:1002A00051B34FF0000101603748016891B1EFF39D
:1002B00009811EF0100F08BF21ED108B21E9F00F0E
:1002C0004FF000041EF0100F08BF012441F8044D48
:1002D000006801602D490968096808C9B1E8F00F94
:1002E000002B18BFB1EC108B81F309884EF0100E73
:1002F000002B18BF2EF0100E82F310884EF0040E63
:10030000704722490860EFF3148222F0040282F35E
:1003100014881D494FF0000008601A494FF0010091
:1003200008601C484FF47F01D0F8002041EA020128
:10033000016017484FF0805101601748006800685D
:1003400080F3088861B662B670471EF0040F0CBFD8
:10035000EFF30880EFF3098020E9F00F40F804ED97
:1003600040F804ED1EF0040F0CBF80F3088880F302
:10037000098800B502F060FD5DF804EB4EF0040E54
:10038000704700004800002040000020440000208A
:1003900004ED00E020ED00E008ED00E0704740EAE9
:1003A0000103024630B59B0710D14FF0013400E045
:1003B00008C208C91D1B9D4315EAC41FF8D013F0DD
:1003C000FF0102F8011B0DD01B0AF8E711F8013BF1
:1003D000002B02F8013B05D011F8013B002B02F87D
:1003E000013BF3D130BD10B5431C02E010F8011BF6
:1003F00071B18107FAD14FF0013202C88C1A8C43D7
:1004000014EAC211F9D0C01A0A0603D0C01E10BDEA
:10041000C01A10BD0A0401D0801E10BD0902FCD014
:10042000401E10BD40EA010370B59B072ED14FF06E
:100430000136042A2AD308C810C99D1B9D43121FE8
:1004400015EAC61517D0D8B2E1B2401A50EA0561D4
:1004500010D198B2A1B2401A50EA05410AD123F056
:100460007F4024F07F41401A50EA052102D1180E46
:10047000A0EB146070BDA342DBD018BA21BA884249
:1004800001D9012070BD4FF0FF3070BD0AB90020C6
:1004900070BD10F8013B11F8014B63B1A3420AD1C2
:1004A000521E08D010F8013B11F8014B1BB1A342BA
:1004B00001D1521EEDD1181B70BD421E12F8013F32
:1004C000002BFBD111F8013B002B02F8013BF9D1C5
:1004D000704710B5203AC0F00B80B1E81850203AB0
:1004E000A0E81850B1E81850A0E81850BFF4F5AFD4
:1004F0005FEA027C24BFB1E81850A0E8185044BF5E
:1005000018C918C0BDE810405FEA827C24BF51F8CA
:10051000043B40F8043B08BF7047D20728BF31F8BE
:10052000023B48BF11F8012B28BF20F8023B48BF0F
:1005300000F8012B70474FF000020429C0F0128030
:1005400010F0030C00F01B80CCF1040CBCF1020F86
:1005500018BF00F8012BA8BF20F8022BA1EB0C015B
:1005600000F00DB85FEAC17C24BF00F8012B00F851
:10057000012B48BF00F8012B70474FF0000200B577
:10058000134694469646203922BFA0E80C50A0E8B6
:100590000C50B1F12001BFF4F7AF090728BFA0E864
:1005A0000C5048BF0CC05DF804EB890028BF40F830
:1005B000042B08BF704748BF20F8022B11F0804F72
:1005C00018BF00F8012B704710B5044610F0030F58
:1005D00008BF11F0030F40F015804FF0013E121FCD
:1005E000C0F20E8051F8043BA3EB0E0C2CEA030C76
:1005F0001CEACE1C08BF40F8043BF0D0A1F1040176
:1006000002F10402521E08DB11F8013B002B00F836
:10061000013BF7D11146FFF78EFF204610BD704712
:10062000704770477047754600F02CF8AE460500DD
:100630006946534620F00700854618B020B5FFF7FD
:1006400001FEBDE820404FF000064FF000074FF0DC
:1006500000084FF0000B21F00701AC46ACE8C009E0
:10066000ACE8C009ACE8C009ACE8C0098D467047E9
:1006700010B50446AFF300802046BDE81040FFF7F8
:10068000CCBD0000004870477818002010B503F07A
:100690004BFE002010BD00BFFEE7000000B58BB090
:1006A00000F062FB3E4908600121084600F0BEFBF5
:1006B00009220B213B4800F027FB09220C21394875
:1006C00000F022FB4FF4C050099002208DF8290061
:1006D0008DF8280000208DF82A0001208DF82B00CD
:1006E00009A9304800F0C8FA0121480600F0AEFB25
:1006F0002D4800F0B5F806A800F05DFA00208DF84E
:100700001E008DF81F008DF820008DF821008DF857
:1007100022008DF823008DF81A008DF81B000B20A5
:100720008DF81C0007208DF81D000420ADF818007E
:1007300006A91D4800F03DF900208DF80E000120AB
:100740008DF80F008DF810000020ADF80400ADF812
:100750000600134800784007000EADF8080000209E
:10076000ADF80A00ADF80C0001208DF8110001A8C9
:1007700000F092F8012202210B4800F011F9142038
:100780008DF8140000208DF815008DF8160001205A
:100790008DF8170005A800F00DFB0BB000BD0000A0
:1007A00034000020000002400064004010B5044600
:1007B0000B49096801EB81010A4A02EB810014220E
:1007C0002146FFF786FE06480068401C0449086081
:1007D0000846007800F01F000860012010BD0000EE
:1007E000380000201C03002000B585B06A460021B7
:1007F000054800F068F96846FFF7D8FF034802F0A3
:1008000068FF05B000BD000000640040FC0000204F
:1008100010B504460F4800680F490968884201D1A5
:10082000002010BD0C48006800EB80000B4A02EB72
:10083000800114222046FFF74CFE07480068401C48
:10084000054908600846007800F01F000860012094
:10085000E7E70000380000203C0000201C030020D7
:1008600010B504460B48844209D10121480600F026
:10087000FDFA00214FF0007000F0F8FA08E00121C5
:10088000880600F0F3FA00214FF0806000F0EEFAE5
:1008900010BD00000064004010B50021837A0122E1
:1008A00002FA03F13D4A126842F001023B4B1A6022
:1008B0003A4A1C3212688A43384B1C331A60027B56
:1008C000CAB9364A0C3212688A43344B0C331A6068
:1008D0004288C38842EA0343304A4032847A42F86D
:1008E00034300288838842EA03432C4A4032847AB7
:1008F00002EBC4025360027B012A19D1274A0C3251
:1009000012680A43254B0C331A604288038842EA76
:100910000343224A4032847A42F83430C2888388C2
:1009200042EA03431D4A4032847A02EBC402536018
:10093000C27A3AB9194A121D12688A43174B1B1D15
:100940001A6006E0154A121D12680A43134B1B1D5C
:100950001A60028932B9114A143212688A430F4B65
:1009600014331A600289012A06D10C4A1432126823
:100970000A430A4B14331A60427B012A06D1074A04
:100980001C3212680A43054B1C331A60034A126872
:1009900022F00102014B1A6010BD00000066004009
:1009A0001AB143690B43436102E043698B434361DE
:1009B000704730B5024600200023146824F002047A
:1009C0001460146844F00104146000E05B1C546877
:1009D00004F001041CB94FF6FF74A342F6D1546829
:1009E00004F001040CB900206CE08C79012C04D1D6
:1009F000146844F08004146003E0146824F0800458
:100A00001460CC79012C04D1146844F040041460C3
:100A100003E0146824F0400414600C7A012C04D123
:100A2000146844F02004146003E0146824F02004E7
:100A300014604C7A012C04D1146844F01004146042
:100A400003E0146824F0100414608C7A012C04D1A3
:100A5000146844F00804146003E0146824F00804E7
:100A60001460CC7A012C04D1146844F0040414609E
:100A700003E0146824F0040414608C78A407CD7893
:100A800044EA05640D7944EA05444D7944EA055485
:100A90000D886D1E2C43D461146824F00104146089
:100AA000002300E05B1C546804F001041CB14FF605
:100AB000FF74A342F6D1546804F001040CB1002085
:100AC00000E0012030BD10B500F5D87303EB011331
:100AD0001B6803F004031372137A53B900F5D8733B
:100AE00003EB01131B6840F2FF7404EA53531360D5
:100AF00009E000F5D87303EB01131B686FF0604445
:100B000004EAD303536000F5D87303EB01131B68A9
:100B100003F00203537200F5D87303EB01135B6813
:100B200003F00F03937200F5D87303EB01135B68B6
:100B30001B0AD37400F5D87303EB01139B68D372BF
:100B400000F5D87303EB01139B681C0A147300F5BE
:100B5000D87303EB01139B681C0C547300F5D87316
:100B600003EB01139B681B0E937300F5D87303EB23
:100B70000113DB68D37300F5D87303EB0113DB6853
:100B80001C0A147400F5D87303EB0113DB681C0C0A
:100B9000547400F5D87303EB0113DB681B0E9374D8
:100BA00021B9C36843F02003C36003E0036943F045
:100BB0002003036110BD00218171C1710172417276
:100BC0008172C1728170C170032101710221417172
:100BD000012101807047704701490860704700009B
:100BE0000C3C024010B500F005F8F320FFF7F4FFCD
:100BF00010BD00000548006800F0004028B104481E
:100C000002490C390860034808607047103C0240F4
:100C100023016745AB89EFCD1CB50121042000F00D
:100C200005F90820009003208DF8050001208DF8BB
:100C3000040000208DF8060001208DF807006946A9
:100C40000B4800F019F80121102000F0EFF84FF4E4
:100C50007040009003208DF8050000208DF80400FE
:100C600001208DF807006946024800F005F81CBD18
:100C70000008024000100240F0B50A46002100239F
:100C8000002400BF3DE0012505FA01F3156805EADF
:100C900003049C4234D105684F000326BE40B5438F
:100CA000056015794E00B540066835430560157935
:100CB000012D02D01579022D16D185684F0003262B
:100CC000BE40B543856055794E00B54086683543D2
:100CD0008560456801268E40B54345604568967934
:100CE0008E40B6B235434560C5684F000326BE400E
:100CF000B543C560D5794E00B540C6683543C5607B
:100D0000491C1029BFD3F0BDF0B5002300244D07C6
:100D1000ED0E02FA05F3CE1000F1200555F826502D
:100D20004E07F70E0F26BE40B543CF1000F1200648
:100D300046F82750CE1000F1200555F8265045EA18
:100D40000304CE1000F1200545F82640F0BD024610
:100D5000002013690B400BB1012000E00020704718
:100D600042694A404261704710B500244FF4004187
:100D70000D48FFF7ECFF04EBC0044FF480410A4834
:100D8000FFF7E5FF04EB80044FF400510648FFF73E
:100D9000DEFF04EB40044FF480510348FFF7D7FF18
:100DA0000444204610BD00000010024000BFFEE7D2
:100DB0007047000070B5002100230F22C4781CB3D7
:100DC000174C246804F4E064C4F5E064C4F307211C
:100DD000C1F10404E3B20A4144789C40E1B2847852
:100DE000144021430C07210E0E4C05786155047800
:100DF00004F01F050124AC4005786D11AD0005F12C
:100E0000E025C5F8004109E0047804F01F0501243D
:100E1000AC40054D0678761145F8264070BD0000BF
:100E20000CED00E000E400E080E100E029B1064ABA
:100E300012680243044B1A6004E0034A12688243BA
:100E4000014B1A60704700003038024029B1064A51
:100E500012680243044B1A6004E0034A126882439A
:100E6000014B1A60704700004038024029B1064A21
:100E700012680243044B1A6004E0034A126882437A
:100E8000014B1A60704700002038024029B1064A21
:100E900012680243044B1A6004E0034A126882435A
:100EA000014B1A607047000044380240F0B5002141
:100EB00000220024022500260223324F3F6807F05B
:100EC0000C0121B1042905D0082937D105E02E4FA6
:100ED000076036E02D4F076033E02A4F3F1F3F6821
:100EE000C7F38056274F3F1F3F6807F03F036EB19F
:100EF000264FB7FBF3F7DFF88CC0ACF1040CDCF83D
:100F000000C0CCF3881C07FB0CF40CE01E4FB7FBB1
:100F1000F3F7DFF870C0ACF1040CDCF800C0CCF3E0
:100F2000881C07FB0CF4174F3F1F3F68C7F30147AE
:100F30007F1C7D00B4FBF5F7076002E0124F0760ED
:100F400000BF00BF0F4F3F6807F0F0010909104FC5
:100F50007A5C0768D74047600A4F3F6807F4E05162
:100F6000890A0B4F7A5C4768D7408760054F3F6816
:100F700007F46041490B064F7A5C4768D740C76069
:100F8000F0BD0000083802400024F40040787D01E4
:100F900000000020704700000CB500200190009078
:100FA0003448006840F480303249086000BF31485E
:100FB000006800F4003000900198401C01900098F7
:100FC00018B90198B0F5A04FF1D12A48006800F493
:100FD000003010B10120009001E000200090009846
:100FE000012846D123484030006840F08050214914
:100FF000403108602048006840F440401E490860C5
:101000001C48083000681B49083108600846006821
:1010100040F4004008600846006840F4A0500860B2
:101020001648091F0860081F006840F08070091FFB
:10103000086000BF0F48006800F000700028F9D079
:1010400040F205700E4908600A480830006820F038
:1010500003000849083108600846006840F00200B3
:10106000086000BF03480830006800F00C00082842
:10107000F8D10CBD00380240007000401954400700
:10108000003C024010B502F015F802F07FFE02F0BD
:1010900021F810BD70B50020002202230024022197
:1010A000274D2D6805F00C0020B1042806D0082833
:1010B00034D107E0234D244E356033E0234D224EDA
:1010C00035602FE01E4D2D1F2D68C5F380541C4D3B
:1010D0002D1F2D6805F03F0154B11C4DB5FBF1F5F6
:1010E000174E361F3668C6F3881605FB06F209E070
:1010F000144DB5FBF1F5124E361F3668C6F388164F
:1011000005FB06F20E4D2D1F2D68C5F301456D1C24
:101110006B00B2FBF3F50C4E356003E0094D0A4E4F
:10112000356000BF00BF064D2D68C5F30315084E9E
:10113000705D054D2D68C540034E356070BD0000E3
:10114000083802400024F4001000002040787D019F
:101150001400002010B51548006840F470001349D1
:1011600008601348006840F0010011490860002041
:101170000F49083108600E4800680E4908400C49C4
:1011800008600D48091D0860081F006820F48020D1
:10119000091F0860002006490C310860FFF7FCFEBB
:1011A0004FF0006001498039086010BD88ED00E013
:1011B00000380240FFFFF6FE1030002410B540F268
:1011C00025510B4800F0A3F838B140F225510848EA
:1011D00000F010F800F080F908E040F224410448E3
:1011E00000F095F810B1024800F04AF910BD000077
:1011F0000014014010B50022002340F66A14A142F9
:1012000000D100BF0A1201249440A3B2DC43048041
:1012100010BD21B1828942F40052828104E08289AA
:101220004DF6FF731A4082817047000000B587B009
:1012300001210420FFF7FAFD01212020FFF726FEFF
:10124000082206212948FFF75FFD082207212748C9
:10125000FFF75AFD4020059002208DF8180000206D
:101260008DF81A0002208DF8190001208DF81B005E
:1012700005A91E48FFF700FD8020059001208DF88C
:101280001A0000208DF81B0005A91848FFF7F4FC90
:101290004FF4E13001900020ADF80800ADF80A00ED
:1012A000ADF80C00ADF810000C20ADF80E0001A94F
:1012B0000F4800F07BF847208DF8000001208DF8E2
:1012C000010002208DF8020001208DF8030068461D
:1012D000FFF770FD012240F22551054800F041F86A
:1012E00001210348FFF795FF07B000BD0008024049
:1012F0000014014002460020B1F5007F00D100BF7C
:1013000013880B400BB1012000E00020704770B53E
:101310000246002400230025002040F66A16B14250
:1013200000D100BFC1F3421501F01F03012606FAE8
:1013300003F3012D02D19689334006E0022D02D13C
:10134000168A334001E0968A33400C12012606FAD1
:1013500004F41688344013B10CB1012000E00020E1
:1013600070BDF0B50346002400260025002040F69D
:101370006A17B94200D100BF1846C1F3421401F008
:101380001F06012707FA06F5012C01D10C3004E0F5
:10139000022C01D1103000E014301AB107682F433D
:1013A000076002E00768AF430760F0BD2DE9FF4723
:1013B00005460E460024A14600BFA046B08900B1F4
:1013C00000BF2C8A24F44054F08804432C82AC895A
:1013D00041F20C608443B088318908437189084325
:1013E0000443AC81AC8A24F44074B0890443AC82D9
:1013F0006846FFF75BFD2048854202D01F488542C2
:1014000002D1DDF80C9001E0DDF80890A88900F425
:10141000004040B109EBC90000EB091031684900F8
:10142000B0FBF1F707E009EBC90000EB09103168E8
:101430008900B0FBF1F76420B7FBF0F0040120094C
:10144000642101FB1078A88900F4004040B13220EB
:1014500000EBC800B0FBF1F000F00700044308E027
:10146000322000EB08106421B0FBF1F000F00F0017
:1014700004432C81BDE8FF870010014000140140A7
:1014800001468888C0F308007047C1F308028280D3
:10149000704700BFFEE7000001460C4800680C4A98
:1014A0001268904201D10020704708480268006825
:1014B000401C064B18600748805C0870184600887E
:1014C000C0F308001A4610600120EDE72800002054
:1014D000240000201C01002010B50A48FFF7D0FFAF
:1014E000C1B2094802680068401C074B18600748F1
:1014F000815418460088C0F308001946086001208E
:1015000010BD000000140140240000201C01002038
:101510002DE9F04107460D46164600240BE000BFBA
:1015200040210748FFF7E6FE0028F9D0295D38463C
:10153000FFF7ABFF641CB442F1DB0120BDE8F08192
:10154000001401400146481EB0F1807F01D3012004
:101550007047481E4FF0E0225061FF20044A10708F
:1015600000204FF0E0229061072010610020EFE79B
:1015700023ED00E0014609B900207047C8B220B150
:10158000C8B20E4A105C401CF7E701F47F4028B156
:101590000A48C1F30722805C0930EEE701F47F00BE
:1015A00028B10648C1F30742805C1130E5E70348E3
:1015B00000EB116000781930DFE70000C445000837
:1015C00003490868884201D0012070470020FCE7E9
:1015D000C00000202DE9F04389B0064688469146B8
:1015E000002400E0641C305D202804D0305D092810
:1015F00001D04445F6D324B94FF0FF3009B0BDE81F
:10160000F0832146304601F0EBF8054615B94FF05E
:10161000FF30F3E7202101A8FEF7AFFF01AA414602
:10162000304601F047F9074617B94FF0FF30E5E7BC
:1016300001A93846A847C9F800000020DEE70000ED
:101640002DE9FC5F04468B4615461E46DDE90C9AE3
:10165000DDE90E7804F114004060006000BF1C3426
:101660006560A660C4F80C90C4F810A02321D4E9EA
:10167000030201F0D0FED4E9033C63441A1F0F4B70
:10168000D4E9010101F0EEFC2060A7766776002026
:10169000E061C4F82080C4F8248060612076606531
:1016A000A0651C3C00902346054A2146019004F1A8
:1016B000440002F0EDFB0020BDE8FC9F5D3A00080D
:1016C000C53C00082DE9F04704460E4617469846EB
:1016D000DDF8209084F80990607A20F001006072B3
:1016E000E66127620020A062C4F82480002506E09D
:1016F00004F1140101EBC50001F062FD6D1C012D28
:10170000F6DBBDE8F08710B50246002001460EE08A
:1017100002F1140303EBC100D0E900436360D0E998
:10172000003423604060006000BF481C014601296E
:10173000EEDB10BD7047000010B520A001F022FDC7
:101740002148017821A001F01DFD1F48007800F01C
:10175000010010B123A001F015FD1B48007800F036
:10176000020010B122A001F00DFD1748007800F032
:10177000040010B121A001F005FD1348007800F02D
:10178000080010B121A001F0FDFC0F48007800F026
:10179000100010B120A001F0F5FC0B48007800F01B
:1017A000800030B108480F3001681DA001F0EAFC4C
:1017B00002E01FA001F0E6FC10BD0000627573207E
:1017C0006661756C743A0A0029ED00E05343425F8C
:1017D000434653525F424653523A3078253032588E
:1017E000200000004942555345525220000000009D
:1017F000505245434953455252200000494D5052E2
:10180000454349534552522000000000554E535461
:101810004B4552522000000053544B455252200079
:101820005343422D3E424641523A253038580A0031
:101830000A00000070B504460D4600F013FC0020BD
:1018400070BD70B504460D4600F0E4FC002070BD8C
:1018500010B51448006890F82100C0F3400020B98A
:10186000002011490870084610BD1048006838B1C2
:1018700080220E4801680C48FEF7A6FE0A48F3E7EE
:1018800001F016F820B10AA10748FEF788FD03E031
:1018900009A10548FEF783FD09A10348FEF70DFEE7
:1018A0000148E1E7E4000020F4170020E8000020F0
:1018B0006D7368200000000066696E736820000088
:1018C0003E00000010B501F08BFA10BD0549096813
:1018D00091F8211060F34101024A126882F8211048
:1018E00070470000E4000020024A1060024A1160C4
:1018F00070470000D4000020D80000207CB50025EF
:1019000016491748FFF7F0FF7821012001F076F91A
:10191000144908600846006820B913A001F032FCA1
:10192000681E7CBD0A200421CB010022CDE90010F5
:10193000134914A002F069F8044600231A4613A1C3
:101940000848006801F0B2FE0120FFF7BFFF1CB19C
:1019500015B9204602F07EF90020E2E78048000831
:1019600000480008E40000206E6F206D656D6F7206
:101970007920666F72207368656C6C0A0000000045
:1019800095190008747368656C6C00007368727850
:1019900000000000E948006890F8210020F00100F4
:1019A000401CE649096881F82100FFF751FF054610
:1019B00001F0E8FBC1E1FFF785FF0446002C00DAE7
:1019C000BBE11B2C05D10120DC49096881F820000E
:1019D000B3E1DA48006890F8200001280DD15B2CB3
:1019E00005D10220D549096881F82000A5E1002031
:1019F000D249096881F8200045E0D048006890F895
:101A0000200002283FD10020CC49096881F820003D
:101A1000412C00D191E1422C00D18EE1442C11D116
:101A2000C6480068B0F8740058B1C5A001F0AAFB20
:101A3000C2480068B0F87400401EC0490968A1F8A7
:101A400074007AE1432C1ED1BC480068B0F87400E1
:101A5000BA490968B1F87210884213DAB7480068C9
:101A6000B0F87420B54800682230815CB5A001F060
:101A700089FBB2480068B0F87400401CAF4909689F
:101A8000A1F8740059E10CB1FF2C00D155E1092CEB
:101A90001FD1002503E0AAA001F074FB6D1CA7482C
:101AA0000068B0F87400A842F5DCA4480068223051
:101AB00002F050FCA14800682230FEF794FC80B28E
:101AC0009E490968A1F872009C490968A1F8740050
:101AD00033E17F2C01D0082C6ED198480068B0F813
:101AE000740000B929E195480068B0F87200401E02
:101AF00092490968A1F8720090480068B0F8740033
:101B0000401E8E490968A1F874008C480068B0F83E
:101B100072008A490968B1F8741088423FDD874B2A
:101B20001B68B3F87230854E3668B6F874609A1B3D
:101B3000824B1B68B3F874305B1C804E36682236CB
:101B400099197E4B1B68B3F874607C4B1B68223379
:101B5000F01801F03FFC002278480068B0F87210DD
:101B6000764800682230425474480068B0F8742007
:101B7000724800682230111873A001F003FB6F480F
:101B80000068B0F8745003E06DA001F0FBFA6D1C22
:101B90006A480068B0F87200A842F5DA0BE06CA061
:101BA00001F0F0FA002165480068B0F8722063483F
:101BB000006822308154C0E00D2C01D00A2C2BD1BA
:101BC00000F076FE012812D15C48006890F82100F0
:101BD00000F0010010B15FA001F0D4FA574800688E
:101BE000B0F8721055480068223000F0C3FDFFF7CE
:101BF0002FFE054601F0C6FA5021504800682230F9
:101C0000FEF799FC00204D490968A1F872004B4984
:101C10000968A1F8740090E048480068B0F87200C4
:101C2000502804DB002045490968A1F872004348A8
:101C30000068B0F8740041490968B1F87210884230
:101C400045DA3E4B1B68B3F872303C4E3668B6F846
:101C500074609A1B394B1B68B3F87460374B1B6870
:101C60002233F118354B1B68B3F874305B1C334ECC
:101C700036682236981901F0ADFB30480068B0F89C
:101C800074202E480068223084542C48006890F854
:101C9000210000F0010050B128480068B0F874201D
:101CA00026480068223011182BA001F06BFA234857
:101CB0000068B0F8745003E021A001F063FA6D1CD5
:101CC0001E480068B0F87200A842F5DC12E01B481C
:101CD0000068B0F872201948006822308454174810
:101CE000006890F8210000F0010018B1214615A00D
:101CF00001F048FA002411480068B0F87200401C56
:101D00000E490968A1F872000C480068B0F8740028
:101D1000401C0A490968A1F8740008480068B0F836
:101D20007200502808DB002004490968A1F87200FD
:101D300002490968A1F8740000BF3CE6E4000020F5
:101D4000080000002563000008257320200800001B
:101D5000082008000A0000002573000010B5144890
:101D6000006800F0020010B112A001F00BFA104858
:101D7000006800F0804088B10D48C01E007808B1AE
:101D8000FFF7DAFC0A48001F007808B100F02EFCCB
:101D90000748801E008808B102F096FB04480068DE
:101DA00000F0004010B109A001F0ECF910BD0000F6
:101DB0002CED00E06661696C656420766563746F84
:101DC000722066657463680A0000000064656275CD
:101DD00067206576656E740A0000000010B502A0E9
:101DE00001F0D0F9002010BD48656C6C6F20525492
:101DF0002D546872656164210A00000010B50CA0C2
:101E000001F0C0F90F4804680CE002220EA120681E
:101E1000FEF708FB00B904E00CA0216801F0B2F95C
:101E200000BF08340A4800688442EED3002010BD89
:101E30002D2D46756E6374696F6E204C6973743A0C
:101E40000A000000D40000205F5F000025730A0034
:101E5000D80000202DE9F04704460D4616461F46DF
:101E6000284601F047FB814609F10408C4F80080C8
:101E700025726660E76000202061BDE8F0872DE9EB
:101E8000F84F07460C464FF0000A00202061E0683A
:101E900008B1207A10B90020BDE8F88FD4F800808E
:101EA0001FB945464FF0010A00E03D46FEF7DCF958
:101EB0000090BAF1000F0ED1A5F10C0B9BF80800B1
:101EC00020F08000217A884204D00098FEF7D0F9F3
:101ED0000020E1E700BF0026D4F804900BE02D6855
:101EE000454501D1002507E0761C49F8045BE06810
:101EF000B04200D100E0F2E700BF0098FEF7B8F969
:101F000026612846C8E700002DE9F04F91B0002770
:101F10000FF2D409082304AA05210CA8FFF79AFFA1
:101F20004FF008084A46414631A001F02BF94046DF
:101F300000F038FD37A001F025F900BF0CA93846A4
:101F4000FFF79DFF0746002545E004A850F825004F
:101F5000A0F10C06FEF788F98346307A20F0800065
:101F60009DF83810884203D05846FEF781F931E0D9
:101F70005846FEF77DF9344604F1140001F04FF99C
:101F8000B8B904F1140001F052F98246208C618C3A
:101F900023460822CDE9010A0091414624A001F020
:101FA000F1F804F1140002F0F1F927A001F0EAF8C9
:101FB0000FE004F1140001F03AF98246208C618CA4
:101FC00023460822CDE9010A009141461FA001F0F5
:101FD000D9F800BF6D1C1098A842B6DC002FADD117
:101FE000002011B0BDE8F08F6D61696C626F780000
:101FF000252D2A2E7320656E7472792073697A6597
:102000002073757370656E64207468726561640A0C
:1020100000000000202D2D2D2D20202D2D2D2D20D8
:102020002D2D2D2D2D2D2D2D2D2D2D2D2D2D0A0030
:10203000252D2A2E2A732025303464202025303483
:10204000642025643A0000000A000000252D2A2E95
:102050002A73202530346420202530346420256400
:102060000A00000010B50848016808A001F08AF8CD
:102070000B4801680BA001F085F80F4801680FA01C
:1020800001F080F810BD000064000020746F7461DE
:102090006C206D656D6F72793A2025640A0000002E
:1020A0006800002075736564206D656D6F7279201E
:1020B0003A2025640A0000006C0000206D617869F8
:1020C0006D756D20616C6C6F6361746564206D6506
:1020D0006D6F72793A2025640A0000002DE9F04FF7
:1020E0008FB000270FF2CC09082302AA02210AA808
:1020F000FFF7B0FE4FF008084A46414630A001F015
:1021000041F8404600F04EFC34A001F03BF800BF1F
:102110000AA93846FFF7B3FE0746002541E002A8AA
:1021200050F82500A0F10C06FEF79EF88346307AA1
:1021300020F080009DF83010884203D05846FEF70A
:1021400097F82DE05846FEF793F8344604F1140052
:1021500001F065F8A8B904F1140001F068F88246AE
:10216000A08B234608224146CDE9000A21A001F0B8
:1021700009F804F1140002F009F917A001F002F8BF
:102180000DE004F1140001F052F88246A08B2346C2
:1021900008224146CDE9000A1AA000F0F3FF00BF73
:1021A0006D1C0E98A842BADC002FB1D100200FB0F0
:1021B000BDE8F08F73656D6170686F726500000037
:1021C000252D2A2E73207620202073757370656E5E
:1021D00064207468726561640A000000202D2D2D52
:1021E000202D2D2D2D2D2D2D2D2D2D2D2D2D2D0A4F
:1021F00000000000252D2A2E2A732025303364206C
:1022000025643A00252D2A2E2A7320253033642098
:1022100025640A002DE9F04FAFB04FF000090FF22E
:102220001C1B082321AA012129A8FFF713FE4FF048
:10223000080A5A465146434800F0A4FF504600F0B1
:10224000B1FB41A000F09EFF00BF29A94846FFF75F
:1022500016FE81464FF0000865E021A850F82800DE
:10226000A0F10C05FEF700F82E90287A20F08000EF
:102270009DF8AC10884203D02E98FDF7F9FF50E08E
:102280007822294603A8FEF724F92E98FDF7F0FFDF
:102290002C4694F8350023460822514600903AA077
:1022A00000F070FF94F8340000F00F06012E03D107
:1022B00038A000F067FF15E0022E03D138A000F02F
:1022C00061FF0FE01EB939A000F05CFF0AE0042EA8
:1022D00003D139A000F056FF04E0032E02D139A04B
:1022E00000F050FFA76A00E07F1C38782328FBD05D
:1022F000D4E90A10791A401A64214843E16AB0FB14
:10230000F1F00290216B206CCDE90001E369A06A35
:10231000C01AE36AC1181A462DA0029B00F032FFD2
:1023200000BF08F101082D98404596DCB9F1000F77
:102330008BD100202FB0BDE8F08F0000746872656B
:1023400061640000A4470008202D2D2D20202D2D94
:102350002D2D2D2D2D202D2D2D2D2D2D2D2D2D2DBA
:10236000202D2D2D2D2D2D2D2D2D2D20202D2D2DC4
:102370002D2D2D20202D2D2D2D2D2D2D2D2D2D20B4
:102380002D2D2D0A00000000252D2A2E2A73202530
:102390003364200020726561647920200000000011
:1023A0002073757370656E640000000020696E69AB
:1023B000742020200000000020636C6F73652020D3
:1023C000000000002072756E6E696E6700000000EC
:1023D0002030782530387820307825303878202023
:1023E00020202530326425252020203078253038E3
:1023F0007820253033640A002DE9F04790B000279B
:102400000FF2B409082303AA0A210BA8FFF722FD43
:102410004FF008084A46414629A000F0B3FE404666
:1024200000F0C0FA30A000F0ADFE00BF0BA93846A6
:10243000FFF725FD074600262DE003A850F82600EB
:10244000A0F10C04FDF710FF8246207A20F08000F6
:102450009DF83410884203D05046FDF709FF19E07B
:102460005046FDF705FF2546D5E909012B46082210
:10247000CDE90001414625A000F084FE687A00F015
:10248000010018B127A000F07DFE02E028A000F0B6
:1024900079FE00BF761C0F98B042CEDC002FC5D16C
:1024A00001F06EFC0446214625A000F06BFE0020E2
:1024B00010B0BDE8F087000074696D65720000001F
:1024C000252D2A2E732020706572696F6469632040
:1024D000202074696D656F757420202020202020D5
:1024E000666C61670A000000202D2D2D2D2D2D2DED
:1024F0002D2D2D202D2D2D2D2D2D2D2D2D2D202D26
:102500002D2D2D2D2D2D2D2D2D2D0A00252D2A2E55
:102510002A73203078253038782030782530387884
:10252000200000006163746976617465640A0000CC
:1025300064656163746976617465640A0000000013
:1025400063757272656E74207469636B3A307825B6
:102550003038780A0000000088B0FEF75DFBFEF717
:102560009DF8FEF73FFB0A2003214FF48063002211
:10257000CDE900100C490DA001F047FA04461CB14A
:10258000204601F067FB02E00BA000F0FBFD0AE033
:1025900008211148FEF7E4FB4FF4FA7001F00AFB42
:1025A00003A8FEF735F9F3E7054400087561727476
:1025B000365F7478000000006372656174652063A3
:1025C000616E5F727820746872656164206661690B
:1025D0006C6564210A0000000008024010B5044642
:1025E00000F02CFBFFF7B8FF10BD000010B51CA0D9
:1025F00000F0C8FD1F4801781FA000F0C3FD1D4872
:10260000007800F0010010B121A000F0BBFD1948D6
:10261000007800F0020010B120A000F0B3FD1548D2
:10262000007800F0080010B11FA000F0ABFD1148C9
:10263000007800F0100010B11EA000F0A3FD0D48BE
:10264000007800F0800030B10A480C3001681CA00E
:1026500000F098FD02E01EA000F094FD10BD000007
:102660006D656D206D616E616765206661756C7466
:102670003A0A000028ED00E05343425F43465352BC
:102680005F4D4653523A30782530325820000000D2
:102690004941434356494F4C2000000044414343C5
:1026A00056494F4C200000004D554E53544B455257
:1026B000522000004D53544B455252200000000060
:1026C0005343422D3E4D4D41523A253038580A0071
:1026D0000A0000002DE9F04781460026002799F8FE
:1026E000000028B90021084600F0A8F8BDE8F087EE
:1026F0001B48046827E006221AA12068FDF792FE15
:1027000000B11FE0206800F106084846FDF76BFEA7
:102710008246524641464846FDF784FE88B926B9AE
:1027200047463846FDF75FFE06464146384601F00B
:1027300058FE0546B54200DA2E4641460BA000F091
:1027400021FD00BF08340A4800688442D3D327B172
:1027500032463946484601F074F800BFC6E700002B
:10276000D40000205F5F636D645F000025730A0082
:10277000D800002038B504460D4601E0641C6D1EEB
:1027800020782028FAD020780928F7D00DB9002029
:1027900038BD6A4629462046FEF71CFF08B9009856
:1027A000F6E7204600E0401C0178202902D001789D
:1027B0000029F8D100210170214603A000F0E2FCBD
:1027C0004FF0FF30E4E7000025733A20636F6D6D32
:1027D000616E64206E6F7420666F756E642E0A00E1
:1027E0002DE9F04106460D4600271048046815E023
:1027F00006220FA12068FDF715FE00B10DE021684B
:10280000881D2A463146FDF70DFE28B9A81D21680E
:10281000085C08B9676805E000BF0834064800682E
:102820008442E5D300BF3846BDE8F081D4000020E3
:102830005F5F636D645F0000D800002070B50546DF
:102840000E460EA000F09EFC134804680DE0062220
:1028500012A12068FDF7E6FD00B105E02068811DAA
:1028600010A000F08FFC00BF08340F4800688442BD
:10287000EDD30EA000F086FC002070BD52542D5404
:102880006872656164207368656C6C20636F6D6D40
:10289000616E64733A0A0000D40000205F5F636DCC
:1028A000645F000025732000D80000200A000000AB
:1028B000012070472DE9F04782460E469046544667
:1028C0000025002755E003E000202070641C6D1CEB
:1028D0002078202802D02078092801D1B542F3D3EE
:1028E000082F12D326A000F04DFC4FF0000906E09F
:1028F00058F829102AA000F045FC09F10109B94552
:10290000F6D326A000F03EFC35E0B54200D332E01D
:10291000207822281CD1641C6D1C48F827407F1C9D
:1029200009E020785C2804D16078222801D1641C59
:102930006D1C641C6D1C2078222801D0B542F0D398
:10294000B54200D317E000202070641C6D1C10E01D
:1029500048F827407F1C01E0641C6D1C207820286B
:1029600004D02078092801D0B542F5D3B54200D370
:1029700001E0B542A7D300BF3846BDE8F0870000AC
:10298000546F6F206D616E79206172677320212012
:102990005765206F6E6C79205573653A0A00000008
:1029A0002573200010B5044602E004A000F0EAFB05
:1029B000201EA4F10104F8D110BD00002D0000007C
:1029C00030B51A4C436824681919884215D04B88D1
:1029D0009BB9174B1B6899420FD0164B1B688B4253
:1029E00001D1144B18604B684360104B1B68C31A2D
:1029F0000E4D4C682D682C44A3600C4C83682468F1
:102A00001A19824211D053887BB90A4B1B68834242
:102A100001D1084B1A6043685360044B1B68D31AFA
:102A2000024D44682D682C44A36030BD580000203E
:102A30005C000020600000202DE9F04F86B00D46BC
:102A40009C46DDE9106401960F9B04F04008B8F144
:102A5000000F02D0DFF8708101E0DFF87081CDF85F
:102A6000008004F01008B8F1000F01D024F0010438
:102A700004F00108B8F1000F02D04FF0300801E077
:102A80004FF02008C246002704F00208B8F1000FFA
:102A900011D0002A02DA2D2752420CE004F004087B
:102AA000B8F1000F01D02B2705E004F00808B8F1B9
:102AB000000F00D02027002142B94FF0300B88468C
:102AC000491C0DF1080909F808B01DE01AE0E146BB
:102AD000B9F10A0F08D14FF00A0BB2FBFBFE0BFB5A
:102AE0001E28B2FBFBF202E002F00F08120900BF41
:102AF000DDF8009019F808B08846491C0DF1080966
:102B000009F808B0002AE2D1B14200DD0E469B1B55
:102B100004F01108B8F1000F10D117B1002B00DD3F
:102B20005B1E06E0A84203D24FF0200880F8008028
:102B3000401CB3F10008A3F10103F3DC27B1A84264
:102B400000D207705B1E401C04F01008B8F1000FA3
:102B50000AD104E0A84201D280F800A0401CB3F1E1
:102B60000008A3F10103F5DC06E0A84203D24FF010
:102B7000300880F80080401CB046761E8845F4DCA2
:102B800008E0A84205D20DF1080818F8018080F885
:102B90000080401CB1F10008A1F1010104DDDDF865
:102BA0000480B8F1000FECD106E0A84203D24FF048
:102BB000200880F80080401CB3F10008A3F1010355
:102BC000F3DC06B0BDE8F08FD5460008C446000827
:102BD0001CB514200221CB010022CDE900100449CC
:102BE00004A000F012FF0446204601F033F81CBD9B
:102BF000DD2500086D61696E0000000070B50446B7
:102C00000D4604FB05F000F02FFB06462EB104FB39
:102C100005F20021304600F0FEFB304670BD00009A
:102C200010B5044C02E020688047241D024884420D
:102C3000F9D310BDEC470008F447000810B5044C68
:102C400002E020688047241D02488442F9D310BD69
:102C5000F4470008FC47000810B5FDF705FB0446E3
:102C600004480088401C00B2024908802046FDF755
:102C7000FFFA10BDB000002010B5FDF7F5FA0446CC
:102C80000C480088401E00B20A4908800846B0F986
:102C9000000000280ADC002008802046FDF7E8FA42
:102CA0000548006828B100F06DFC02E02046FDF701
:102CB000DFFA10BDB0000020B400002070B505465A
:102CC00005B970BD1D480068854203D31C480068E3
:102CD000854200D3F5E7A5F10C044FF0FF31194808
:102CE00000F014FD608818B12088B0F5F55F08D0B9
:102CF00015A000F047FA23886288214619A000F049
:102D000041FA002060804FF4F5502080214800688F
:102D1000844201D21F480460084960680968611A4A
:102D2000401A1D490968081A1B4908602046FFF728
:102D300047FE044800F0CDFC00BFC2E75800002069
:102D40005C00002094070020746F20667265652087
:102D50006120626164206461746120626C6F636BE6
:102D60003A0A00006D656D3A203078253038782CAD
:102D7000207573656420666C61673A2025642C2099
:102D80006D6167696320636F64653A203078253030
:102D900034780A0060000020680000200048704776
:102DA000F407002000487047F417002070B5FEF7C4
:102DB00071F90A4800684FF47A71B0FBF1F42046CB
:102DC000FEF7C0FBFFF72CFFFFF7ECFF0446FFF711
:102DD000E5FF0546214600F04FFD70BD10000020C4
:102DE00008B56846FEF758FB012802D19DF800009F
:102DF00008BD4FF0FF30FBE7F8B50546002400267C
:102E00000D200090284600F013FD064600BF0DE09F
:102E1000285D0A2804D1012269460648FEF778FB9E
:102E2000291901220348FEF773FB641CB442EFD357
:102E3000F8BD0000001401402DE9F041054605F100
:102E400028062C1D3348006840B1304631490968D6
:102E5000884707460FB9BDE8F08100BF2EA0216C5E
:102E600000F090F930A0616A00F08CF932A0A16AFC
:102E700000F088F934A0E16A00F084F936A0216BF3
:102E800000F080F938A0616800F07CF93AA0A168F0
:102E900000F078F93CA0E16800F074F93EA02169E7
:102EA00000F070F940A0616900F06CF942A0A169DE
:102EB00000F068F944A0E16900F064F946A0216AD5
:102EC00000F060F948A0616B00F05CF94AA0A16BCA
:102ED00000F058F94CA0E16B00F054F9287800F0AC
:102EE000040048B100F08EFE074639464AA000F0C3
:102EF00049F9FFF78FF902E04FA000F043F9287875
:102F000000F0100010B953A000F03CF9FEF726FFC6
:102F100000BFFEE74C0000207073723A2030782525
:102F20003038780A000000007230303A20307825BE
:102F30003038780A000000007230313A20307825AD
:102F40003038780A000000007230323A203078259C
:102F50003038780A000000007230333A203078258B
:102F60003038780A000000007230343A203078257A
:102F70003038780A000000007230353A2030782569
:102F80003038780A000000007230363A2030782558
:102F90003038780A000000007230373A2030782547
:102FA0003038780A000000007230383A2030782536
:102FB0003038780A000000007230393A2030782525
:102FC0003038780A000000007231303A203078251D
:102FD0003038780A000000007231313A203078250C
:102FE0003038780A000000007231323A20307825FB
:102FF0003038780A00000000206C723A20307825C2
:103000003038780A000000002070633A20307825BC
:103010003038780A000000006861726420666175CB
:103020006C74206F6E207468726561643A20257339
:103030000D0A0D0A00000000686172642066617567
:103040006C74206F6E2068616E646C65720D0A0D81
:103050000A00000046505520616374697665210DB1
:103060000A000000F0B504460D461646301D20F05B
:10307000070044380146002203E00D4F41F822705A
:10308000521C112AF9D34D624FF0000CC1F828C030
:10309000C1F82CC0C1F830C0C1F834C08B63CC6318
:1030A0004FF0807CC1F840C000270F60F0BD0000E9
:1030B000EFBEADDE10B5FDF7D7F804460448007842
:1030C000401C034908702046FDF7D2F810BD0000EF
:1030D0005400002010B5FDF7C7F8044604480078F6
:1030E000401E034908702046FDF7C2F810BD0000DD
:1030F0005400002070B504462068A0F1140528464D
:1031000000F062FD002070BD2DE9F04105460C463F
:103110009046204600F0B4FDB8F1000F03D0B8F19E
:10312000010F23D105E004F11401284600F060F8F6
:103130001CE02E680FE0A6F1140794F8350097F80C
:103140003510884206DA04F1140107F1140000F08A
:103150004FF802E03668AE42EDD100BFAE4204D176
:1031600004F11401284600F043F800BF00BF00201E
:10317000BDE8F08110B5044604F1140000F01AF81F
:10318000002010BD0FB438B505A800907F21084875
:10319000009B049A00F028FF04467F2C00D97F246E
:1031A0000348FFF729FE0020009038BC5DF814FBAF
:1031B0001407002040600060704740600060704766
:1031C0004060006070470268516002680A600160F8
:1031D000486070470268516002680A600160486098
:1031E00070470268516002680A6001604860704779
:1031F0004268116042684A60416008607047014659
:103200000868884201D1012070470020FCE7014690
:103210000868884201D1012070470020FCE7014680
:103220000868884201D1012070470020FCE7014670
:1032300000200A4601E01268401C13688B42FAD154
:103240007047D0E900215160D0E900121160406060
:1032500000607047D0E900215160D0E90012116090
:1032600040600060704700002DE9F041054615B947
:103270000020BDE8F081E81C20F003054E480068FE
:10328000854201D90020F4E70C2D00D20C254FF027
:10329000FF314A4800F03AFA49480068494909684C
:1032A000461A7EE04748006884196088002874D177
:1032B00006F10C006168081AA8426ED306F10C00F2
:1032C0006168091A05F11800814230D306F10C003B
:1032D00000EB05083B48006800EB08074FF4F55089
:1032E00038800020788060687860BE60C4F8048010
:1032F000012060803048796800680C30814205D038
:103300003049786809680844C0F808802E48016888
:1033100005F10C0008442C4908602C480068096835
:10332000884219D2284800682849086014E0012022
:103330006080244960680968611A401A2249096856
:10334000084421490860214800680968884203D27E
:103350001D4800681D4908604FF4F550208018484A
:103360000068844212D107E015480068406815499A
:10337000096808441249086011480068408828B16B
:103380000F480068124909688842EDD10B4800F0E7
:10339000A0F904F10C006CE7FFE70A48006830442C
:1033A000466805480068401BB0423FF67BAF0348C3
:1033B00000F08FF900205CE76400002094070020F3
:1033C0006000002058000020680000206C000020F1
:1033D0005C00002070B50C46014623468B4210D29B
:1033E0009D188D420DD91144134405E05D1E2B46F6
:1033F0002E784D1E29462E70151EA2F10102F5D120
:1034000008E003E013F8015B01F8015B151EA2F16F
:103410000102F7D170BDF0B50C460546E6B2042AAC
:1034200015D300F0030797B9014646EA062343EA9D
:10343000034304E008C108C108C108C1103A102ABA
:10344000F8D201E008C1121F042AFBD20D4601E0A8
:1034500005F8016B171EA2F10102F9D1F0BD2DE9AB
:10346000F04106460F46304600F044F80546E8684D
:10347000FFF7FAFE044614B90020BDE8F0810021F0
:103480002046EA68FFF7C7FF267200206072082214
:103490003946204600F0D5F9FCF7E6FE804604F1F7
:1034A0000C01281DFFF78FFE4046FCF7E1FE204689
:1034B000E3E770B5044600202072FCF7D5FE054610
:1034C00004F10C00FFF7BDFE2846FCF7D1FE2046B4
:1034D000FFF7F4FB70BD70B5044600202072FCF7C6
:1034E000C3FE054604F10C00FFF7ABFE2846FCF7CF
:1034F000BFFE70BD024600210AE0074800EB011044
:103500000078904203D1044800EB01107047491C39
:103510000429F2DB0020F9E7700000202DE9F047D4
:1035200004460D46904600262846FFF7E3FF07466F
:10353000FFF792FB7E6802E0A6F10C003668381DAA
:103540008642F9D1FFF798FB45F0800020720822EF
:103550004146204600F075F9FCF786FE814604F1ED
:103560000C01381DFFF72FFE4846FCF781FEBDE831
:10357000F0870146087A00F0800008B1012070470A
:103580000020FCE72DE9F041FCF76EFE07461848E5
:10359000008838BB17480068FDF7ECFF461E164848
:1035A00050F83600A0F1140414480068844218D082
:1035B00013490E701148056804601248007850B92C
:1035C00004F11C0105F11C00FCF755FE3846FCF720
:1035D0004FFEBDE8F08104F11C0105F11C00FCF771
:1035E0004AFE00BF3846FCF743FE00BFF1E700008B
:1035F000B0000020BC000020B4070020B400002070
:10360000B80000205400002070B50446FCF72CFEE2
:10361000054614F8340F20F00F0040F00100207030
:103620006278343C0A4B03EBC20004F11401426897
:10363000116042684A604160086000BF0549A06BA4
:1036400009680843034908602846FCF711FE70BD6D
:10365000B4070020BC00002070B50446FCF704FE4F
:10366000054604F11400D0E900215160D0E90012B0
:1036700011604060006000BF94F83510094A02EB09
:10368000C1000168814201D1012100E0002129B17E
:103690000548A16B00688843034908602846FCF789
:1036A000E7FD70BDB4070020BC0000202DE9F0410B
:1036B00004460D4616461F462A4602212046FFF7BD
:1036C0002DFF2046FFF756FDA68367720020BDE858
:1036D000F08170B504460025FCF7C6FD064604F1EE
:1036E0001400FFF78CFD28B904F11400FFF702FD68
:1036F000012502E0A08B401CA0833046FCF7B8FDFA
:10370000012D01D1FFF73EFF002070BD73B50546C6
:10371000FCF7AAFD0646A88B002806DDA88B401EF4
:10372000A8833046FCF7A4FD28E0019828B930466C
:10373000FCF79EFD6FF001007CBD00F063FA0446CB
:10374000002020636A7A214605F11400FFF7DCFCB3
:103750000198002809DD01AA002104F1440000F0CD
:103760006BFB04F1440000F0ABFB3046FCF780FD3E
:10377000FFF708FF206B08B1206BDDE70020DBE7D7
:1037800008B509A0FFF7FEFC0AA0FFF7FBFC12A09A
:10379000032301221946009012A0FFF7F3FC19A0A1
:1037A000FFF7F0FC08BD00000A205C207C202F0AF7
:1037B000000000002D205254202D202020202054D5
:1037C0006872656164204F7065726174696E67200C
:1037D00053797374656D0A00417072202031203274
:1037E00030323000202F207C205C2020202020251B
:1037F000642E25642E2564206275696C642025730F
:103800000A0000002032303036202D20323031398D
:1038100020436F70797269676874206279207274CE
:103820002D746872656164207465616D0A00000022
:1038300001460A4600E0521C10780028FBD1501ABD
:10384000704770B50346A2B118460C4600BF14F885
:10385000016B00F8016B3EB902E0002500F8015B46
:10386000551E2A1EF9D102E0551E2A1EEFD100BFB7
:1038700000BF184670BD00002DE9F04105460E4618
:10388000E81C20F0030726F00308B8F1180F09D947
:10389000A8F11800B84205D3A8EB070018381E4954
:1038A000086006E0324629461CA0FFF76BFCBDE825
:1038B000F0812948076004684FF4F55020801648CD
:1038C00000680C3060600020A06060802249606861
:1038D00009680844214908604FF4F55009680880D8
:1038E00001201E49096848800B4800680C301B49BC
:1038F00009684860084800680C3018490968886001
:103900000023012216A11848FFF7D0FE12480068D4
:103910001649086000BFCAE7640000206D656D208D
:10392000696E69742C206572726F722062656769B6
:103930006E206164647265737320307825782C2062
:10394000616E6420656E64206164647265737320C7
:10395000307825780A000000580000205C00002024
:10396000686561700000000094070020600000207E
:1039700010B500200B490880002405E00A4901EB3E
:10398000C400FFF71AFC641C082CF7DB072007496A
:103990000870002006490860064908600648FFF7DD
:1039A0000CFC10BDB0000020B4070020B8000020BF
:1039B000B4000020BC000020C000002070B5084802
:1039C0000068FDF7D7FD451E064850F83500A0F108
:1039D00014040548046004F11C00FCF792FC70BD5F
:1039E000BC000020B4070020B400002010B5002463
:1039F00005E0044901EBC400FFF7E2FB641C002C66
:103A0000F7D010BDC800002070472DE9FF5F0646C3
:103A10000F4690461D46DDE90EAB31460120FFF70B
:103A20001EFD8146B9F1000F03D1002004B0BDE8AE
:103A3000F09F2846FFF718FC044624B94846FFF7D4
:103A400038FD0020F2E743463A46314648468DE8C5
:103A5000300CFDF7F5FD4846E8E7000070B5124868
:103A60000468FCF701FC05462046FFF7F5FD04203D
:103A700084F8340004F1440000F0FAF92046FFF71E
:103A800078FD012805D1206F18B92046FFF723FDE6
:103A900004E004F114010548FFF79CFB2846FCF7FD
:103AA000E7FBFFF76FFD70BDB4000020C0000020F1
:103AB00001E000F001F8FCE770B53AE0FCF7D4FB58
:103AC0000546FDF77DFD30B31D480068A0F11404E4
:103AD00004F11400D0E900215160D0E90012116016
:103AE0004060006000BFFFF7B7F8206F10B12046BC
:103AF000216F88472046FFF73CFD012808D120466A
:103B0000FFF7E9FCFFF7B8F82846FCF7B1FB70BDFA
:103B1000FFF7B2F803E02846FCF7AAFBF7E72846D0
:103B2000FCF7A6FBA06AFFF7C9F82046FFF7C1FC27
:103B300000BFFDF745FD0028C0D100BFE7E700004A
:103B4000C00000201FB520200721C200074BCDE98F
:103B50000032CDE902100023054A06A1074800F013
:103B60000FF8064800F076F81FBD0000140600208C
:103B7000B13A00087469646C650000009C0500207F
:103B80002DE9FF5F05460C4616461F46DDE910ABE2
:103B9000DDE90E89224601212846FFF7BFFC3B469E
:103BA0003246214628468DE8000FFDF749FD04B056
:103BB000BDE8F09F70B50446204600F0C5F8054604
:103BC000284600F025F870BD70B5044694F834001E
:103BD00000F00F00022802D04FF0FF3070BDFCF75C
:103BE00043FB054604F11400FFF734FB04F14400E5
:103BF00000F0E2F92846FCF73BFB2046FFF704FD06
:103C00000020EBE70148006870470000B400002086
:103C100031B5FCF729FB05460D480468204600F045
:103C20002FF86A46002104F1440000F005F904F180
:103C3000440000F045F92846FCF71AFBFFF7A2FC08
:103C4000206B801C08B900202063002038BD0000D4
:103C5000B400002010B504463434A0786070617858
:103C6000012088406060022004F834092046FFF7F4
:103C7000ABFFFFF7C7FF08B1FFF784FC002010BDC2
:103C800070B5044694F8340000F00F00012802D00B
:103C90004FF0FF3070BDFCF7E7FA054694F83400AA
:103CA00020F00F0040F0020084F834002046FFF7B7
:103CB000D3FC04F1440000F07FF92846FCF7D8FA61
:103CC0000020E7E770B5044625466FF00100286341
:103CD00005F11400FFF7BEFA2846FFF795FCFFF741
:103CE00051FC70BD70B5FCF7BFFA05461448046876
:103CF00094F8340000F00F0001281CD1D4E905101D
:103D0000814218D004F11400FFF7A4FA94F835208A
:103D10000C4B03EBC20004F11401426811604268CD
:103D20004A604160086000BF2846FCF7A1FAFFF72F
:103D300029FC002070BD2846FCF79AFA0020F9E71C
:103D4000B4000020B40700200146002902DA4FF039
:103D5000FF3014E04FF47A7291FBF2F24FF47A7371
:103D600002FB03F01A4691FBF2F302FB13124FF42D
:103D70007A735A4302F2E73292FBF3F2104470472F
:103D800001480068704700005000002010B50A4844
:103D90000068401C08490860FFF734FF0446206CA7
:103DA000401E2064206C18B9E06B2064FFF79AFF76
:103DB00000F004F810BD00005000002070B5FFF7BF
:103DC000DFFF0546FCF750FA064628E01948006870
:103DD000A0F11404A06A281A6FF0004188421DD295
:103DE0002046FDF790FCD4E907108847FFF7C8FF8D
:103DF0000546607A00F0020058B1607A00F00100D8
:103E000038B1607A20F001006072204600F058F866
:103E100005E0607A20F00100607200E004E00548EF
:103E2000FFF7F5F90028D1D000BF3046FCF720FAA3
:103E300070BD0000C8000020034649B1012904D02C
:103E4000022908D0032910D10AE0586A10600CE05A
:103E50001068586209E0587A20F00200587204E0B5
:103E6000587A40F00200587200BF00BF002070472F
:103E700070B50446FCF7F8F905462046FDF743FC0B
:103E80002846FCF7F5F92046FFF725FB002070BD1A
:103E90002DE9F84307460C4615461E46DDE908891C
:103EA00022460A213846FFF739FB43463246294667
:103EB0003846CDF80090FDF705FCBDE8F88300001A
:103EC0002DE9F8430546FCF7CFF980462846FDF773
:103ED0001AFC687A20F0010068724046FCF7C8F9C5
:103EE000FFF74EFF696A0844A862FCF7BDF98046F7
:103EF0002F4F009700242AE019E05DF82420116874
:103F0000142202EBC402881A826AAB6AD21A00D168
:103F100008E0826AAB6AD21A6FF000439A4200D27C
:103F20000CE000BF5DF8240000684DF824005DF847
:103F3000240007EBC40149688842DED100BF2CB1E0
:103F40005DF824000830611C4DF82100641C002C31
:103F5000D2D018480068401C164908600846066818
:103F600005F114010098FFF73CF9022412E006F075
:103F7000030060B9C4F1010305F1140202EBC301AF
:103F8000C4F101025DF82200FFF72BF900E003E025
:103F9000B608641C012CEAD900BF687A40F0010021
:103FA00068724046FCF764F90020BDE8F883000021
:103FB000C8000020D000002070B50446607A00F0F0
:103FC000010010B94FF0FF3070BDFCF74DF9054608
:103FD0002046FDF798FB2846FCF74AF9607A20F066
:103FE000010060720020EFE72DE9FF4F89B08046A5
:103FF00044460A9808EB0006464504D24FF0FF36C7
:10400000A6EB08000A906FE10B980078252806D0EF
:10401000B44202D20B9800782070641C61E1002544
:1040200026E00B98401C0B900B9800782D2802D1AD
:1040300045F010051CE00B9800782B2802D145F0C4
:10404000040515E00B980078202802D145F00805FA
:104050000EE00B980078232802D145F0200507E0F8
:104060000B980078302802D145F0010500E000E00F
:10407000D7E700BF4FF0FF370B98007830380A2899
:1040800004D20BA800F09AF907460EE00B980078CE
:104090002A280AD10B98401C0B900C9880C80C90D1
:1040A000002F02DA7F4245F010054FF0FF390B98E0
:1040B00000782E281CD10B98401C0B900B98007890
:1040C00030380A2804D20BA800F078F981460AE0BB
:1040D0000B9800782A2806D10B98401C0B900C985E
:1040E00050F8049B0C90B9F1000F01DA4FF0000971
:1040F000002004900B980078682803D00B98007873
:104100006C2805D10B98007804900B98401C0B90FC
:104110000A2005900B9800786F2875D00CDC632876
:1041200013D004DC252870D058286FD18DE0642886
:104130006DD06928F9D18FE070286AD0732825D016
:10414000752878D07828F0D182E005F0100040B9C9
:1041500004E0B44201D220202070641C781E071EA7
:10416000F7DC0C9810F8041B0C90C8B20790B4420E
:1041700001D207982070641C04E0B44201D22020D0
:104180002070641C781E071EF7DCAAE00C980068FB
:1041900006900C98001D0C90069808B95CA006903B
:1041A0000698FFF745FB8346B9F1000F02DDCB45CA
:1041B00000DDCB4605F0100048B904E0B44201D25E
:1041C00020202070641C38467F1E5845F6DC0020F5
:1041D00008900BE0B44202D2069800782070641C6C
:1041E0000698401C06900898401C0890089858456E
:1041F000F0DB04E0B44201D220202070641C384679
:104200007F1E5845F6DC6CE01CE015E028E022E05B
:10421000FFE7781C10B9082745F00105CDE90079C2
:1042200002950C9804C8102331460C902046FEF7E6
:1042300003FC044655E012E0B44201D22520207070
:10424000641C4EE0082005901DE045F0400500BFCD
:104250001020059017E000BF45F0020500BF12E0F6
:10426000B44201D225202070641C0B98007830B134
:10427000B44202D20B9800782070641C02E00B98C4
:10428000401E0B902DE000BF04986C2807D10C98BD
:1042900050F804AB0C9005F00200B8B116E0049899
:1042A00068280BD10C9830F8041B1FFA81FA0C9087
:1042B00005F0020050B10FFA8AFA07E00C9850F8A6
:1042C00004AB0C9005F0020000B100BFCDE900790D
:1042D0000295524631462046059BFEF7ADFB04464B
:1042E00000BF0B98401C0B900B98007800287FF4BF
:1042F0008BAE0A9838B1B44202D20020207002E09E
:10430000002006F8010CA4EB08000DB0BDE8F08F0A
:10431000284E554C4C290000002070470020704763
:10432000002070470020704710B5FBF79DFFFEF797
:104330003DFDFFF725FAFFF759FBFFF719FBFEF7E5
:1043400047FCFFF761FBFFF7FDFBFFF737FB0020A2
:1043500010BD000070B5044609A0FEF713FFFEF77C
:10436000A7FA012802D12046FEF7B4F9FDF770FA4A
:1043700005462246294603A0FEF704FF70BD000053
:104380000A000000257325730000000070B5044684
:1043900025680CE0A5F11406314606A0FEF7F2FEF2
:1043A0002868A04202D004A0FEF7ECFE2D68A542CA
:1043B000F0D170BD257300002F00000001460020E1
:1043C00009E00B685A1C0A601A7800EB800302EBC4
:1043D0004302A2F130000A681278303A0A2AF0D378
:1043E000704710B503461A4601E0521C491C10786C
:1043F00028B1087818B110780C78A042F5D0D01AFE
:1044000010BD00008CB000231A4617A11848FFF712
:104410004DF927E04FF0FF311548FFF777F907A86E
:10442000FCF7F6F901281AD107A8807C07A9497C76
:1044300007AA127C07ABDB7BCDE90232CDE9041081
:1044400007A8807B07A9497BCDE9001007A8037B5B
:104450009DF8272007A00799FEF794FE02E013A01D
:10446000FEF790FED6E7000072785F73656D00007E
:10447000FC00002043414E3120524543563A25303E
:1044800032782D2530327820253032782025303290
:104490007820253032782025303278202530327847
:1044A00020253032782025303278000043414E31CB
:1044B00020524543563A6E6F0000000010B5FCF7DD
:1044C000B5FE012010BD000010B51EA0FEF75AFE7B
:1044D0002048018820A0FEF755FE1E48008800F005
:1044E000010010B122A0FEF74DFE1A48008800F02E
:1044F000020010B121A0FEF745FE1648008800F02A
:10450000040010B120A0FEF73DFE1248008800F024
:10451000080010B11EA0FEF735FE0E48008800F41A
:10452000807010B11CA0FEF72DFE0A48008800F430
:10453000007010B11BA0FEF725FE05A0FEF722FEBD
:1045400010BD00007573616765206661756C743A13
:104550000A0000002AED00E05343425F43465352F5
:104560005F554653523A30782530325820000000CB
:10457000554E444546494E5354522000494E5653D9
:104580005441544520000000494E5650432000003D
:104590004E4F435020000000554E414C49474E4578
:1045A0004420000044495642595A45524F200000C9
:1045B00010B5FFF7E5F8002010BD4FF04070E1EEB8
:1045C000100A704700000100020001000300010012
:1045D00002000100040001000200010003000100CC
:1045E00002000100050001000200010003000100BB
:1045F00002000100040001000200010003000100AC
:104600000200010006000100020001000300010099
:10461000020001000400010002000100030001008B
:10462000020001000500010002000100030001007A
:10463000020001000400010002000100030001006B
:104640000200010007000100020001000300010058
:10465000020001000400010002000100030001004B
:10466000020001000500010002000100030001003A
:10467000020001000400010002000100030001002B
:104680000200010006000100020001000300010019
:10469000020001000400010002000100030001000B
:1046A00002000100050001000200010003000100FA
:1046B00002000100040001000200010003000100EB
:1046C0000200010030313233343536373839616217
:1046D00063646566003031323334353637383941FA
:1046E0004243444546006C6973745F6D656D0068B4
:1046F000656C6C6F0076657273696F6E005F5F63E7
:104700006D645F76657273696F6E006C6973745F58
:10471000746872656164005F5F636D645F6C697388
:10472000745F746872656164006C6973745F73654B
:104730006D005F5F636D645F6C6973745F73656D5B
:10474000006C6973745F6D61696C626F78005F5FA4
:10475000636D645F6C6973745F6D61696C626F78BF
:10476000006C6973745F74696D6572005F5F636D7F
:10477000645F6C6973745F74696D6572006C6973F2
:1047800074005F5F636D645F68656C70005F5F639A
:104790006D645F7073005F5F636D645F6672656513
:1047A00000000000252D2A2E7320707269202073CE
:1047B00074617475732020202020207370202020C5
:1047C0002020737461636B2073697A65206D617852
:1047D0002075736564206C656674207469636B2052
:1047E000206572726F720A00254300081D4300089D
:1047F000BD44000819430008FD18000821430008C3
:10480000E646000865200008EF460008DD1D0008A8
:10481000F5460008B1450008FD460008B14500080E
:104820000B4700081522000817470008152200084A
:1048300029470008DD20000832470008DD20000875
:1048400041470008091F00084E470008091F0008DB
:1048500061470008F92300086C470008F9230008A5
:104860007D470008FD1D0008824700083D2800081C
:104870008D470008431800089647000835180008BF
:10488000A048000800000020EC000000C40100085F
:104890008C490008EC000020EC1D0000E00100083D
:1048A00000000000010203040102030406070809D6
:1048B000007A030A00000000000000000102030467
:1048C00006070809000000000000000000000000CA
:1048D00000000000000000000000000000000000D8
:1048E00000000000000000000000000000000000C8
:1048F00000000000000000000000000000000000B8
:1049000000000000000000000000000000000000A7
:1049100001000000740000207400002078000000F6
:10492000020000008400002084000020200000001D
:1049300005000000940000209400002030000000DA
:104940000A000000A4000020A40000202C000000A9
:104950000000000000000000000000000000000057
:104960000000000000000000000000000000000047
:104970000000000000000000000000000000000037
:0C4980000000000000000000000000002B
:040000050800018965
:00000001FF
