:020000040800F2
:10000000E020012095020008F1330008B703000842
:10001000ED330008012500082F4D00080000000006
:10002000000000000000000000000000833B00080A
:100030007D3200080000000003030008713C000846
:10004000AF020008AF020008AF020008AF020008CC
:10005000AF020008AF020008AF020008AF020008BC
:10006000AF020008AF020008AF020008AF020008AC
:10007000AF020008AF020008AF020008AF0200089C
:10008000AF020008AF020008AF020008AF0200088C
:100090005D260008AF020008AF020008AF020008AA
:1000A000AF020008AF020008AF020008CD3E000812
:1000B00039420008AF020008AF020008AF02000892
:1000C000AF020008AF020008AF020008AF0200084C
:1000D000AF020008AF020008E94A0008AF020008BA
:1000E000AF020008AF020008AF020008AF0200082C
:1000F000AF020008AF020008AF020008AF0200081C
:10010000AF020008AF020008AF020008AF0200080B
:10011000AF020008AF020008AF020008AF020008FB
:10012000212F0008AF020008AF020008AF0200084C
:10013000AF020008AF020008AF020008AF020008DB
:10014000AF020008AF020008AF020008AF020008CB
:10015000AF020008AF020008AF020008214B000800
:10016000AF020008AF020008AF020008AF020008AB
:10017000AF020008AF020008AF020008AF0200089B
:10018000AF020008AF02000800F002F800F072F8B9
:100190000AA090E8000C82448344AAF10107DA45E2
:1001A00001D100F067F8AFF2090EBAE80F0013F0C2
:1001B000010F18BFFB1A43F001031847B0BB000042
:1001C000D0BB00000A444FF0000C10F8013B13F0C4
:1001D000070408BF10F8014B1D1108BF10F8015BA0
:1001E000641E05D010F8016B641E01F8016BF9D193
:1001F00013F0080F1EBF10F8014BAD1C0C1B09D1EA
:100200006D1E58BF01F801CBFAD505E014F8016B5B
:1002100001F8016B6D1EF9D59142D6D370470000ED
:100220000023002400250026103A28BF78C1FBD8FF
:10023000520728BF30C148BF0B60704766290AF0DB
:100240003682732900F0B985002070471FB50AF087
:1002500024FA00F0FBFD04000020002109F052FD0B
:10026000401C60600020002109F036FDE0601FBDE9
:1002700010B510BD00F032FF1146FFF7E7FF01F0A7
:1002800064FB00F05EFF03B4FFF7F2FF03BC04F071
:10029000E3FE00000948804709480047FEE7FEE703
:1002A000FEE7FEE7FEE7FEE7FEE7FEE7FEE7FEE726
:1002B00004480549054A064B70470000413D0008C7
:1002C00089010008E01A0120E0200120E01C012043
:1002D000E01C0120EFF3108072B6704780F31088A5
:1002E0007047434A1368012B04D04FF00103136099
:1002F000404A1060404A116040484FF08051016010
:100300007047EFF3108272B63948016851B34FF06D
:10031000000101603748016891B1EFF309811EF0D7
:10032000100F08BF21ED108B21E9F00F4FF00004F2
:100330001EF0100F08BF012441F8044D0068016051
:100340002D490968096808C9B1E8F00F002B18BFEA
:10035000B1EC108B81F309884EF0100E002B18BF02
:100360002EF0100E82F310884EF0040E70472249D2
:100370000860EFF3148222F0040282F314881D490E
:100380004FF0000008601A494FF0010008601C4857
:100390004FF47F01D0F8002041EA020101601748C4
:1003A0004FF08051016017480068006880F30888AA
:1003B00061B662B670471EF0040F0CBFEFF3088001
:1003C000EFF3098020E9F00F40F804ED40F804ED68
:1003D0001EF0040F0CBF80F3088880F3098800B575
:1003E00006F07CFE5DF804EB4EF0040E7047000052
:1003F00080000020780000207C00002004ED00E058
:1004000020ED00E008ED00E0704700000FB41CB5DF
:10041000074B06AA7B4469460090059800F0A3FCB0
:100420000020694600F0B2FC1CBC5DF814FB000023
:100430007509000070B5044685690068C10601D5DC
:10044000302600E02026C00707D070BDD4E9012186
:1004500030469047206A401C20626D1EF6D570BD64
:1004600070B5044685690078C00707D170BDD4E92E
:10047000012120209047206A401C20626D1EF6D585
:1004800070BD70B50C460546012A05D02878800657
:1004900000D5EA69002302E0012305E05B1C9342DA
:1004A00002D2E05C0028F9D1A869E618C01AA86158
:1004B000286A184428622846FFF7BCFF04E0D5E903
:1004C000012114F8010B9047B442F8D32846FFF7F6
:1004D000C7FF70BD2DE9F05F894604464FF0000A62
:1004E000DFF824B1FB44C0F820A02046E16888472B
:1004F00000287DD0252806D0D4E901219047206A24
:10050000401C2062F1E700255F462046E1688847ED
:100510002028064607DB312E05D2B81910F8200C2A
:1005200008B10543F1E7A80701D525F00405C4F893
:100530001CA00027C4F818A02A2E09D0304604F0C9
:10054000C9FC38B304EB8708303EC8F8186019E0DE
:1005500059F8041B204604EB87029161E168884743
:10056000012F064618D1E069002820DA25F0200581
:100570001DE0D8F8180000EB800006EB4000303892
:10058000C8F818002046E1688847064604F0A2FC37
:100590000028EED1012F0AD02E2E08D12046E16886
:1005A00088477F1C0646022F45F02005C4DBA06962
:1005B000002803DA404245F00105A061E80701D0B8
:1005C00025F01005A6B1A6F14100192802D8203661
:1005D00045F400654A463146204625604D46FFF702
:1005E0002DFE60B1012807D0ED1D25F0070000E0C9
:1005F00007E000F1080978E705F1040975E73046DE
:100600007AE7206ABDE8F09FD1B6000070B50646D3
:1006100000F092F90468054630460A22002100F0F5
:10062000D0FB2C6070BD40EA0103024630B59B0749
:1006300010D14FF0013400E008C208C91D1B9D43D2
:1006400015EAC41FF8D013F0FF0102F8011B0DD00A
:100650001B0AF8E711F8013B002B02F8013B05D01B
:1006600011F8013B002B02F8013BF3D130BD10B56E
:10067000431C02E010F8011B71B18107FAD14FF061
:10068000013202C88C1A8C4314EAC211F9D0C01A84
:100690000A0603D0C01E10BDC01A10BD0A0401D046
:1006A000801E10BD0902FCD0401E10BD40EA0103AF
:1006B00070B59B072ED14FF00136042A2AD308C803
:1006C00010C99D1B9D43121F15EAC61517D0D8B23D
:1006D000E1B2401A50EA056110D198B2A1B2401AB5
:1006E00050EA05410AD123F07F4024F07F41401AAF
:1006F00050EA052102D1180EA0EB146070BDA34290
:10070000DBD018BA21BA884201D9012070BD4FF060
:10071000FF3070BD0AB9002070BD10F8013B11F820
:10072000014B63B1A3420AD1521E08D010F8013B1D
:1007300011F8014B1BB1A34201D1521EEDD1181B80
:1007400070BD421E12F8013F002BFBD111F8013B96
:10075000002B02F8013BF9D17047032A40F23080A8
:1007600010F0030C00F0158011F8013BBCF1020FF2
:10077000624498BF11F801CB00F8013B38BF11F873
:10078000013BA2F1040298BF00F801CB38BF00F88A
:10079000013B11F0030300F02580083AC0F0088007
:1007A00051F8043B083A51F804CBA0E80810F5E7EB
:1007B000121D5CBF51F8043B40F8043BAFF30080CE
:1007C000D20724BF11F8013B11F801CB48BF11F843
:1007D000012B24BF00F8013B00F801CB48BF00F813
:1007E000012B704710B5203AC0F00B80B1E81850CB
:1007F000203AA0E81850B1E81850A0E81850BFF40B
:10080000F5AF5FEA027C24BFB1E81850A0E81850A9
:1008100044BF18C918C0BDE810405FEA827C24BFFD
:1008200051F8043B40F8043B08BF7047D20728BF8B
:1008300031F8023B48BF11F8012B28BF20F8023BDA
:1008400048BF00F8012B70474FF000020429C0F0A8
:10085000128010F0030C00F01B80CCF1040CBCF1F2
:10086000020F18BF00F8012BA8BF20F8022BA1EB44
:100870000C0100F00DB85FEAC17C24BF00F8012B29
:1008800000F8012B48BF00F8012B70474FF0000221
:1008900000B5134694469646203922BFA0E80C5076
:1008A000A0E80C50B1F12001BFF4F7AF090728BF51
:1008B000A0E80C5048BF0CC05DF804EB890028BFCD
:1008C00040F8042B08BF704748BF20F8022B11F0F6
:1008D000804F18BF00F8012B704710B5044610F088
:1008E000030F08BF11F0030F40F015804FF0013ED9
:1008F000121FC0F20E8051F8043BA3EB0E0C2CEA41
:10090000030C1CEACE1C08BF40F8043BF0D0A1F158
:10091000040102F10402521E08DB11F8013B002B16
:1009200000F8013BF7D11146FFF78EFF204610BDBE
:10093000704770477047704700487047801A012021
:1009400070472DE9FF4F0C461E464FF0FF378BB026
:10095000D2E90001DDF860800A908A46C1F30A55A9
:1009600005B93D46002108464FF00000BAF1000FDE
:1009700000F4400005DA00EB80004FF4400101EA8A
:1009800050004FEA9059B9F1010F00DDB9460A98BD
:1009900050EA4A000ED044F61050A5F2FF35454308
:1009A0002F14B8F1000F1ED07542291E1EDDC9F1AB
:1009B00000021CE0B8F1010F4FF0000001D030211F
:1009C00003E0F24305E02154401CB042FBDB30461B
:1009D0000022002121540B99C1F80880C1E90020B0
:1009E0000FB0BDE8F08FBD1B6D1CDEE74A4600DA94
:1009F000694206A800F004FB06AB93E8070003ABCE
:100A000083E8070050460A9900F0E4FB8DE80700F0
:100A1000A0F500501F3800900398002D09DD42F228
:100A20001F014A46084403A90390684600F043FEAC
:100A300008E0A0F500504A461F3803A90390684615
:100A400000F04DFE8DE807000004000C03D04FF0CD
:100A5000FF30410800E01046B8F1000F03D000223B
:100A6000009215461EE0751E05D400F0F3F93032F1
:100A700062556D1EF9D5B3460122084302D000220B
:100A80007F1C04E02078302801D100227F1E002A3C
:100A9000099786D01DE0112D07DA00F0DBF930321E
:100AA00062556D1C50EA0102F5D1084302D000984E
:100AB000C8B10EE00021681E05E0235C625C63544F
:100AC0002254401E491C8142F7DBAB46A81B401E46
:100AD0000990002004F80B000B98099AC0F80880D0
:100AE000C0E9002B7CE711264FF0000859E72DE9FB
:100AF000F04F88460446D21D22F0070191B0D1E99B
:100B00000001CDE90A0104F09DF902460B98C00FDF
:100B100001D02D2007E02068810701D52B2002E0BD
:100B2000202101EAC000032A099001D0072A05DB31
:100B300003464146204600F0D3F90BE120788006B9
:100B400001D5E06900E00620B8F1650F814606D0C6
:100B5000B8F1660F18D0B8F1670F70D131E00020FE
:100B6000B9F1110F009001DB112301E009F101033C
:100B70000AAA01A90CA8FFF7E4FEDDE90C70002623
:100B800009F10105834647E001204B4600904FF0F4
:100B900000470AAA01A90CA8FFF7D3FEDDE90DB0B2
:100BA0000C995D46002610B909F101000D18B9EB4A
:100BB000050003D4C0F1FF3609F10105A5EB0900DA
:100BC0002BE0B9F1010F01DA4FF001090020B9F172
:100BD000110F0090484601DD112300E003460AAAE8
:100BE00001A90CA8FFF7ADFEDDE90C704D4600260B
:100BF0008346207800070AD4AB4500DA5D4601A899
:100C0000012D04DD411911F8011C302907D04F4591
:100C100002DA17F1040F04DA012082460FE06D1E9C
:100C2000EEE7002F02DCED1B3E4403E0781CA842F7
:100C300000DD7D1CB81B00F1010A4FF00047207851
:100C4000000703D4AA4501DB4FF0FF3A0021B7F1BA
:100C5000004F0DF143088DF8431024D002202B23C0
:100C6000002F01DA7F422D230A21021EA0F101008C
:100C700000DC5FB197FBF1FC97FBF1F201FB1C7C00
:100C800017460CF1300C08F801CDEEE7A8F1010091
:100C900003702188090501D5452100E06521A0F1F7
:100CA000010800F8011C09980FA9A1EB0807FF1D16
:100CB00000B10120411901EBEA70A1693844081A1A
:100CC000401EA0612078C00602D42046FFF7B2FB88
:100CD000099828B1D4E901219047206A401C20627C
:100CE0002078C00622D52046FFF7A4FB1EE0002E88
:100CF00004DBB34502DD01A8805D00E03020D4E9CB
:100D000001219047206A401C2062761CAAF1010054
:100D10005FEA000A0AD100F099F8C0680168405CF7
:100D2000D4E901219047206A401C2062281EA5F1C9
:100D30000105DCDC07E0D4E9012118F8010B90473C
:100D4000206A401C2062381EA7F10107F3DC204610
:100D5000FFF786FB032011B043E6000001694A1C3F
:100D600002610878704700B58FB0CDE901310021EC
:100D7000059105497944CDE9031011466846FFF70E
:100D8000A9FB0FB000BD0000E5FFFFFF0A6802F8F5
:100D9000010B0A60704710B5436913B1AFF30080CF
:100DA00001E0FFF76EFB012010BD127800F1240175
:100DB0000A7000224A700122EDE711684FF0FF32FD
:100DC000E9E72DE9F04791460F46804604460026A4
:100DD00014F8015B2DB100F031F80068405DC007E8
:100DE000F6D12B2D02D02D2D18D0641E4A4639463F
:100DF000204600F0B5F827B13968A14201D1C7F803
:100E000000804FF0020471050BD54042002803DD3D
:100E1000FFF792FD0460A007BDE8F08746F4806606
:100E2000E4E70028F8DAFFF787FD04606FF0004080
:100E3000F2E7000000487047801A012010B500F06A
:100E400005F8001D10BD00BFBD8E000000487047B2
:100E5000A01A012030B5B0F10A024FEA900E71F1EC
:100E600000034EEA817EB0EB0E0061EB91014FEA88
:100E7000101E4EEA017E10EB0E0041EB11114FEAFD
:100E8000102E4EEA016E10EB0E0041EB11214FEADD
:100E9000104E4EEA014E10EB0E0041EB114140188E
:100EA00041F100014FEAD00040EA41704FEAD10120
:100EB00010EB80054FEA810444EA907444EB01048E
:100EC0006D1944EB0404521BA3414FF0000348BFCB
:100ED0000A3200D530BD401C41F1000130BD000098
:100EE0002DE9F0411F46044603260168072A01F454
:100EF000006004DB08B116A505E016A503E008B103
:100F000015A500E015A521F010002060A069C01E05
:100F1000A0610FB1401EA0612046FFF78BFA4FB1D0
:100F2000D4E9012138469047206A401C2062C01C49
:100F3000206206E0206AFAE7D4E9012115F8010BE6
:100F40009047761EF8D22046FFF78AFABDE8F08176
:100F50004E414E006E616E00494E4600696E66005D
:100F60002DE9F05F824615468B4600270AF1010401
:100F7000B9460078302801D09DB113E014F8010B78
:100F80000127782803D0582801D045B10AE00DB1D7
:100F9000102D07D1002714F8010B102502E00825B9
:100FA00000E00A250026B0460EE005FB080005FB20
:100FB00006F101271FFA80F801EB1046B6F5803FD5
:100FC00000D3B94614F8010B294600F0ACF800280C
:100FD000EBDABBF1000F05D00FB1641E00E0544600
:100FE000CBF80040B9F1000F06D0FFF7A5FC0221B5
:100FF0000160C81EBDE8F09F48EA0640FAE700001D
:101000002DE9F047814616468AB0334878440DC82A
:101010008DE80D0030487844801C03AC0DC884E88E
:101020000D0041F69B300844372190FBF1F290FB14
:10103000F1F5A5F1800501FB12041B3C02D56442C9
:10104000012000E00020DFF890A080460027FA444D
:10105000AAF1BE0A0DE0E00709D03246684607EB68
:1010600047010AEB810100F03AFB8DE807006410AC
:101070007F1C002CEFD1184F7F44AC3F18E0E807ED
:1010800014D007EB04100DF1180A90E80E008AE85E
:101090000E00C068F04201D198190890324606A9A6
:1010A00003A800F01CFB03AB83E807006D10641C71
:1010B000002DE4D132466946B8F1000F03A802D0F2
:1010C00000F0F9FA01E000F00AFBC9E90001C9F8F3
:1010D00008200AB0BDE8F08738AC00007546FFF77D
:1010E000A9FEAE4605006946534620F00700854636
:1010F00018B020B5FFF7DCF8BDE820404FF000063F
:101100004FF000074FF000084FF0000B21F00701EF
:10111000AC46ACE8C009ACE8C009ACE8C009ACE832
:10112000C0098D4670473A2800D2303820F020029E
:10113000412A01D3A2F13700884201D34FF0FF309A
:10114000704710B50446AFF300802046BDE810405C
:10115000FFF799B84FF0013C50F8042B51F8043BCD
:101160009A4221D1A2EB0C03934313EACC1317D17B
:1011700050F8042B51F8043B9A4215D1A2EB0C0312
:10118000934313EACC130BD150F8042B51F8043BD2
:101190009A4209D1A2EB0C03934313EACC13DBD0A0
:1011A0004FF00000704700BFD01A01BAB1FA81F1C8
:1011B00001F0180122FA01F0CB40C1F12001DBB2AD
:1011C000C0B2C01A2CFA01F3D11A914311EAC3112B
:1011D000E6D170475FEA400C08BF91F0000F4FEA7C
:1011E0008C234FEAC12243EA51514FEA1C5018BFE9
:1011F00000F5F0404FEA300018BF41F000415FEACF
:101200006C5C00F02980BCF1FF3F08BF40F08040DB
:101210007047130C06BF12044FF0100C4FF0000C77
:10122000130E04BF12020CF1080C130F04BF1201BD
:101230000CF1040C930F04BF92000CF1020CD30FBD
:1012400004BF52000CF1010C11464FF00002A0F156
:101250001F00A0EB0C00704711F0004F08BF704753
:1012600031F000413FF4D5AF0B0C06BF09044FF03D
:10127000100C4FF0000C0B0E04BF09020CF1080C0F
:101280000B0F04BF09010CF1040C8B0F04BF890084
:101290000CF1020CCB0F04BF49000CF1010CCCF196
:1012A0002003A0EB0C0022FA03F302FA0CF241EA4D
:1012B000030100F10100704720F07F4C80EA030039
:1012C00023F07F47ACEB070303F57C5300F00040AD
:1012D00003F1FF032DE980494FEA154B09B44FEAAA
:1012E000144325EA0B4E24EA03480FF2042606EBCA
:1012F000132749083E785FEA320203FB0667C7F509
:10130000000707FB06F64FEA54374FEAD64606F1C8
:10131000020607FB066CCCF1005C4FEA1C472CEA86
:10132000074C07FB06F40CFB06F504EB15464FEAE9
:10133000961634BF00204FF000404FEAD13706FB2D
:1013400007FC4FEA1C4C0CFB0BF7D21B03FB0CF702
:1013500061EB07010CFB0EF7B0EB074072EB174295
:101360000CFB08F734BFA2EB0742B2EB074261EB7C
:1013700017414FEA0C444FEA910706FB07FC4FEA7E
:101380001C4C0CFB0BF7B0EBC74072EB573203FB66
:101390000CF734BFA2EBC742B2EBC74261EB573147
:1013A0000CFB0EF7B0EBC70072EB57720CFB08F7A3
:1013B00034BFA2EBC702B2EBC70261EB5771039FC8
:1013C0004FEA816141EA921104EBCC044FEAD13734
:1013D0004FEA826206FB07FC42EA90124FEA806005
:1013E0004FEA1C4C0CFB0BF7D21B03FB0CF761EB19
:1013F00007010CFB0EF7B0EB074072EB17420CFB3A
:1014000008F734BFA2EB0742B2EB074261EB17418A
:101410004FEA8C554FEA910704EB9C2406FB07FC2E
:101420004FEA1C4C0CFB0BF7B0EBC74072EB57328A
:1014300003FB0CF734BFA2EBC742B2EBC74261EB30
:1014400057310CFB0EF7B0EBC70072EB57720CFB79
:1014500008F734BFA2EBC702B2EBC70261EB5771CA
:1014600015EB4C254FEA816141EA92114FEA826205
:101470004FEAD13742EA901206FB07FC44F1000420
:101480004FEA80604FEA1C4C0CFB0BF7D21B03FBAE
:101490000CF761EB07010CFB0EF7B0EB074072EBAA
:1014A00017420CFB08F734BFA2EB0742B2EB07422E
:1014B00061EB174115EB1C154FEA813141EA92416E
:1014C0004FEA823242EA90424FEA80304FEA0C768D
:1014D00044F1000448EA03434EEA0B484FF0000E83
:1014E000B2EB080C71EB030724BF624639464EEBA2
:1014F0000E0E4FF0000B0018524149414BEB0B0B05
:10150000B2EB080C71EB03077BF1000B24BF6246C2
:1015100039464EEB0E0E4FF0000B00185241494178
:101520004BEB0B0BB2EB080C71EB03077BF1000BE1
:1015300024BF624639464EEB0E0E51EA020718BF31
:1015400046F0010616EB0E7655F1000254F100014B
:1015500003D5BDE88901BDE80088BDE88901BDE883
:101560000048B619524141EB0101A3F10103704754
:1015700080807F7E7D7C7B7A7978777676757473D0
:10158000727171706F6E6E6D6C6C6B6A6A6968688F
:10159000676666656464636362616160605F5F5E25
:1015A0005E5D5D5C5C5B5B5A5A595958585757569B
:1015B0005655555554545353525252515150505000
:1015C0004F4F4F4E4E4D4D4D4C4C4C4B4B4B4A4A52
:1015D0004A49494948484847474747464646454596
:1015E00045444444444343434342424242414141CF
:1015F000002B26D4770021D01CB54FEA370703B45F
:101600004FF010004FF010014FF000000FBCBDE88C
:1016100010400BF1010BBBF1010F08BF5FEA170788
:1016200022BF12F1010211F101014FF0004143F11B
:10163000000300F0004043EA00007047F9D3570868
:10164000DAE746EA064613F1400F4FEA16461FDD79
:1016500013F1200FDFBF16430A46002120335B42FF
:10166000C8D0C3F1200746EA064602FA07F74FEA58
:10167000164646EA0706C3F1200722FA03F201FAEA
:1016800007F721FA03F14FF0000342EA0702B1E73E
:1016900046EA020646EA06464FEA164646EA0106CA
:1016A000BCBF46EA0646360C4FF000034FF000027E
:1016B0004FF000019EE72DE9C048934630B491E811
:1016C000380007C831EA400C48BF34EA430C03D560
:1016D000FFF7F2FDFFF78CFFF0BCBDE800882DE9B5
:1016E000C048934630B491E8380007C810F0804FE6
:1016F00008BF13F0804F03D100F005F8FFF778FF23
:10170000F0BCBDE8008820F07F4780EA030023F0AA
:101710007F4C07EB0C03A3F57C5300F00040A3F1D2
:10172000FE0392F0000F00F0B38095F0000F00F080
:1017300077802DE901494FEA11404FEA144621EA2A
:10174000004800FB06FC24EA064708FB06F607FBF8
:1017500008F800FB07F718EB06484CEB164C4FEA6D
:10176000124B18EB07484FEA15464CEB174022EA9C
:101770000B4E0BFB06FC25EA06470EFB06F607FBA5
:101780000EFE0BFB07F71EEB064E4CEB164C4FF014
:1017900000061EEB074E4CEB174B18EB0B0840F105
:1017A000000018EB0E0B58EB000840F100008F1AF8
:1017B0004FF000013CBFC943661B14BFB5EB040CDE
:1017C00000213CBFC943F61B4FEA17444EEA8E0E78
:1017D00027EA04454FEA1C4704FB07622CEA074C42
:1017E00005FB07F70CFB05F604FB0CFC16EB0746A4
:1017F00042EB174216EB0C4642EB1C421BEB060673
:1018000058EB0202414146EA9E0601D5BDE8018936
:10181000B619524141EB0101A3F10103BDE8018971
:101820004FEA14454FEA114724EA054621EA074CDE
:1018300005FB07F406FB07F70CFB06F105FB0CFCA8
:1018400011EB074144EB17444FEA124711EB0C41EF
:1018500044EB1C4422EA074C05FB07F206FB07F7A2
:101860000CFB06F605FB0CFC16EB074642EB174299
:1018700016EB0C4642EB1C456A1854F1000148BFB8
:101880007047B619524141EB0101A3F101037047C2
:1018900095F0000F37D04FEA11424FEA144721EA82
:1018A000024624EA074C02FB07F106FB07F70CFB94
:1018B00006F402FB0CFC14EB074441EB17414FEA22
:1018C000154714EB0C4441EB1C4125EA074C02FB85
:1018D00007F506FB07F70CFB06F602FB0CFC16EB04
:1018E000074645EB174516EB0C4645EB1C42121913
:1018F00051F1000148BF7047B619524141EB010157
:10190000A3F1010370474FEA14454FEA114724EA57
:10191000054621EA074C05FB07F106FB07F70CFB20
:1019200006F24FF0000605FB0CFC12EB074241EB00
:10193000174112EB0C4251EB1C4148BF7047921803
:1019400041EB0101A3F10103704710B507F01EF947
:10195000002010BD10B500F0FFF800F027F800F0EF
:10196000BFF810BD21B1826842F00102826003E03D
:10197000826822F001028260704700000021084A5C
:101980001168084A1140D0E900231A4383681A43BA
:10199000C3681A431143044AC2F804137047000095
:1019A00004230140E030FCFF0020014000B58BB073
:1019B0000121080201F0BEFE002007904FF4706084
:1019C0000A90002009904FF48030089007A8FFF794
:1019D000D5FF0020019001208DF8080000208DF82F
:1019E0000900039005900D208DF818000020049048
:1019F00001A92F4800F0E0F80623012200212C481D
:101A000000F004F9062302220121294800F0FEF823
:101A1000062303220221264800F0F8F806230422B8
:101A20000321234800F0F2F8062305220421204870
:101A300000F0ECF806231A4605211D4800F0E6F8F0
:101A40000623072219461A4800F0E0F80623082268
:101A50000721174800F0DAF8062309220821144864
:101A600000F0D4F806230A220921114800F0CEF82C
:101A700006230B220A210E4800F0C8F806230C2288
:101A80000B210B4800F0C2F806230D220C21084858
:101A900000F0BCF80121064800F017F801210448C5
:101AA00000F008F801210248FFF75CFF0BB000BD11
:101AB0000020014021B1826842F48072826003E01C
:101AC000826822F480728260704721B1826842F499
:101AD0000072826003E0826822F4007282607047C4
:101AE00000B58FB00121880501F0F4FD174801F021
:101AF0004DFA00BF154801F0F5FA0028FAD1009020
:101B00001348019013480290002003900D20049088
:101B1000002005904FF48060069040000790800000
:101B200008904011099000020A9000200B900320B9
:101B30000C9000200D900E906946044801F0FEFACA
:101B40000121024801F016FA0FB000BD10640240F6
:101B50004C200140721300201CB50121072001F028
:101B6000B9FDFF20009003208DF8040000208DF8BF
:101B7000070069460D4801F082FB032000908DF8B4
:101B8000040000208DF807006946094801F077FB42
:101B90000720009003208DF8040000208DF8070036
:101BA0006946044801F06BFB1CBD000000000240C8
:101BB000000402400008024030B502460020002325
:101BC0005068104C20400D790C6844EA05242043ED
:101BD000506090680C4C2040D1E903542C438D6830
:101BE0002C434D7944EA450420439060D06A20F4A8
:101BF00070000C7D641EE4B2234340EA0350D062BF
:101C000030BD0000FFFEFFFCFDF7FFC0F0B504464D
:101C10000D4600200021092D11DDE068A5F10A061E
:101C200006EB4607072606FA07F18843A5F10A06E0
:101C300006EB460603FA06F10843E0600CE0206973
:101C400005EB4507072606FA07F1884305EB45062D
:101C500003FA06F108432061072A0FDA606B561E6B
:101C600006EB86071F2606FA07F18843561E06EB89
:101C7000860605FA06F10843606322E00D2A0FDAB2
:101C8000206BD61F06EB86071F2606FA07F188434E
:101C9000D61F06EB860605FA06F10843206310E01E
:101CA000E06AA2F10D0606EB86071F2606FA07F189
:101CB0008843A2F10D0606EB860605FA06F10843F5
:101CC000E062F0BD816841F08041816070470000B2
:101CD00010B50446012C04D1FF21064801F036FF5F
:101CE00010BD022C04D1FF21024801F02FFFF7E7BD
:101CF0000020F5E7003C00402DE9F0412DED0C8B74
:101D0000B0EE408A00264FF4167465002F4649480D
:101D100090ED000AB4EEC80AF1EE10FA08DC00EB10
:101D2000850090ED000AB4EEC80AF1EE10FA05D273
:101D30009FED410ABDEC0C8BBDE8F08175E0A81960
:101D400000EBD071C1F34F043A4800EB870090EDEF
:101D5000000AB4EE480AF1EE10FA02D19FED370AFC
:101D6000E8E7344800EB840090ED000AB4EEC80ABE
:101D7000F1EE10FA4DD82F49601C01EB800090ED78
:101D8000000AB4EEC80AF1EE10FA3FDD601C01EB68
:101D9000800090ED000A084600EB8400D0ED000AB8
:101DA00030EE600A084600EB8400D0ED000A78EEC1
:101DB000600A9FED231A60EE810A80EE801A11EE10
:101DC000108A404608F0F8FB41EC1A0B204608F058
:101DD000F8F941EC1D0B9FED1B0B53EC102B08F099
:101DE00003FA41EC1C0B9FED190B53EC102B07F081
:101DF000D1FF41EC1B0B53EC1A2B07F0CBFF41EC4E
:101E0000190B07F095FF00EE100A93E7601C86B2ED
:101E10000BE0084800EB840090ED000AB4EEC80A1D
:101E2000F1EE10FA01DD601E85B2B54287DA9FED52
:101E3000020A7FE7FCA6000800007F430000C842BA
:101E4000CDCCCC3D9A9999999999B93F0000000061
:101E5000000034C070B504460D46012C0ED105F0CB
:101E60000F0000F120010F4801F070FE00210D4825
:101E700001F06CFE2046FFF72BFF70BD022C0ED147
:101E800005F00F0000F12001064801F05FFE00217F
:101E9000044801F05BFE2046FFF71AFFEDE7002043
:101EA000EBE70000003C004070B504460D461646C6
:101EB000012C0FD105F00F0000F140010E4801F098
:101EC00045FE00210C4801F041FE31460A4801F070
:101ED0003DFE10E0022C0ED105F00F0000F1400194
:101EE000054801F033FE0021034801F02FFE314682
:101EF000014801F02BFE70BD003C004010B50446C7
:101F0000204606F0FBF910BD7CB50446012C7DD1BE
:101F100001211A2001F0DEFB00208DF804008DF86D
:101F2000060003208DF8050001208DF80700102021
:101F3000009069468A4801F0A2F901208DF804005A
:101F400000208DF8060003208DF8050001208DF893
:101F50000700082000906946824801F090F90820A7
:101F6000009069467E4801F08AF908200090694691
:101F70007D4801F084F91020009069467A4801F00C
:101F80007EF90821764801F0EEF90821754801F044
:101F9000EAF90420FFF7B2FF0821714801F0E5F9E2
:101FA0000821704801F0E1F91420FFF7A7FF012193
:101FB0006E4801F005FD06216C4801F0C7FD642064
:101FC000FFF79CFF302202212046FFF76DFF002221
:101FD00001212046FFF768FF89220B212046FFF7E9
:101FE00063FF0A2211462046FFF75EFF32220321DB
:101FF0002046FFF759FF02212046FFF72BFF054639
:1020000001212046FFF726FF054600E013E00B21E3
:102010002046FFF71FFF05460A212046FFF71AFF5B
:10202000054603212046FFF715FF054600BF0121A5
:102030004E4801F0A3FC022C7ED101210D2001F0BD
:1020400049FB00208DF804008DF8060003208DF870
:10205000050001208DF8070000906946404801F016
:102060000EF901208DF8040000208DF806000320F1
:102070008DF8050001208DF80700042000906946C6
:10208000374801F0FCF8A00300906946384801F099
:10209000F6F8200200906946364801F0F0F8E001B9
:1020A00000906946324801F0EAF8A103304801F097
:1020B0005AF904212A4801F056F90420FFF71EFFBF
:1020C000A1032B4801F051F90421254801F04DF9F5
:1020D0001420FFF713FF0221244801F071FC0621B0
:1020E000224801F033FD6420FFF708FF302202216F
:1020F0002046FFF7D9FE002201212046FFF7D4FE3B
:1021000089220B212046FFF7CFFE0A2211462046E6
:10211000FFF7CAFE322203212046FFF7C5FE022147
:102120002046FFF797FE054601212046FFF792FE65
:1021300005460B21204600E011E0FFF78BFE054627
:102140000A212046FFF786FE054603212046FFF7B9
:1021500081FE054600BF0221044801F00FFC7CBD52
:10216000000C02400004024000100240003C00400D
:1021700000000240000802402DE9F0472DED028BDF
:1021800080468946B2EE000AF0EE408AB8F1010FAF
:1021900074D10821C14801F0E8F80121C04801F0DC
:1021A0000FFCB9F1010F09D0B9F1020F1AD0B9F142
:1021B000030F2BD0B9F1040F50D13BE00821B948EF
:1021C00001F0D1F81021B74801F0CDF80A20FFF74F
:1021D00095FE3E2200214046FFF766FE0A20FFF7EB
:1021E0008DFE3CE00821AF4801F0BFF81021AD485A
:1021F00001F0B9F80A20FFF781FE2C2200214046A9
:10220000FFF752FE0A20FFF779FE28E00821A548D3
:1022100001F0A9F81021A34801F0A7F80A20FFF760
:102220006DFE082200214046FFF73EFE0A20FFF720
:1022300065FE14E008219B4801F097F810219948A9
:1022400001F093F80A20FFF759FE1A2200214046B8
:10225000FFF72AFE0A20FFF751FE00E000BF00BF93
:102260006420FFF74BFE10218F4801F073F830B166
:102270009FED8E0ABDEC028BBDE8F08746E012218F
:10228000874801F063FCFF21854801F05FFC0546AB
:10229000FF21834801F05AFC0646FF21804801F0E7
:1022A00055FC0746FF217E4801F050FC2C462402D5
:1022B000344324023C4300EE104AB8EE400AB0EE2C
:1022C000408A88EE280AB0EE408ADFED790A88EE6F
:1022D000200ADFED780A20EE200AF0EE000A20EE58
:1022E000200AB0EE408A9FED740A28EE000AB0EE94
:1022F000408AFF216A4801F029FC0121684801F069
:102300003DFBB0EE480AFFF7F7FCB3E7B8F1020F68
:1023100079D10421644801F028F80221604801F0D5
:102320004FFBB9F1010F09D0B9F1020F1CD0B9F17F
:10233000030F2FD0B9F1040F58D141E04FF40071D1
:102340005E4801F010F84FF480715D4801F00BF821
:102350000A20FFF7D3FD3E2200214046FFF7A4FDEF
:102360000A20FFF7CBFD42E04FF40071534800F024
:10237000FCFF4FF48071524800F0F5FF0A20FFF790
:10238000BDFD2C2200214046FFF78EFD0A20FFF7FD
:10239000B5FD2CE04FF40071484800F0E4FF4FF425
:1023A0008071474800F0E1FF0A20FFF7A7FD0822EF
:1023B00000214046FFF778FD0A20FFF79FFD16E059
:1023C0004FF400713D4800F0D0FF4FF480713C485D
:1023D00000F0CBFF0A20FFF791FD1A2200214046B2
:1023E000FFF762FD0A20FFF789FD00E000BF00BF94
:1023F0006420FFF783FD01212B4800F0ABFF18B1EB
:102400009FED2A0A36E746E01221254801F09EFB9F
:10241000FF21234801F09AFB0546FF21204801F0E7
:1024200095FB0646FF211E4801F090FB0746FF2161
:102430001B4801F08BFB2C462402344324023C430E
:1024400000EE104AB8EE400AB0EE408A88EE280A44
:10245000B0EE408ADFED160A88EE200ADFED150A9D
:1024600020EE200AF0EE000A20EE200AB0EE408AAC
:102470009FED140A28EE000AB0EE408AFF210848BA
:1024800001F064FB0221064801F078FAB0EE480A38
:10249000FFF732FCEEE69FED050AEBE60004024092
:1024A000003C004000100240000C024000007F434E
:1024B000FEFFFF4A00401C463B01853F00080240EA
:1024C00000000240A245863F02469FED0C0AF0EE56
:1024D000400A002008E002EB800393ED000A30EE92
:1024E000200AF0EE400A401C8842F4D300EE101A95
:1024F000B8EE401A80EE810A70470000000000002C
:1025000000BFFEE700B58BB000F03CFF3E4908601D
:102510000121084601F0DEF809220B213B4800F0BA
:10252000F6FE09220C21394800F0F1FE4FF4C050AC
:10253000099002208DF829008DF8280000208DF8E0
:102540002A0001208DF82B0009A9304800F097FEE1
:102550000121480601F0CEF82D4800F0E3F806A866
:1025600000F08BFA00208DF81E008DF81F008DF80A
:1025700020008DF821008DF822008DF823008DF8C1
:102580001A008DF81B000B208DF81C0007208DF819
:102590001D000420ADF8180006A91D4800F06BF9D5
:1025A00000208DF80E0001208DF80F008DF810002E
:1025B0000020ADF80400ADF806001348007840078D
:1025C000000EADF808000020ADF80A00ADF80C00D0
:1025D00001208DF8110001A800F0C0F801220221AD
:1025E0000B4800F03FF914208DF8140000208DF8FE
:1025F00015008DF8160001208DF8170005A800F0D1
:10260000F9FE0BB000BD00003C00002000000240BD
:102610000064004010B504460F48D0F80001A17ACC
:102620000844FF2801D9002010BDA27A0A49D1F838
:102630000011094BC81804F10B01FEF78EF806488B
:10264000D0F80001A17A08440349C1F800012068CC
:10265000C1F804010120E7E7F80D002000B585B0BE
:102660006A460021054800F090F96846FFF7D2FF5E
:10267000034805F0C3FA05B000BD00000064004047
:10268000940100202DE9F04186B006460F4615461C
:102690002846EA1705EB5272D2102946EB1705EBD4
:1026A0005373DB10A5EBC3030BB1012300E0002340
:1026B00002EB030801960120029000208DF80D0026
:1026C0008DF80C00002424E0A5EBC400082801DDEF
:1026D000082001E0A5EBC400024607EBC4010DF1A0
:1026E0000F00FEF73AF8A5EBC400082801DD08202A
:1026F00001E0A5EBC400C0B28DF80E0002E001209D
:1027000000F05EFA01A9064800F0C7F90428F6D0E7
:10271000641C4445D8DB012006B0BDE8F081000010
:102720000064004010B504460B48844209D10121E1
:10273000480600F0EFFF00214FF0007000F0EAFFC4
:1027400008E00121880600F0E5FF00214FF08060DD
:1027500000F0E0FF10BD00000064004010B5002153
:10276000837A012202FA03F13D4A126842F0010223
:102770003B4B1A603A4A1C3212688A43384B1C336E
:102780001A60027BCAB9364A0C3212688A43344B4B
:102790000C331A604288C38842EA0343304A40320D
:1027A000847A42F834300288838842EA03432C4A10
:1027B0004032847A02EBC4025360027B012A19D1B1
:1027C000274A0C3212680A43254B0C331A604288A0
:1027D000038842EA0343224A4032847A42F8343082
:1027E000C288838842EA03431D4A4032847A02EB5E
:1027F000C4025360C27A3AB9194A121D12688A4358
:10280000174B1B1D1A6006E0154A121D12680A4379
:10281000134B1B1D1A60028932B9114A1432126817
:102820008A430F4B14331A600289012A06D10C4ADD
:10283000143212680A430A4B14331A60427B012A8D
:1028400006D1074A1C3212680A43054B1C331A6032
:10285000034A126822F00102014B1A6010BD000009
:10286000006600401AB143690B43436102E04369CB
:102870008B434361704730B5024600200023146843
:1028800024F002041460146844F00104146000E0B1
:102890005B1C546804F001041CB94FF6FF74A3429A
:1028A000F6D1546804F001040CB900206CE08C7976
:1028B000012C04D1146844F08004146003E014680F
:1028C00024F080041460CC79012C04D1146844F005
:1028D0004004146003E0146824F0400414600C7A8F
:1028E000012C04D1146844F02004146003E014683F
:1028F00024F0200414604C7A012C04D1146844F0B4
:102900001004146003E0146824F0100414608C7A3E
:10291000012C04D1146844F00804146003E0146826
:1029200024F008041460CC7A012C04D1146844F01B
:102930000404146003E0146824F0040414608C7828
:10294000A407CD7844EA05640D7944EA05444D793D
:1029500044EA05540D886D1E2C43D461146824F09C
:1029600001041460002300E05B1C546804F00104BF
:102970001CB14FF6FF74A342F6D1546804F0010471
:102980000CB1002000E0012030BD10B500F5D87377
:1029900003EB01131B6803F004031372137A53B99A
:1029A00000F5D87303EB01131B6840F2FF7404EACF
:1029B0005353136009E000F5D87303EB01131B6850
:1029C0006FF0604404EAD303536000F5D87303EB5F
:1029D00001131B6803F00203537200F5D87303EB75
:1029E00001135B6803F00F03937200F5D87303EBD8
:1029F00001135B681B0AD37400F5D87303EB011352
:102A00009B68D37200F5D87303EB01139B681C0A13
:102A1000147300F5D87303EB01139B681C0C5473FB
:102A200000F5D87303EB01139B681B0E937300F53D
:102A3000D87303EB0113DB68D37300F5D87303EB92
:102A40000113DB681C0A147400F5D87303EB01133F
:102A5000DB681C0C547400F5D87303EB0113DB68BE
:102A60001B0E937421B9C36843F02003C36003E0D5
:102A7000036943F02003036110BD00218171C1711E
:102A8000017241728172C1728170C1700321017142
:102A90000221417101210180704710B502460020DA
:102AA000936803F08063B3F1806F00D110E0936806
:102AB00003F00063B3F1006F01D1012008E09368D7
:102AC00003F08053B3F1805F01D1022000E00420C5
:102AD000042874D002F5C07303EB00131B6803F0E5
:102AE000010402F5C07303EB00131C600B7A7BB981
:102AF0004B7A0C8843EA445302F5C07404EB00148B
:102B00002468234302F5C07404EB0014236010E032
:102B10000B7A4C6843EAC4034C7A234302F5C07431
:102B200004EB00142468234302F5C07404EB001482
:102B300023608B7A03F00F038B7202F5C07303EBF3
:102B400000135B6823F00F0402F5C07303EB00135E
:102B50005C6002F5C07303EB00135B688C7A23435F
:102B600002F5C07404EB001463608B7B1C064B7B86
:102B700044EA03440B7B44EA0323CC7A234302F563
:102B8000C07404EB0014A3608B7C1C064B7C44EAED
:102B900003440B7C44EA0323CC7B234302F5C0743B
:102BA00004EB0014E36002F5C07303EB00131B6831
:102BB00043F0010402F5C07303EB00131C6010BD69
:102BC00010B50446204605F099FB10BD30B504460B
:102BD0000D46202D05D120784C2802D16078502850
:102BE00002D04FF0FF3030BDE81E225C691FA01CF0
:102BF00006F047F8002802DA6FF00100F3E7012041
:102C0000F1E710B502460B460020002103E0545CBA
:102C10000444E0B2491C9942F9DB10BD1CB50A20FE
:102C200003214FF400730022CDE900104C494DA060
:102C300005F059FA04461CB1204605F0BBFB02E042
:102C40004CA004F005FC0A2003214FF4007300227D
:102C5000CDE90010504951A005F045FA04461CB1D9
:102C6000204605F0A7FB02E050A004F0F1FB0A208B
:102C700003214FF400730022CDE90010544955A000
:102C800005F031FA04461CB1204605F093FB02E042
:102C900054A004F0DDFB0A2003214FF4007300224E
:102CA000CDE90010584959A005F01DFA04461CB1A1
:102CB000204605F07FFB02E058A004F0C9FB0A2083
:102CC00003214FF400730022CDE900105C495DA0A0
:102CD00005F009FA04461CB1204605F06BFB02E042
:102CE0005CA004F0B5FB0A2003214FF4007300221E
:102CF000CDE90010604961A005F0F5F904461CB16A
:102D0000204605F057FB02E060A004F0A1FB0A207A
:102D100003214FF400730022CDE90010644965A03F
:102D200005F0E1F904461CB1204605F043FB02E042
:102D300064A004F08DFB0A2003214FF4806300227D
:102D4000CDE90010684969A005F0CDF904461CB131
:102D5000204605F02FFB02E068A004F079FB1CBDC3
:102D6000A98C00087461736B315F7468726561646B
:102D700000000000637265617465207461736B31DB
:102D80005F7468726561642074687265616420664E
:102D900061696C6564210A000D8E00087461736BB3
:102DA000325F74687265616400000000637265617F
:102DB0007465207461736B325F746872656164203E
:102DC000746872656164206661696C6564210A00DB
:102DD000A18F00087461736B335F746872656164FE
:102DE00000000000637265617465207461736B3369
:102DF0005F746872656164207468726561642066DE
:102E000061696C6564210A00859000087461736BC8
:102E1000345F74687265616400000000637265610C
:102E20007465207461736B345F74687265616420CB
:102E3000746872656164206661696C6564210A006A
:102E4000699100087461736B355F746872656164C1
:102E500000000000637265617465207461736B35F6
:102E60005F7468726561642074687265616420666D
:102E700061696C6564210A004D9200087461736B8E
:102E8000365F74687265616400000000637265619A
:102E90007465207461736B365F7468726561642059
:102EA000746872656164206661696C6564210A00FA
:102EB000FD9200087461736B375F746872656164BA
:102EC00000000000637265617465207461736B3784
:102ED0005F746872656164207468726561642066FD
:102EE00061696C6564210A00719600087461736BF6
:102EF000385F746872656164000000006372656128
:102F00007465207461736B385F74687265616420E6
:102F1000746872656164206661696C6564210A0089
:102F200010B50549054800F0E7F8012803D102492A
:102F3000024800F005F810BD208000101064024027
:102F40000246094B9A4201D2084801E0064810386F
:102F500001F000531BB1064B0B40C36002E0044B71
:102F60000B40836070470000106402400060024024
:102F70007D0F7D0F21B1026842F00102026003E083
:102F8000026822F00102026070470000016821F02F
:102F9000010101600021016041608160C160016147
:102FA000212141614A49884204D13D21484A103AD1
:102FB00091608CE046491831884205D14FF4746124
:102FC000434A103A916082E041493031884205D14C
:102FD0004FF474113E4A103A916078E03C49483110
:102FE000884205D14FF07461394A103A91606EE021
:102FF00037496031884204D13649354A103AD160A8
:1030000065E033497831884204D13349304A103A77
:10301000D1605CE02E499031884204D12F492C4A7E
:10302000103AD16053E02A49A831884205D14FF0C7
:103030003D51274A103AD16049E02949884204D1DC
:103040003D21274A083A116041E02549183188425C
:1030500005D14FF47461224A083A116037E02049E3
:103060003031884205D14FF474111D4A083A11607D
:103070002DE01B494831884205D14FF07461184A50
:10308000083A116023E016496031884204D11149A1
:10309000134A121F11601AE011497831884204D195
:1030A0000D490F4A121F116011E00D4990318842FD
:1030B00004D10A490A4A121F116008E00849A831E0
:1030C000884204D14FF03D51054A121F11607047EC
:1030D000106002403D000020400F002000003D2015
:1030E00010640240014600200A6802F001020AB1A1
:1030F000012000E00020704730B503460A4600205A
:1031000000240B4DAB4201D20A4901E008491039B5
:1031100002F000550DB14C6800E00C68064D2C40E3
:1031200004EA02050DB1012000E0002030BD0000DE
:1031300010640240006002407D0F7D0F10B5002238
:103140000268134B1A40CC680B6823434C69234335
:103150008C692343CC6923430C6A23434C6A234381
:103160008C6A23434C6B23438C6B23431A430260CA
:10317000426922F00702D1E90B3423431A4342612A
:103180000B6943604B6883608B68C36010BD0000AF
:103190003F801CF010B50421194800F049F84FF4A5
:1031A0008071184800F044F84FF40061154800F0B1
:1031B0003FF84FF40041124800F03AF84FF48041D4
:1031C0000F4800F035F84FF480510D4800F030F80A
:1031D00020210B4800F02CF84021094800F028F885
:1031E0004FF48061074800F023F84FF480610648EF
:1031F00000F01EF82021054800F01AF810BD00006C
:103200000010024000040240000C0240000802408E
:1032100070B505460E46144624B93146284600F0DE
:10322000A2F803E03146284600F09FF870BD000088
:103230007CB504460D461048201A282190FBF1F079
:10324000192190FBF1F1012000FA01F6012130462D
:1032500000F040FA009503208DF8050001208DF85C
:10326000040000208DF8060001208DF80700694653
:10327000204600F004F87CBD000002407047F0B525
:103280000A4600210023002400BF3DE0012505FA85
:1032900001F3156805EA03049C4234D105684F0028
:1032A0000326BE40B543056015794E00B54006685B
:1032B000354305601579012D02D01579022D16D1FF
:1032C00085684F000326BE40B543856055794E00A2
:1032D000B540866835438560456801268E40B54314
:1032E0004560456896798E40B6B235434560C568FD
:1032F0004F000326BE40B543C560D5794E00B540AA
:10330000C6683543C560491C1029BFD3F0BDF0B570
:10331000002300244D07ED0E02FA05F3CE1000F154
:10332000200555F826504E07F70E0F26BE40B54330
:10333000CF1000F1200646F82750CE1000F12005EE
:1033400055F8265045EA0304CE1000F1200545F853
:103350002640F0BD0246002013690B400BB101204E
:1033600000E0002070474183704701837047426945
:103370004A40426170470000014800687047000001
:103380003C000020002007207047000010B50421F9
:103390000148FFF7ECFF10BD001002402DE9F0419D
:1033A00004460E4617469846069D4C202070502035
:1033B0006070A670E77084F804806571290AA171B5
:1033C000290CE171290E2172002060720021A17286
:1033D000E17221730B21A01CFFF713FC60730D2019
:1033E000A0730A20E0730120BDE8F08100BFFEE772
:1033F0007047000070B5002100230F22C4781CB371
:10340000174C246804F4E064C4F5E064C4F30721B5
:10341000C1F10404E3B20A4144789C40E1B28478EB
:10342000144021430C07210E0E4C05786155047899
:1034300004F01F050124AC4005786D11AD0005F1C5
:10344000E025C5F8004109E0047804F01F050124D7
:10345000AC40054D0678761145F8264070BD000059
:103460000CED00E000E400E080E100E09FED180AD0
:1034700080ED000A9FED160A80ED010A9FED140A07
:1034800080ED020A9FED120A80ED030A9FED100AFB
:1034900080ED040A9FED0E0A80ED050A9FED0C0AEF
:1034A00080ED060A9FED0A0A80ED070A9FED080AE3
:1034B00080ED080A9FED060A80ED090A9FED040AD7
:1034C00080ED0A0A9FED020A80ED0B0A70470000AA
:1034D0000000000000B54948FFF7C8FF9FED480A0B
:1034E000464880ED000A9FED470A80ED050A9FEDF2
:1034F000460A80ED060A9FED440A80ED070A9FED1B
:10350000430A80ED0A0A9FED400A80ED0B0A40480D
:10351000FFF7ACFFB0EE040A3D4880ED000A9FEDD6
:103520003D0A80ED050A9FED380A80ED060A9FED01
:10353000360A80ED070A9FED340A80ED0A0A9FEDF6
:10354000360A80ED0B0A3548FFF790FF9FED340AED
:10355000324880ED000A9FED2B0A80ED050A9FEDB1
:103560002A0A80ED060A9FED280A80ED070A9FEDE2
:10357000270A80ED0A0A9FED240A80ED0B0A2948EC
:10358000FFF774FF9FED260A264880ED000A9FEDA5
:103590001D0A80ED050A9FED1C0A80ED060A9FEDCD
:1035A0001A0A80ED070A9FED190A80ED0A0A9FEDBD
:1035B000160A80ED0B0A1C48FFF758FF9FED180A0A
:1035C000194880ED000A9FED0F0A80ED050A9FED76
:1035D0000E0A80ED060A9FED0C0A80ED070A9FEDAA
:1035E0000B0A80ED0A0A9FED080A80ED0B0A0F48CE
:1035F000FFF73CFF0E48FFF739FF00BD8C1300209A
:103600009A991E4200401C460000000000400346FC
:10361000BC1300200050C346004003C6EC1300203A
:10362000000014421C1400204C1400207C140020C4
:10363000AC14002090ED000AD0ED010A30EE600AD3
:1036400080ED020A90ED090AD0ED020A30EE200A60
:1036500080ED090A90ED050AD0ED020A20EE200A5D
:10366000D0ED060A90ED091A00EE810AD0ED020AAB
:1036700090ED031A70EEC10A90ED071A01EE200AD0
:1036800080ED080A90ED020A80ED030A90ED080A29
:10369000D0ED0A0AB4EEE00AF1EE10FA02DD90ED88
:1036A0000A0A01E090ED080A80ED080A90ED080A88
:1036B000D0ED0B0AB4EEE00AF1EE10FA02D290ED72
:1036C0000B0A01E090ED080A80ED080A90ED080A67
:1036D0007047000029B1064A12680243044B1A6081
:1036E00004E0034A12688243014B1A6070470000ED
:1036F0003038024029B1064A12680243044B1A606E
:1037000004E0034A12688243014B1A6070470000CC
:103710004038024029B1064A12680243044B1A603D
:1037200004E0034A12688243014B1A6070470000AC
:103730002038024029B1064A12680243044B1A603D
:1037400004E0034A12688243014B1A60704700008C
:103750004438024029B1064A12680243044B1A60F9
:1037600004E0034A12688243014B1A60704700006C
:1037700024380240F0B50021002200240225002652
:103780000223324F3F6807F00C0121B1042905D014
:10379000082937D105E02E4F076036E02D4F07602E
:1037A00033E02A4F3F1F3F68C7F38056274F3F1F24
:1037B0003F6807F03F036EB1264FB7FBF3F7DFF822
:1037C0008CC0ACF1040CDCF800C0CCF3881C07FB07
:1037D0000CF40CE01E4FB7FBF3F7DFF870C0ACF150
:1037E000040CDCF800C0CCF3881C07FB0CF4174F6A
:1037F0003F1F3F68C7F301477F1C7D00B4FBF5F70F
:10380000076002E0124F076000BF00BF0F4F3F6824
:1038100007F0F0010909104F7A5C0768D74047604C
:103820000A4F3F6807F4E051890A0B4F7A5C4768FA
:10383000D7408760054F3F6807F46041490B064F4A
:103840007A5C4768D740C760F0BD00000838024086
:103850000024F40040787D010000002021B102889E
:1038600042F04002028004E002884FF6BF731A4023
:103870000280704710B504462448844208D10121D3
:103880008014FFF767FF0021A014FFF763FF3CE0FF
:103890001F48844208D101210014FFF73BFF00219B
:1038A0002014FFF737FF30E01A48844208D1012185
:1038B000C013FFF72FFF0021E013FFF72BFF24E0D9
:1038C0001548844208D101214014FFF743FF00212D
:1038D0006014FFF73FFF18E01048844209D101212E
:1038E0000805FFF737FF00214FF48010FFF732FF84
:1038F0000BE00B48844208D101214805FFF72AFF5D
:1039000000214FF40010FFF725FF10BD00300140EB
:1039100000380040003C00400034014000500140AD
:10392000005401400246002013890B400BB10120D6
:1039300000E0002070470146888970478181704708
:1039400010B50022028802F441520B884C882343B0
:103950008C882343CC8823430C8923434C892343FD
:103960008C892343CC8923431A430280838B4FF2F3
:10397000FF74234083830B8A038210BD70B5044615
:103980000D460B48844212D00A4884420FD00A48A0
:1039900084420CD1012D04D180210848FFF7E5FCB9
:1039A00005E0022D03D102210448FFF7DEFC70BDC3
:1039B0000030014000380040003C0040000C024054
:1039C00070B504460D460F4884421AD00E48844212
:1039D00017D00E48844214D1012D08D180210C4803
:1039E000FFF7C1FC02210A48FFF7BFFC09E0022DE6
:1039F00007D102210648FFF7B6FC80210448FFF7F3
:103A0000B4FC70BD0030014000380040003C004074
:103A1000000C024010B588B004464748844263D089
:103A20004648844260D0464884425DD10121082046
:103A3000FFF750FE8020019001208DF80800002043
:103A40008DF80A0003208DF8090001208DF80B0085
:103A500001A93C48FFF713FC80213A48FFF785FC99
:103A600001210820FFF736FE0220019001208DF889
:103A7000080000208DF80A0003208DF809000120BD
:103A80008DF80B0001A92F48FFF7F9FB02212D4803
:103A9000FFF76BFC01210420FFF71CFE0121C80386
:103AA000FFF728FE06220A212748FFF730FC0622EE
:103AB0000B212548FFF72BFC06220C212248FFF79B
:103AC00026FC4FF4E050019002208DF808000320FE
:103AD0008DF8090000208DF80A0002208DF80B00F7
:103AE00001A91948FFF7CBFB2046FFF7C3FE0020D2
:103AF000ADF80C00ADF810004FF48270ADF80E0078
:103B00000020ADF812000120ADF814004002ADF81D
:103B100016002820ADF818000020ADF81A00072084
:103B2000ADF81C0003A92046FFF70AFF012120463B
:103B3000FFF794FE08B010BD00300140003800408F
:103B4000003C0040000C02400008024070B50546F1
:103B50000E4600BF02212846FFF7E4FE0028F9D0F8
:103B600031462846FFF7EAFE00BF01212846FFF74D
:103B7000D9FE0028F9D02846FFF7DDFEC4B2204662
:103B800070BD70470CB5002001900090344800686B
:103B900040F480303249086000BF3148006800F4CA
:103BA000003000900198401C0190009818B90198CD
:103BB000B0F5A04FF1D12A48006800F4003010B1F0
:103BC0000120009001E0002000900098012846D1DB
:103BD00023484030006840F080502149403108605F
:103BE0002048006840F440401E4908601C480830E6
:103BF00000681B49083108600846006840F400402E
:103C000008600846006840F4A05008601648091F84
:103C10000860081F006840F08070091F086000BF3E
:103C20000F48006800F000700028F9D040F20570DD
:103C30000E4908600A480830006820F0030008496F
:103C4000083108600846006840F00200086000BFC4
:103C500003480830006800F00C000828F8D10CBDBB
:103C6000003802400070004019544007003C0240F8
:103C700010B503F071FB04F067FC03F087FB10BD87
:103C800070B500200022022300240221274D2D6858
:103C900005F00C0020B1042806D0082834D107E034
:103CA000234D244E356033E0234D224E35602FE006
:103CB0001E4D2D1F2D68C5F380541C4D2D1F2D68E2
:103CC00005F03F0154B11C4DB5FBF1F5174E361F01
:103CD0003668C6F3881605FB06F209E0144DB5FBFD
:103CE000F1F5124E361F3668C6F3881605FB06F24C
:103CF0000E4D2D1F2D68C5F301456D1C6B00B2FBE9
:103D0000F3F50C4E356003E0094D0A4E356000BFF7
:103D100000BF064D2D68C5F30315084E705D054DB7
:103D20002D68C540034E356070BD00000838024064
:103D30000024F4002800002040787D012C000020A1
:103D400010B51548006840F4700013490860134826
:103D5000006840F001001149086000200F49083157
:103D600008600E4800680E4908400C4908600D487C
:103D7000091D0860081F006820F48020091F0860E2
:103D8000002006490C310860FFF7FCFE4FF0006090
:103D900001498039086010BD88ED00E0003802401C
:103DA000FFFFF6FE10300024F0B50C46154600214A
:103DB0000022068C4FF6FE773E400684018B028C73
:103DC0004FF60C7631407E1C06EA03162E43314333
:103DD0004FF6F576324044F0010632430183028407
:103DE000F0BDF0B50C461546002100220026078CD8
:103DF0004FF6EF7C07EA0C070784018B028C4FF625
:103E0000FF7707EA041640F6FF4739404FF6FF7781
:103E100007EA033739434FF6FF7707EA05273943A7
:103E20004FF65F773A4046F010073A430183028429
:103E3000F0BDF0B50C461546002100220026078C87
:103E40004FF6FF6C07EA0C070784818B028C4FF654
:103E5000FF7707EA04264FF60C7739404FF6FF77D5
:103E600007EA03172F4339434FF2FF573A4046F40E
:103E700080773A4381830284F0BDF0B50C46154645
:103E8000002100220026078C4EF6FF7C07EA0C0773
:103E90000784818B028C4FF6FF7707EA043640F6E1
:103EA000FF4739404FF6FF7707EA052739434FF6BA
:103EB000FF7707EA0337394345F6FF773A4046F480
:103EC00080573A4381830284F0BD000010B502217F
:103ED0007F4800F040FB00284FD002217C4800F0D2
:103EE0002BFB7C48008838B901207A490880784843
:103EF000406B79490860E9E0764800880128FAD1EA
:103F00000020744908807248406B74490860084674
:103F1000006871490968884207D9704800686E498D
:103F20000968401A6E49086013E06C4800686A49E5
:103F3000096888420AD269480068674909684FF6EB
:103F4000FF72511A08446649086002E00020644983
:103F500008606348006860B1624800685421B0FBA3
:103F6000F1F05F490968B0FBF1F0C0085E490860F4
:103F7000ACE000205C490860A8E00421544800F04F
:103F8000EAFA00284ED00421514800F0D5FA5148F1
:103F9000408838B901204F4948804D48806B4E49D0
:103FA000486093E04B4840880128A4D1002049494B
:103FB00048804748806B4949486008464068464900
:103FC0004968884207D94548406843494968401ACA
:103FD0004349486013E0414840683F494968884286
:103FE0000AD23E4840683C4949684FF6FF72511A70
:103FF00008443B49486002E000203949486038489D
:10400000406858B1374800685421B0FBF1F034499A
:104010004968B0FBF1F03449486057E0002032496C
:10402000486053E008212A4800F095FA00284DD056
:104030000821274800F080FA2648808838B90120F6
:10404000244988802248C06B234988603EE021488B
:10405000808801283AD100201E4988801C48C06B06
:104060001E498860084680681B498968884207D9CC
:104070001A48806818498968401A1949886013E00D
:10408000164880681449896888420AD213488068B3
:10409000114989684FF6FF72511A08441049886027
:1040A00002E000200E4988600D48806858B10D4834
:1040B00000685421B0FBF1F009498968B0FBF1F0C8
:1040C0000949886002E000200749886010BD0000AF
:1040D0000000014020000020540B0020600B002055
:1040E0006C0B002028000020040F00200EB50121D9
:1040F0000846FFF71FFB01211020FFF7EBFA4FF4F2
:104100002850009002208DF8040003208DF805004F
:1041100000208DF8060001208DF8070069462B4825
:10412000FFF7ADF8012209212848FFF7F0F8012236
:104130000B212648FFF7EBF801220D212348FFF75A
:10414000E6F84FF6FF7022494860A720088000205B
:10415000088148801F4800F021FC00201E4908808B
:104160004880012088800020C8800881194800F01C
:1041700003FA042018490880002048800120888024
:104180000020C8800881134800F0F6F90820124981
:10419000088000204880012088800020C880088195
:1041A0000C4800F0E9F901210A4800F0C8F90122A1
:1041B0000E21084800F017FA1B208DF80800012096
:1041C0008DF80A0002A8FFF715F90EBD0010024095
:1041D000100F002000000140680F002008B50121E9
:1041E0000846FFF787FA4FF45270124948600920D9
:1041F00008800020088148804FF0804000F0CEFB0E
:104200000121880700F08CF90121880700F097F957
:1042100001221146900700F0E6F91C208DF80000FD
:1042200001208DF802008DF803006846FFF7E2F8E0
:1042300008BD00001C0F002010B50121880700F008
:104240008AF928B10121880700F076F900F002F818
:1042500010BD000010B5044619480068401C1849FC
:104260000860184800681749097948436421B0FB81
:10427000F1F013490968884205D9012291031248D7
:10428000FEF7C6FF1BE00F4800680E490979484356
:104290006421B0FBF1F00A49096888420CD809484A
:1042A000006807490968884206D900224FF4804116
:1042B0000548FEF7ADFF02E000200149086010BD8F
:1042C0001C00002010000020001002407CB50546B4
:1042D0000C4601210220FFF70DFA01210420FFF70F
:1042E000F9F94FF4E070009002208DF804000320EB
:1042F0008DF8050000208DF8060001208DF80700DC
:1043000069463248FEF7BBFF022206212F48FEF71E
:10431000FEFF022207212D48FEF7F9FF02220821A5
:104320002A48FEF7F4FF2A48446005800020284907
:1043300008814880274800F031FB6020264908802A
:104340000020888101204880204604EBD07149106C
:10435000214A916011461F4800F04EF908211D487E
:1043600000F088F960201C49088000208881012025
:104370004880204604EBD0714910174A91601146DD
:10438000144800F081F90821124800F0CFF96020AC
:10439000114908800020888101204880204604EBD4
:1043A000D07149100C4A916011460A4800F0CCF9CE
:1043B0000821084800F018FA0121064800F0B0F87A
:1043C0000121044800F0BBF87CBD00000008024059
:1043D000280F002000040040400F00207CB5054657
:1043E0000C4601210420FFF785F901210820FFF781
:1043F00071F94FF47040009002208DF80400032002
:104400008DF8050000208DF8060001208DF80700CA
:1044100069463F48FEF733FF02220C213C48FEF775
:1044200076FF02220D213A48FEF771FF02220E218B
:104430003748FEF76CFF02220F213548FEF767FF71
:104440003448446005800020324908814880324861
:1044500000F0A4FA60203149088000208881012002
:104460004880204604EBD07149102C4A91601146D7
:10447000294800F0C1F80821274800F0FBF8602027
:10448000264908800020888101204880204604EBCE
:10449000D0714910214A916011461F4800F0F4F88C
:1044A00008211D4800F042F960201C4908800020C6
:1044B000888101204880204604EBD0714910174ABA
:1044C00091601146144800F03FF90821124800F0AD
:1044D0008BF96020114908800020888101204880E4
:1044E000204604EBD07149100C4A916011460A48ED
:1044F00000F084F90821084800F0BCF901210648C1
:1045000000F00EF80121044800F019F87CBD00000D
:10451000000C0240340F002000080040540F00201F
:1045200021B1028842F08002028004E002884FF646
:104530007F731A4002807047CA430282704721B1DC
:10454000028842F00102028004E002884FF6FE7306
:104550001A400280704730B5024600200023002434
:10456000158A05EA0103958905EA010413B10CB126
:10457000012000E0002030BD70B505460C462088C3
:1045800050B92389A28861882846FFF70DFCE1888D
:10459000284600F084F925E0208804280AD12389E0
:1045A000A28861882846FFF71CFCE188284600F0B5
:1045B0007FF917E0208808280AD12389A28861881A
:1045C0002846FFF736FCE188284600F07EF909E02E
:1045D0002389A28861882846FFF74FFCE188284696
:1045E00000F07CF970BD1AB183890B43838102E02E
:1045F00083898B438381704770B500240022002398
:10460000058C4FF6FE7635400584028C8388048B3A
:104610004FF68F752C40B51E2C400D882C43751E0F
:104620002A408D892A434D882A43104DA84202D042
:104630000F4DA84213D14FF6F7752A40CD892A4372
:104640004FF6FB752A408D882A434FF6FF652B40B5
:104650004FF6FF552B400D8A2B434D8A2B43838009
:1046600004838D684563028470BD00000000014032
:10467000000401400A460021018B4FF6F7731940F0
:10468000114301837047000070B50024002200230D
:10469000058C4FF6EF7635400584028C8388048BB9
:1046A00048F6FF752C404FF6FF452C400D884FF61D
:1046B000FF7606EA05252C434FF6DF752A408D89E3
:1046C00006EA05152A434D8806EA05152A43154DC5
:1046D000A84202D0144DA8421DD14FF67F752A4042
:1046E000CD894FF6FF7606EA05152A434FF6BF75CA
:1046F0002A408D8806EA05152A434FF6FF352B40E0
:104700004FF2FF752B400D8A06EA85052B434D8A33
:1047100006EA85052B43838004838D6885630284C4
:1047200070BD000000000140000401400A46002165
:10473000018B4FF2FF7319404FF6FF7303EA022318
:10474000194301837047000070B500240022002344
:10475000058C4FF6FF6635400584028C8388848B78
:104760004FF68F752C404FF6FC752C400D882C436E
:104770004FF6FF552A408D894FF6FF7606EA05254C
:104780002A434D8806EA05252A43154DA84202D042
:10479000144DA8421DD14FF2FF752A40CD894FF626
:1047A000FF7606EA05252A434FF6FF352A408D8815
:1047B00006EA05252A434EF6FF752B404DF6FF7598
:1047C0002B400D8A06EA05152B434D8A06EA05158E
:1047D0002B43838084838D68C563028470BD000091
:1047E00000000140000401400A460021818B4FF681
:1047F000F7731940114381837047000070B50022A0
:1048000000230024058C4EF6FF7635400584038C8A
:104810008488828B48F6FF752A404FF6FF452A4070
:104820000D884FF6FF7606EA05252A434DF6FF75FB
:104830002B408D8906EA05352B434D8806EA053560
:104840002B430A4DA84202D0094DA84208D14BF68D
:10485000FF752C400D8A4FF6FF7606EA85152C432E
:10486000848082838D680564038470BD00000140EC
:10487000000401400A460021818B4FF2FF7319406A
:104880004FF6FF7303EA02231943818370474163A4
:10489000704781637047C163704701647047028B42
:1048A0004FF6F3731A400283028B0A430283704768
:1048B000028B4FF2FF331A400283028B4FF6FF73D5
:1048C00003EA01231A4302837047828B4FF6F37386
:1048D0001A408283828B0A4382837047828B4FF215
:1048E000FF331A408283828B4FF6FF7303EA012362
:1048F0001A438283704700002DE9F04106460F46B7
:1049000015462248864201D1214C06E021488642C4
:1049100001D1214C01E0BDE8F081012F06D0022F2A
:104920000FD0032F18D0042F2CD120E06421606811
:10493000B0FBF1F000FB05F841463046FFF7A7FF5A
:1049400021E064216068B0FBF1F000FB05F841460E
:104950003046FFF79EFF16E064216068B0FBF1F07F
:1049600000FB05F841463046FFF795FF0BE0642158
:104970006068B0FBF1F000FB05F841463046FFF7F8
:104980008CFF00E000BF00BF00BFC4E70004004090
:10499000280F002000080040340F00200022028869
:1049A000184B98420ED0184B98420BD0B0F1804F64
:1049B00008D0164B984205D0154B984202D0154BA3
:1049C000984204D14FF68F731A404B881A43124B0A
:1049D000984207D0114B984204D04FF6FF431A403B
:1049E0000B891A4302804B68C3620B880385054B11
:1049F000984202D0044B984201D18B7A038601235E
:104A00008382704700000140000401400004004020
:104A100000080040000C004000100040001400405E
:104A200000B587B001210820FEF754FE012148049B
:104A3000FEF760FE072205212948FEF768FC0722E1
:104A400006212748FEF763FC2020059002208DF800
:104A5000180000208DF81A0002208DF8190001209E
:104A60008DF81B0005A91E48FEF709FC40200590A3
:104A700001208DF81A0000208DF81B0005A91848A8
:104A8000FEF7FDFB4FF4E13001900020ADF8080087
:104A9000ADF80A00ADF80C00ADF810000C20ADF830
:104AA0000E0001A90F4800F0CFF826208DF8000075
:104AB00001208DF8010002208DF8020001208DF800
:104AC00003006846FEF796FC012240F22551054896
:104AD00000F094F80121034800F04DF807B000BD44
:104AE000000C02400044004010B540F225510B4834
:104AF00000F05AF838B140F22551084800F02CF87F
:104B000000F038F908E040F22441044800F04CF885
:104B100010B1024800F002F910BD0000004400404E
:104B200010B540F225510B4800F03EF838B140F284
:104B30002551084800F010F800F038F908E040F27C
:104B40002441044800F030F810B1024800F0E6F8C3
:104B500010BD00000014014010B50022002340F6F3
:104B60006A14A14200D100BF0A1201249440A3B2EA
:104B7000DC43048010BD21B1828942F4005282815D
:104B800004E082894DF6FF731A4082817047024625
:104B90000020B1F5007F00D100BF13880B400BB19E
:104BA000012000E00020704770B502460024002379
:104BB0000025002040F66A16B14200D100BFC1F3C3
:104BC000421501F01F03012606FA03F3012D02D15D
:104BD0009689334006E0022D02D1168A334001E067
:104BE000968A33400C12012606FA04F416883440E3
:104BF00013B10CB1012000E0002070BDF0B50346F8
:104C0000002400260025002040F66A17B94200D192
:104C100000BF1846C1F3421401F01F06012707FA2E
:104C200006F5012C01D10C3004E0022C01D110302A
:104C300000E014301AB107682F43076002E00768EC
:104C4000AF430760F0BD00002DE9FF4705460E4663
:104C50000024A14600BFA046B08900B100BF2C8A45
:104C600024F44054F08804432C82AC8941F20C6057
:104C70008443B08831890843718908430443AC8177
:104C8000AC8A24F44074B0890443AC826846FEF7D1
:104C900071FD2048854202D01F48854202D1DDF8CF
:104CA0000C9001E0DDF80890A88900F4004040B1C4
:104CB00009EBC90000EB091031684900B0FBF1F7BE
:104CC00007E009EBC90000EB091031688900B0FB6F
:104CD000F1F76420B7FBF0F004012009642101FB27
:104CE0001078A88900F4004040B1322000EBC800E1
:104CF000B0FBF1F000F00700044308E0322000EBC5
:104D000008106421B0FBF1F000F00F0004432C8187
:104D1000BDE8FF870010014000140140014688886B
:104D2000C0F308007047C1F308028280704700BFDB
:104D3000FEE7000001460C4800680C4A12689042E9
:104D400001D100207047084802680068401C064BEB
:104D500018600748805C087018460088C0F3080097
:104D60001A4610600120EDE74C00002048000020AA
:104D7000720F002010B50A48FFF7D0FFC1B20948F2
:104D800002680068401C074B1860074881541846A9
:104D90000088C0F3080019460860012010BD00001B
:104DA0000044004048000020720F002010B50A485F
:104DB000FFF7B4FFC1B2094802680068401C074B06
:104DC00018600748815418460088C0F30800194647
:104DD0000860012010BD00000014014050000020B8
:104DE000721100202DE9F04107460D4616460024B9
:104DF0000BE000BF40213846FFF7C9FE0028F9D07C
:104E0000295D3846FFF78FFF641CB442F1DB0120B7
:104E1000BDE8F0810146481EB0F1807F01D301203A
:104E20007047481E4FF0E0225061FF20044A107086
:104E300000204FF0E0229061072010610020EFE792
:104E400023ED00E003B401984100009850EAC1202E
:104E500018BF04204A0D18BF40F0010040F2FF7255
:104E6000B2EB515F08BF40F00200012808BF0520E7
:104E700002B07047014609B900207047C8B220B19E
:104E8000C8B20E4A105C401CF7E701F47F4028B11D
:104E90000A48C1F30722805C0930EEE701F47F0085
:104EA00028B10648C1F30742805C1130E5E70348AA
:104EB00000EB116000781930DFE700008EBA0008BF
:104EC00003490868884201D0012070470020FCE7B0
:104ED0002C01002030380A2801D201207047002020
:104EE00070472DE9F04389B0064688469146002474
:104EF00000E0641C305D202804D0305D092801D01A
:104F00004445F6D324B94FF0FF3009B0BDE8F08333
:104F10002146304601F0EAF9054615B94FF0FF3059
:104F2000F3E7202101A8FBF7B1FC01AA4146304676
:104F300001F046FA074617B94FF0FF30E5E701A93F
:104F40003846A847C9F800000020DEE72DE9FC5FDD
:104F500004468B4615461E46DDE90C9ADDE90E78BF
:104F600004F114004060006000BF1C346560A6605E
:104F7000C4F80C90C4F810A02321D4E9030202F075
:104F8000BEFBD4E9033C63441A1F144BD4E901016E
:104F900002F0BAF92060A77667760020E061C4F8D5
:104FA0002080C4F82480606120766065A0651C3C88
:104FB000009023460A4A2146019004F1440003F080
:104FC0005BFB00BF0748006818B120460549096827
:104FD000884700BF0020BDE8FC9F000085810008D5
:104FE0003D840008400100202DE9F04704460E46AC
:104FF00017469846DDF8209084F80990607A20F0F2
:1050000001006072E66127620020A062C4F824807B
:10501000002506E004F1140101EBC50002F036FAA8
:105020006D1C012DF6DBBDE8F08710B502460020AF
:1050300001460EE002F1140303EBC100D0E9004386
:105040006360D0E9003423604060006000BF481C0A
:1050500001460129EEDB10BD00BF704710B520A04E
:1050600002F0F6F92148017821A002F0F1F91F4879
:10507000007800F0010010B123A002F0E9F91B480C
:10508000007800F0020010B122A002F0E1F9174808
:10509000007800F0040010B121A002F0D9F9134803
:1050A000007800F0080010B121A002F0D1F90F48FB
:1050B000007800F0100010B120A002F0C9F90B48F0
:1050C000007800F0800030B108480F3001681DA062
:1050D00002F0BEF902E01FA002F0BAF910BD000014
:1050E000627573206661756C743A0A0029ED00E000
:1050F0005343425F434653525F424653523A3078DD
:105100002530325820000000494255534552522064
:1051100000000000505245434953455252200000C0
:10512000494D50524543495345525220000000001A
:10513000554E53544B4552522000000053544B459A
:10514000525220005343422D3E424641523A2530AE
:1051500038580A000A00000070B504460D4600F0F9
:1051600015FC002070BD70B504460D4600F06CFDC6
:10517000002070BD10B51448006890F82100C0F3FD
:10518000400020B9002011490870084610BD1048A1
:10519000006838B180220E4801680C48FBF79DFB7F
:1051A0000A48F3E701F00AF920B10AA10748FBF722
:1051B0003AFA03E009A10548FBF735FA09A10348CB
:1051C000FBF7BFFA0148E1E770000020DC14002083
:1051D000740000206D7368200000000066696E7323
:1051E000682000003E00000010B501F047FF10BD30
:1051F0000549096891F8211060F34101024A1268DB
:1052000082F821107047000070000020024A1060F0
:10521000024A116070470000600000206400002016
:105220007CB5002517491848FFF7F0FF78210120C9
:1052300001F026FE154908600846006820B914A050
:1052400002F006F9681E7CBD0A2007214FF4805346
:105250000022CDE90010144914A002F044FF0446D6
:1052600000231A4613A10948006802F0B3FC01208C
:10527000FFF7BEFF1CB115B9204603F09BF80020D4
:10528000E1E700006CBD0008BCBC00087000002015
:105290006E6F206D656D6F727920666F7220736816
:1052A000656C6C0A00000000BD52000874736865EC
:1052B0006C6C00007368727800000000E9480068B8
:1052C00090F8210020F00100401CE649096881F8AF
:1052D0002100FFF74FFF054602F0BAF8C1E1FFF7E2
:1052E00083FF0446002C00DABBE11B2C05D1012012
:1052F000DC49096881F82000B3E1DA48006890F8D9
:10530000200001280DD15B2C05D10220D549096868
:1053100081F82000A5E10020D249096881F8200029
:1053200045E0D048006890F8200002283FD10020D6
:10533000CC49096881F82000412C00D191E1422C30
:1053400000D18EE1442C11D1C6480068B0F8740039
:1053500058B1C5A002F07CF8C2480068B0F87400EB
:10536000401EC0490968A1F874007AE1432C1ED19F
:10537000BC480068B0F87400BA490968B1F8721006
:10538000884213DAB7480068B0F87420B54800685E
:105390002230815CB5A002F05BF8B2480068B0F83A
:1053A0007400401CAF490968A1F8740059E10CB1C0
:1053B000FF2C00D155E1092C1FD1002503E0AAA044
:1053C00002F046F86D1CA7480068B0F87400A842C7
:1053D000F5DCA4480068223003F0FCFBA14800681B
:1053E0002230FBF744F980B29E490968A1F87200A7
:1053F0009C490968A1F8740033E17F2C01D0082C86
:105400006ED198480068B0F8740000B929E1954859
:105410000068B0F87200401E92490968A1F8720055
:1054200090480068B0F87400401E8E490968A1F8E1
:1054300074008C480068B0F872008A490968B1F8B5
:10544000741088423FDD874B1B68B3F87230854E7D
:105450003668B6F874609A1B824B1B68B3F87430D8
:105460005B1C804E3668223699197E4B1B68B3F858
:1054700074607C4B1B682233F01802F01FF9002285
:1054800078480068B0F872107648006822304254BC
:1054900074480068B0F8742072480068223011180F
:1054A00073A001F0D5FF6F480068B0F8745003E0B6
:1054B0006DA001F0CDFF6D1C6A480068B0F8720065
:1054C000A842F5DA0BE06CA001F0C2FF00216548AC
:1054D0000068B0F872206348006822308154C0E050
:1054E0000D2C01D00A2C2BD100F068FF012812D11D
:1054F0005C48006890F8210000F0010010B15FA046
:1055000001F0A6FF57480068B0F8721055480068CF
:10551000223000F0B5FEFFF72DFE054601F098FFA2
:105520005021504800682230FBF78EF900204D4989
:105530000968A1F872004B490968A1F8740090E06D
:1055400048480068B0F87200502804DB0020454944
:105550000968A1F8720043480068B0F87400414936
:105560000968B1F87210884245DA3E4B1B68B3F8FF
:1055700072303C4E3668B6F874609A1B394B1B6823
:10558000B3F87460374B1B682233F118354B1B6836
:10559000B3F874305B1C334E36682236981902F02B
:1055A0008DF830480068B0F874202E48006822302A
:1055B00084542C48006890F8210000F0010050B19C
:1055C00028480068B0F87420264800682230111876
:1055D0002BA001F03DFF23480068B0F8745003E0B1
:1055E00021A001F035FF6D1C1E480068B0F8720064
:1055F000A842F5DC12E01B480068B0F87220194898
:105600000068223084541748006890F8210000F0A8
:10561000010018B1214615A001F01AFF002411481D
:105620000068B0F87200401C0E490968A1F87200C9
:105630000C480068B0F87400401C0A490968A1F8D9
:10564000740008480068B0F87200502808DB002099
:1056500004490968A1F8720002490968A1F87400B8
:1056600000BF3CE670000020080000002563000039
:105670000825732020080000082008000A00000008
:105680002573000010B51448006800F0020010B146
:1056900012A001F0DDFE1048006800F0804088B1E3
:1056A0000D48C01E007808B1FFF7D8FC0A48001F5B
:1056B000007808B100F020FD0748801E008808B17E
:1056C00004F090FA0448006800F0004010B109A00E
:1056D00001F0BEFE10BD00002CED00E06661696CBB
:1056E000656420766563746F722066657463680A0A
:1056F000000000006465627567206576656E740A57
:105700000000000010B502A001F0A2FE002010BDB4
:1057100048656C6C6F2052542D5468726561642129
:105720000A00000010B50CA001F092FE0F480468BA
:105730000CE002220EA12068FAF7B8FF00B904E0DD
:105740000CA0216801F084FE00BF08340A480068FC
:105750008442EED3002010BD2D2D46756E63746912
:105760006F6E204C6973743A0A00000060000020DC
:105770005F5F000025730A00640000202DE9F047F8
:1057800004460D4616461F46284602F02FF981466C
:1057900009F10408C4F8008025726660E760002003
:1057A0002061BDE8F0872DE9F84F07460C464FF021
:1057B000000A00202061E06808B1207A10B90020BA
:1057C000BDE8F88FD4F800801FB945464FF0010AB4
:1057D00000E03D46FAF77EFD0090BAF1000F0ED1D1
:1057E000A5F10C0B9BF8080020F08000217A88427C
:1057F00004D00098FAF772FD0020E1E700BF002610
:10580000D4F804900BE02D68454501D1002507E050
:10581000761C49F8045BE068B04200D100E0F2E792
:1058200000BF0098FAF75AFD26612846C8E7000035
:105830002DE9F04F91B000270FF2D409082304AAF4
:1058400005210CA8FFF79AFF4FF008084A46414689
:1058500031A001F0FDFD404600F02AFE37A001F026
:10586000F7FD00BF0CA93846FFF79DFF074600254E
:1058700045E004A850F82500A0F10C06FAF72AFD2F
:105880008346307A20F080009DF83810884203D09B
:105890005846FAF723FD31E05846FAF71FFD344623
:1058A00004F1140001F011FEB8B904F1140001F084
:1058B00024FE8246208C618C23460822CDE9010A11
:1058C0000091414624A001F0C3FD04F1140003F04F
:1058D0009DF927A001F0BCFD0FE004F1140001F0D8
:1058E0000CFE8246208C618C23460822CDE9010AF9
:1058F000009141461FA001F0ABFD00BF6D1C109848
:10590000A842B6DC002FADD1002011B0BDE8F08F69
:105910006D61696C626F7800252D2A2E7320656E8B
:105920007472792073697A652073757370656E641B
:10593000207468726561640A00000000202D2D2D1E
:105940002D20202D2D2D2D202D2D2D2D2D2D2D2DAE
:105950002D2D2D2D2D2D0A00252D2A2E2A732025A3
:105960003034642020253034642025643A0000005F
:105970000A000000252D2A2E2A73202530346420A9
:1059800020253034642025640A00000010B5084842
:10599000016808A001F05CFD0B4801680BA001F054
:1059A00057FD0F4801680FA001F052FD10BD000027
:1059B000AC000020746F74616C206D656D6F72793E
:1059C0003A2025640A000000B00000207573656469
:1059D000206D656D6F7279203A2025640A00000001
:1059E000B40000206D6178696D756D20616C6C6F1D
:1059F0006361746564206D656D6F72793A2025640A
:105A00000A0000002DE9F04F91B000270FF29C0929
:105A1000082304AA03210CA8FFF7B0FE4FF00808E2
:105A20004A46414623A001F013FD404600F040FDE8
:105A300029A001F00DFD00BF0CA93846FFF7B3FE09
:105A40000746002629E004A850F82600A0F10C041F
:105A5000FAF740FC8346207A20F080009DF8381049
:105A6000884203D05846FAF739FC15E05846FAF751
:105A700035FC254605F1140001F03FFD8246E87F24
:105A80000822296A2B46CDE9020ACDE900214146C8
:105A900019A001F0DDFC00BF761C1098B042D2DCEA
:105AA000002FC9D1002011B0BDE8F08F6D7574656D
:105AB00078000000252D2A2E732020206F776E6538
:105AC000722020686F6C642073757370656E64203B
:105AD0007468726561640A00202D2D2D2D2D2D2DE9
